:020000022000DC
:1070000000000420757302005D7302005F730200CC
:1070100061730200637302006573020000000000E8
:107020000000000000000000000000006773020084
:1070300069730200000000006B7302006D730200B0
:107040006F7302006F730200C99C02006F7302002D
:107050006F7302006F730200E1990200E59F020066
:107060006F730200F5AB02000DAC02006F730200FB
:107070006F7302006F7302006F7302006F73020080
:107080006F730200318302006F7302006F7302009E
:107090006F7302006F73020091D302006F730200DE
:1070A0006F7302006F7302006F7302006F73020050
:1070B0006F7302006F730200000000000000000008
:1070C0006F7302006F7302006F7302006F73020030
:1070D0006F7302006F7302006F7302006F73020020
:1070E0006F7302006F7302006F73020000000000F4
:1070F000000000006F730200000000006F730200C8
:10710000000000000000000000000000000000007F
:10711000000000000000000000000000000000006F
:10712000000000000000000000000000000000005F
:10713000000000000000000000000000000000004F
:10714000000000000000000000000000000000003F
:10715000000000000000000000000000000000002F
:10716000000000000000000000000000000000001F
:10717000000000000000000000000000000000000F
:1071800000000000000000000000000000000000FF
:1071900000000000000000000000000000000000EF
:1071A00000000000000000000000000000000000DF
:1071B00000000000000000000000000000000000CF
:1071C00000000000000000000000000000000000BF
:1071D00000000000000000000000000000000000AF
:1071E000000000000000000000000000000000009F
:1071F000000000000000000000000000000000008F
:10720000354936480A1A02D0072291438D4634493F
:1072100034480A1A06D00722914381F309880222D2
:1072200082F3148830483149314A00F044F831483B
:107230003149324A00F03FF831483249324A00F0D1
:107240003AF832483249334A00F035F83248334987
:10725000334A00F030F833483349344A00F02BF811
:1072600033483449344A00F026F83448344900227F
:1072700000F02CF833483449002200F027F8334856
:107280003349091A082902DB002202604160314AB1
:1072900090471F481F49884205D00268043003B454
:1072A000904703BCF7E700208646EC46002000210B
:1072B000294A9047FEE7884207D0521A05D0037842
:1072C00001300B700131013AF9D17047884202D088
:1072D00002700130FAE770470000042000E003204C
:1072E0000000042000000420FCE10200D818002067
:1072F00007190020D0730200D0730200C4D7020027
:10730000FCE10200D8180020D8180020E4D70200C1
:10731000E4D70200E4D70200E4D70200E4D7020079
:10732000E4D70200E4D70200E4D70200FCE1020047
:107330002CE202000819002008190020081900207A
:10734000E41D0020E41D0020E41D0020E41D0020B9
:10735000E43D00209D730200B5BA0200FEE7FEE79F
:10736000FEE7FEE7FEE7FEE7FEE7FEE7FEE7FEE7F5
:1073700000F002B8FFF7FCBF0F484FF00701884349
:1073800085460E4880470E48016841F4700101604F
:10739000BFF34F8FBFF36F8FFFF732BF09480A4922
:1073A0000A4A884207D0521A05D0037801300B7080
:1073B0000131013AF9D1704700000420058802002C
:1073C00088ED00E0E4D70200D8180020D81800208B
:1073D00086B003900291019201238DF817309DF839
:1073E0001730214A039B13601F4A029B53601E4AB9
:1073F000019B9360039B44F20102934213D0039BD1
:1074000044F20202934221D1019B174AD360164BEA
:10741000DB681B881A46144B9A61134BDB685B6868
:10742000114AD36112E0019B0F4A13610E4B1B6995
:107430009B680D4A53610C4B1B691B680A4A936198
:10744000094B1B695B68084AD36100BF72B600BF75
:1074500000BF9DF81730DBB2002BFAD162B600BF37
:1074600000BF06B0704700BF0819002000B583B008
:1074700002900091019244F2010071466A4600F0C8
:1074800003F803B000BD00BF00B587B003900291C0
:10749000019272B600BF039B44F20202934217D0DE
:1074A000039B44F20202934218D8039B44F2010268
:1074B000934210D0039B44F2010293420ED8039BE7
:1074C000012B0DD0039B41F2010293420AD005E04B
:1074D000019B059307E0019B049304E000BF02E0D9
:1074E00000BF00E000BF084B1B6803F00103002B46
:1074F00000D000BE019A02990398FFF769FF00BF10
:1075000007B05DF804FB00BFF0ED00E0F0B583B01C
:10751000124800F0FFFE034618464FF00001104BE2
:10752000D3E90023861841EB0307CDE900670D4B33
:10753000D3E90023DDE90001994208BF904207D258
:10754000DDE9002312F1807443F10005CDE9004527
:10755000DDE900231046194603B0F0BDD81800201D
:10756000301900203819002088B001900091019B4B
:107570000793009B0693079BD3E90223CDE90423DD
:10758000069BD3E90223CDE90223DDE90423DDE9EB
:107590000201994208BF90422CBF01230023DBB2B5
:1075A000184608B07047000030B585B00190019BC7
:1075B0005B69002B03D12B49A22003F081FE00233D
:1075C0008DF80F30284B1B78002B45D0019B002BEA
:1075D00042D0019B1B7FDBB2002B3DD0FFF796FF13
:1075E000019BD3E90223994208BF90422CD3019B0F
:1075F0001B69002B02D1019B00221A77019B5B695A
:10760000019A926910469847019B1B69002B23D071
:10761000019B1B7FDBB2002B1ED0019BD3E9020133
:10762000019B1B691A464FF00003841841EB0305C8
:10763000019BC3E90245019B19460C4801F01CF867
:1076400001238DF80F3007E0019B1946074801F030
:1076500013F801238DF80F309DF80F30184605B050
:1076600030BD00BFF0D702002C190020E4D7020083
:10767000F0B589B0019000910D230793009B002283
:107680001A70019BD3E90245FFF740FF02460B4603
:10769000A61A65EB0307CDE90467DDE90423012A97
:1076A00073F100031BDB049BB3F5350F05D300F02A
:1076B000EFF90246154B134403E0019BD3E9022383
:1076C000134603934FF49603039A0021104800F0E9
:1076D00023FD0790079B002B05D1012313E0002118
:1076E0000B4800F0F1FD079B0D2B07D10198FFF728
:1076F0005BFF03461A46009B1A7003E00549F5201C
:1077000003F0DEFD0023184609B0F0BDFFFFB40012
:10771000D8180020F0D7020000B583B0044800F06C
:10772000E5FF0190019B184603B05DF804FB00BF24
:10773000E4D7020000B583B0044800F0F9FF0190DF
:10774000019B184603B05DF804FB00BFE4D70200BC
:1077500000B583B0FFF7E0FF0190019B002B02D042
:10776000019B00221A77019B002BF3D100BF00BFC1
:1077700003B05DF804FB0000054BD3E9002312F1D0
:10778000807043F10001024BC3E9000100BF704764
:107790003019002000B583B00190134B1B68002BFB
:1077A0001DD0019800F0B6FD0F4B1B68D3E90223F2
:1077B000134623F07F43194600F05EF90346B3F504
:1077C000960F04D309494FF4957003F079FD064BE9
:1077D0001B681846FFF7E8FE034B00221A6000BF43
:1077E00003B05DF804FB00BF28190020F0D70200A9
:1077F00000B583B00190FFF789FE02460B460349AE
:10780000C1E9002300BF03B05DF804FB3819002074
:1078100000B587B00190FFF78DFF049000238DF82D
:107820001730049B002B48D02B4B1B68002B03D137
:1078300001238DF8173019E0049BD3E90201264B90
:107840001B68D3E90223994208BF90420ED201235C
:107850008DF81730204B1B681B7FDBB2002B05D047
:107860001D4B1B6819461D4800F006FF9DF8173098
:10787000002B2AD0FFF750FF04900DF10F0319469B
:107880000498FFF7F5FE0346002B12D0124B1B683D
:10789000002B02D1019800F04BFB0F4A049B1360B0
:1078A0009DF80F3083F00103DBB2002BB3D000BF93
:1078B0000EE0094B00221A60ADE7074B1B68002B56
:1078C00005D1019800F04AFB01E000BF00E000BFD5
:1078D00000BF07B05DF804FB28190020E4D70200C0
:1078E00000B587B001902C4A03AB1946104600F052
:1078F0009BFD059048E0059B1B78022B2ED0022BA8
:1079000032DC002B02D0012B14D02DE0059B5B68EC
:107910001B7FDBB283F00103DBB2002B26D0059B7B
:107920005B6801221A77059B5B6819461B4800F0CB
:10793000A3FE1BE0059B5A68194B1B689A4203D1B2
:10794000174B00221A6012E0059B5B68194613482A
:1079500000F002FF03468DF8133008E0FFF7F8FE51
:10796000104B01221A7002E000BF00E000BF0A4A7B
:1079700003AB1946104600F070FD074A03AB1946E9
:10798000104600F051FD0590059B002BB3D100BFC0
:1079900000BF07B05DF804FB98190020E4D702008F
:1079A000281900202C19002000B583B001900198FF
:1079B00000F07DFC0346002B01D0FFF7DDFE002127
:1079C000019800F092FC0346002B02D00198FFF7CB
:1079D000E1FE0121019800F088FC0346002B02D053
:1079E0000198FFF705FF0198FFF77AFF0198FFF76D
:1079F0000FFF00BF03B05DF804FB000000B583B0CB
:107A0000164B1B680093164808235822154900F0AE
:107A1000D8FC0190019B002B01D0019B19E06B4623
:107A2000114A1946114800F023FA0190019B002BDE
:107A300001D0019B0DE001210C4800F027FC01233F
:107A40000B4A0121094800F09FFA0A4B01221A70E3
:107A5000019B184603B05DF804FB00BF38D8020054
:107A60009819002040190020A9790200D818002098
:107A7000FFFF7F002C19002082B001900091019A35
:107A8000009BD31A23F07F43184602B070470000D2
:107A900008B5034800F03EFC0346184608BD00BF89
:107AA000D818002082B0EFF310830093009B01935D
:107AB00072B600BF019B184602B0704762B600BFA5
:107AC00000BF704700B585B00190FFF7EBFF039052
:107AD000164B9B68002B1BD1144B01229A60144B50
:107AE000D3F88020134B1340104A1360104B114AF7
:107AF000C3F880200E4BD3F884300C4A53600C4BF3
:107B00004FF0FF32C3F88420019B00221A7002E07C
:107B1000019B01221A70039B002B01D1FFF7CEFFBE
:107B20000023184605B05DF804FB00BFAC19002027
:107B300000E100E0FC06FFBD00B585B003468DF80E
:107B40000730104B9B68002B16D09DF80730002B98
:107B500012D1FFF7A7FF03900B4A0A4B1B68136073
:107B6000094A084B5B685360064B00229A60039BEE
:107B7000002B01D1FFF7A2FF0023184605B05DF8E6
:107B800004FB00BFAC19002000E100E000B583B0A9
:107B9000019000F02BF80346012B03D00549432048
:107BA00003F08EFB0198FFF78DFF00BF03B05DF877
:107BB00004FB00BF3CD8020000B583B003468DF83B
:107BC000073000F013F80346012B03D0064951207B
:107BD00003F076FB9DF807301846FFF7ADFF00BFB6
:107BE00003B05DF804FB00BF3CD8020084B0EFF3A3
:107BF00005830193019BC3F308030393039B002BAD
:107C00000DD1EFF314830093009B0293029B03F0CA
:107C10000103002B0CBF01230023DBB200E0012392
:107C2000184604B07047000082B003468DF8073054
:107C30009DF8073003F01F0205499DF907305B09E5
:107C4000012000FA02F241F8232000BF02B0704781
:107C500000E100E082B0034600918DF807309DF905
:107C60000730002B0CDA009BDAB20C499DF8073084
:107C700003F00F03043B5201D2B20B441A7609E021
:107C8000009BDAB206499DF907305201D2B20B448B
:107C900083F8002300BF02B0704700BF00ED00E092
:107CA00000E100E000B583B003460A468DF80730D6
:107CB00013468DF806309DF80630012B03D99DF848
:107CC0000630032B0BD99DF80630042B03D99DF801
:107CD0000630072B03D908496B2003F0F1FA9DF811
:107CE00006209DF9073011461846FFF7B3FF00BF85
:107CF00003B05DF804FB00BF8CD8020000B583B070
:107D000003468DF807309DF907301846FFF78CFFC2
:107D100000BF03B05DF804FB00B585B00190019B86
:107D2000002B0AD0074B43F001030393019B9B01F7
:107D30000293039B0298984700E000BF05B05DF8EE
:107D400004FB00BF30D9020084B00390029101927D
:107D5000039B029A02F5A872019943F8221000BF12
:107D600004B0704782B001900091019B009A02F527
:107D7000A87253F82230184602B0704782B00190C2
:107D80000091019B009AC3F8042300BF02B0704722
:107D900082B001900091019B009AC3F8082300BFB4
:107DA00002B0704782B001900B46ADF80230BDF8CA
:107DB0000230019A13441B68184602B0704784B021
:107DC00001900B46ADF80230BDF80230019A134421
:107DD00000221A60BDF80230019A13441B68039315
:107DE000039B00BF04B0704782B00190019BD3F8A1
:107DF0000435184602B0704700B583B00190009179
:107E0000009BB3F5805F04D306494FF4BE7003F0C6
:107E100057FA019B009AC3F8082500BF03B05DF82C
:107E200004FB00BFBCD8020082B001900B468DF865
:107E300003309DF80320019B13441A46012313606D
:107E400000BF02B0704782B001900091019B009A80
:107E5000C3F8442300BF02B0704782B00190009184
:107E6000019B009AC3F8482300BF02B0704700008E
:107E700000B587B0039002910192039B002B03D1C0
:107E80002849552003F01CFA029B002B03D12549F9
:107E9000562003F015FA019B002B03D121495720EE
:107EA00003F00EFA039B5B7919461F4A019B42F8C7
:107EB0002130039B5B791D4ADB0013441B79002BA7
:107EC00003D008230593059B27E0039B1A68029BB8
:107ED0001B8819461046FFF78FFF039B93F9042078
:107EE000029B9B7819461046FFF7DCFE039B93F933
:107EF00004301846FFF702FF039B5B790B4ADB0057
:107F0000134401221A71039B5B791946074A039BAC
:107F100042F8313000230593059B184607B05DF801
:107F200004FB00BFECD80200B8190020BC190020E7
:107F300000B583B00190019B002B03D10649872037
:107F400003F0BEF9019B1B6800211846FFF76CFF88
:107F500000BF03B05DF804FBECD8020000B583B0AD
:107F60000190019B002B03D106498D2003F0A8F955
:107F7000019B1B6804211846FFF756FF00BF03B0A2
:107F80005DF804FBECD8020000B587B003900291C5
:107F900001928DF80330039B002B03D121499620D9
:107FA00003F08EF94FF48032029B02FA03F305933B
:107FB000029B50339BB29B00ADF81230019B23F023
:107FC0007F430193039B1B6805991846FFF7E0FE6A
:107FD000039B1B6805991846FFF73FFF039B1B682F
:107FE000BDF8122011461846FFF7E9FE039B1B68F7
:107FF000019A02991846FFF7A7FE039B1B68059993
:108000001846FFF720FF9DF80330002B05D0039B97
:108010001B6805991846FFF7B1FE00BF07B05DF871
:1080200004FB00BFECD8020000B585B003900291BC
:1080300013468DF80730039B002B03D10B49A92071
:1080400003F03EF9039B1B6802991846FFF7FBFEFD
:108050009DF80730002B05D0039B1B68029918463A
:10806000FFF78CFE00BF05B05DF804FBECD8020002
:1080700000B583B001900091019B002B03D10A4908
:10808000B32003F01DF9019B1B6800991846FFF708
:10809000E4FE019B1B6800991846FFF779FE00BFBC
:1080A00003B05DF804FB00BFECD8020000B583B05C
:1080B00001900B46ADF80230019B002B03D10F4914
:1080C000BA2003F0FDF8019B1B68BDF802201146A1
:1080D0001846FFF767FE0346002B09D0019B1B687B
:1080E000BDF8022011461846FFF769FE012300E0A3
:1080F0000023184603B05DF804FB00BFECD8020073
:1081000082B001900091019A009BD31A23F07F4323
:10811000184602B07047000000B58BB00390029182
:1081200001920093039B002B03D15749CD2003F00C
:10813000C7F84FF48032029B02FA03F30993029BC3
:1081400050339BB29B00ADF82230019B23F07F435C
:10815000019309990398FFF78BFF039B1B6818464F
:10816000FFF742FE0790039B1B6802991846FFF732
:10817000F9FD0690039B1B68079A02991846FFF7C2
:10818000E3FD039B1B68BDF8222011461846FFF74C
:1081900016FE07990698FFF7B3FF0346012B0AD195
:1081A0001020FFF7B9FD039B1B68BDF82220114684
:1081B0001846FFF704FE039B1B681846FFF714FEE2
:1081C000079007990198FFF79BFF0590039B1B6899
:1081D00009991846FFF737FE059B012B15D1039B24
:1081E0001868019B01331A460299FFF7ADFD102074
:1081F000FFF792FD039B1B681846FFF7F5FD02464B
:10820000079B934235D00D2339E0039B1B68019AED
:1082100002991846FFF798FD039B1B681846FFF765
:10822000E3FD0790019B013B07991846FFF768FFA4
:108230000590009BC3F1FF1303F57F43059A9A4213
:1082400001D90D231BE0059B002B12D1039B18685D
:10825000019B01331A460299FFF776FD039B1B68C9
:108260001846FFF7C1FD0246079B934201D00D233C
:1082700005E0012209990398FFF7D6FE002318466E
:108280000BB05DF804FB00BFECD8020000B583B072
:1082900001900B468DF803309DF803301A460221F9
:1082A0000198FFF7C1FE00BF03B05DF804FB00B505
:1082B00083B001904FF482710198FFF7F7FE0346F7
:1082C000184603B05DF804FB00B583B0019000913F
:1082D0004FF48032009B02FA03F319460198FFF72E
:1082E000C7FE00BF03B05DF804FB00B585B0019088
:1082F0000091009B50339BB29B00ADF80E30BDF84F
:108300000E3019460198FFF7D1FE0346184605B016
:108310005DF804FB00B583B00190019B1B68184613
:10832000FFF762FD0346184603B05DF804FB00004A
:1083300008B5044B1B68044A12681046984700BFF2
:1083400008BD00BFB8190020BC19002086B00190FC
:108350000091019B53E8021F1FFAA1F2D8888242C4
:1083600002BFBFF32F8F00230DE0D8890244988904
:10837000824228BF121AC1EA024243E802200028C2
:10838000E8D14FF001038DF80F300590029104926F
:10839000029A009B1A609DF80F30DBB2184606B0B7
:1083A000704784B00190019951E8023FC3EA23432A
:1083B00041E80232002AF7D10392029300BF04B0D1
:1083C000704784B00390029111461A460B46ADF8EF
:1083D00006301346ADF80430029B002B01D10E236A
:1083E0001FE0BDF80630BDF80420B3FBF2F102FB3C
:1083F00001F29B1A9BB2002B01D0092311E0039BD1
:10840000029A1A60039B00225A60039B00229A6022
:10841000039BBDF806209A81039BBDF80420DA81F6
:108420000023184604B0704700B585B00190009154
:10843000009B19460198FFF789FF0346002B07D0E0
:10844000019B1B68009A528813440393039B00E02E
:108450000023184605B05DF804FB00B583B0019019
:108460000091009B1A88009B5B889A4204D1019876
:10847000FFF797FF012300E00023184603B05DF8E3
:1084800004FB000082B003468DF807309DF80730EA
:1084900003F01F0206499DF907305B09012000FA2D
:1084A00002F2603341F8232000BF02B0704700BFE2
:1084B00000E100E000B583B00190019B002B03D1E7
:1084C0000649722002F0FCFE019B00221A60BFF3F5
:1084D0005F8F00BF00BF03B05DF804FB8CD90200C2
:1084E00041DF704700BF184600B585B000238DF806
:1084F00003300DF103031846FFF748FBF1EE103A85
:108500000193019B0393039B23F09F030293029B20
:10851000E1EE103A00BFBFF35F8F00BF2620FFF7E8
:10852000B1FF9DF803301846FFF746FB039B03F0AD
:108530000703002B03D004497D2002F0C1FE00BFD9
:1085400005B05DF804FB00BFC4D9020008B5064BB6
:1085500000221A700548FFF7ADFF0549054800F0F5
:108560002FF80023184608BDC8190020C4190020A0
:1085700010DA0200CC19002000B583B0FFF7B4FF79
:1085800004F0D8FE0346002B0ED0FFF7A9FF0190A0
:10859000019B002B0ED0019B022B0BD007494FF4FF
:1085A000B07002F08DFE05E020BF00BF40BF00BFED
:1085B00020BF00BF00BF03B05DF804FBC4D90200B8
:1085C00000B583B001900091019B002B03D11049AD
:1085D000502002F075FE009B002B03D10C49512066
:1085E00002F06EFE019B009A1A60019B1B681A68DC
:1085F000019B5A60019B5A68019B1B685B689A4209
:1086000002D1019B00225A6000BF03B05DF804FB59
:108610001CDA020000B583B00190019B002B03D14E
:108620001449632002F04CFE019B1B68002B03D110
:108630001049642002F044FE019B5B68002B14D0BB
:10864000019B5B681A46019B1B689B6813441A4692
:10865000019B5A60019B5A68019B1B685B689A42A8
:1086600004D1019B00225A6000E000BF03B05DF816
:1086700004FB00BF1CDA020000B585B00190009138
:10868000019B002B03D118493A2002F019FE009BF0
:10869000002B03D114493B2002F012FE019B5B68C2
:1086A00003930FE0019B9B68039A126800991046A0
:1086B0009847034683F00103DBB2002B07D1039BED
:1086C0001B680393039B1B68002BEBD100E000BFEA
:1086D000039B1A68009B1A60039B009A1A6000BFF4
:1086E00005B05DF804FB00BF80DA020000B585B07C
:1086F0000190019B002B03D10C49512002F0E0FDB9
:10870000019B5B681B680393019B5B681B68002BE4
:1087100006D0019B5B681A68019B5B6812681A604F
:10872000039B184605B05DF804FB00BF80DA020029
:1087300000B583B00190019B002B03D105495D205A
:1087400002F0BEFD019B5B681B68184603B05DF834
:1087500004FB00BF80DA020000B585B001900091F3
:10876000019B002B03D11649692002F0A9FD009B53
:10877000002B03D112496A2002F0A2FD00238DF8DC
:108780000F30019B5B6802930FE0029B1B68009A0D
:108790009A4207D1009B1A68029B1A6001238DF848
:1087A0000F3006E0029B1B680293029B1B68002BA4
:1087B000EBD19DF80F30184605B05DF804FB00BF03
:1087C00080DA0200BFF34F8F00BF074BDB6803F472
:1087D000E0620549054B1343CB60BFF34F8F00BFE9
:1087E00000BF00BFFCE700BF00ED00E00400FA0599
:1087F000024B034A1A6000BF704700BFE018002018
:108800000090D00308B500F027F90346002B0ED0E6
:108810004FF080430022C3F80C214FF08043002228
:10882000C3F810214FF080430022C3F8382500F030
:1088300037F90346002B76D04FF080537D4AD3F8AA
:108840000434C2F820354FF080537A4AD3F8083404
:10885000C2F824354FF08053764AD3F80C34C2F86E
:1088600028354FF08053734AD3F81034C2F82C35B2
:108870004FF080536F4AD3F81434C2F830354FF0BC
:1088800080536C4AD3F81834C2F834354FF0805313
:10889000684AD3F81C34C2F840354FF08053654A1B
:1088A000D3F82034C2F844354FF08053614AD3F8EE
:1088B0002434C2F848354FF080535E4AD3F8283448
:1088C000C2F84C354FF080535A4AD3F82C34C2F8D2
:1088D00050354FF08053574AD3F83034C2F85435EE
:1088E0004FF08053534AD3F83434C2F860354FF018
:1088F0008053504AD3F83834C2F864354FF080536F
:108900004C4AD3F83C34C2F868354FF08053494A9A
:10891000D3F84034C2F86C354FF08053454AD3F851
:108920004434C2F8703500F0DFF80346002B02D063
:10893000414B424A1A6000F0E9F80346002B03D08D
:108940003F4BFB22C3F8182500F0F2F80346002B3A
:108950000AD03C4B1B6823F00F023B4B1B6803F013
:108960000F03384913430B6000F0F4F80346002B63
:1089700003D0364B4FF400721A6000F0FDF8034646
:10898000002B0DD04FF08043D3F8003403F00103E7
:10899000002B05D04FF080436FF00102C3F8002494
:1089A0002B4BD3F888302A4A43F47003C2F888303E
:1089B000BFF34F8F00BFBFF36F8F00BF4FF0102387
:1089C000D3F80032002B05DB4FF01023D3F804322C
:1089D000002B2BDA1F4B0122C3F8042500BF1D4BCF
:1089E000D3F80034002BFAD04FF010231222C3F832
:1089F000002200BF174BD3F80034002BFAD04FF001
:108A000010231222C3F8042200BF124BD3F8003403
:108A1000002BFAD00F4B0022C3F8042500BF0D4BEA
:108A2000D3F80034002BFAD0FFF7CCFEFFF7E0FEBE
:108A300000BF08BD00C000408C56004048810300C4
:108A400000F00040E40E0040580200104096024042
:108A500000ED00E000E001400F4B1B68082B17D130
:108A60000E4B1B68002B01D1012312E00B4B1B683E
:108A7000012B01D101230CE0084B1B68022B01D113
:108A8000012306E0054B1B68032B01D1012300E005
:108A900001231846704700BF300100103401001058
:108AA0000F4B1B68082B17D10E4B1B68002B01D1F5
:108AB000012312E00B4B1B68012B01D101230CE0B9
:108AC000084B1B68022B01D1012306E0054B1B68F4
:108AD000032B01D1012300E001231846704700BF9A
:108AE0003001001034010010064B1B68082B05D123
:108AF000054B1B68002B01D1012300E00023184621
:108B0000704700BF3001001034010010064B1B6895
:108B1000082B05D1054B1B68002B01D1012300E078
:108B200000231846704700BF3001001034010010C8
:108B3000064B1B68082B05D1054B1B68002B01D188
:108B4000012300E000231846704700BF30010010E9
:108B500034010010064B1B68082B05D1054B1B6820
:108B6000002B01D1012300E000231846704700BF0D
:108B700030010010340100100F4B1B68082B17D177
:108B80000E4B1B68002B01D1012312E00B4B1B681D
:108B9000012B01D101230CE0084B1B68022B01D1F2
:108BA000012306E0054B1B68032B01D1012300E0E4
:108BB00001231846704700BF300100103401001037
:108BC00082B003468DF807309DF8073003F01F028E
:108BD00006499DF907305B09012000FA02F22033B3
:108BE00041F8232000BF02B0704700BF00E100E061
:108BF00008B504F09FFB034683F00103DBB2002BB2
:108C000003D10549792002F05BFB00F05BFA034BCE
:108C100000229A7000BF08BDCCDA0200D4190020EF
:108C200000B583B000230193144B1B78002B02D0B6
:108C3000852301931CE0114B00229A600F4B002208
:108C40005A600E4B00221A610C4B0022DA600C486D
:108C500000F0F8F9019004F06DFB034683F0010386
:108C6000DBB2002B01D000F013FA044B01221A7082
:108C7000019B184603B05DF804FB00BFD419002027
:108C8000598D020084B00190019B1B680393039BE4
:108C9000002B03D0039B1A68019B1A60039B1846A4
:108CA00004B0704700B583B0164B1B78002B04D17D
:108CB00015494FF4857002F003FB124BDB68002B63
:108CC00004D1114940F20B1002F0FAFA00238DF89A
:108CD00007300DF107031846FEF758FF094BDB6814
:108CE000013B084AD360074BDB68002B01D1FFF73B
:108CF0007FFF9DF807301846FEF75EFF00BF03B008
:108D00005DF804FBD4190020CCDA020000B585B070
:108D100003468DF807309DF80730002B02D10C4B2D
:108D2000039301E00B4B03930398FFF7ABFF029013
:108D3000029B002B06D0029B5B689DF80720104623
:108D40009847F1E700BF00BF05B05DF804FB00BF26
:108D5000DC190020E419002000B583B003468DF82B
:108D600007309DF80730002B05D10A4B01225A70BD
:108D70000020FFF7CBFF9DF80730012B05D1054BF5
:108D800001229A700120FFF7C1FF00BF03B05DF818
:108D900004FB00BFD419002000B583B001900091FE
:108DA000019B002B05D1054B01225A700020FFF7D3
:108DB000ADFF00BF03B05DF804FB00BFD419002075
:108DC00000B585B0034600918DF807309DF8073057
:108DD000032B29D0032B35DC002B02D0012B04D030
:108DE00030E00020FFF7ECFE2DE000238DF80F307F
:108DF0000DF10F031846FEF7C9FE154B1B7883F0E3
:108E00000103DBB2002B01D0FFF70AFF104BDB6838
:108E100001330F4AD3600E4B01229A709DF80F3038
:108E20001846FEF7C9FE0EE0094B1B78002B04D153
:108E3000084940F2452002F043FA00F029F9FFF713
:108E400031FF00E000BF00BF05B05DF804FB00BFCC
:108E5000D4190020CCDA020082B003468DF8073026
:108E60009DF8073003F01F0205499DF907305B09A3
:108E7000012000FA02F241F8232000BF02B070473F
:108E800000E100E082B0034600918DF807309DF9C3
:108E90000730002B0CDA009BDAB20C499DF8073042
:108EA00003F00F03043B5201D2B20B441A7609E0DF
:108EB000009BDAB206499DF907305201D2B20B4449
:108EC00083F8002300BF02B0704700BF00ED00E050
:108ED00000E100E082B00190019B1B0B5BB21846E1
:108EE00002B0704700B583B003460A468DF80730DC
:108EF00013468DF806309DF80630012B03D99DF8F6
:108F00000630032B0BD99DF80630042B03D99DF8AE
:108F10000630072B03D908496B2002F0D1F99DF8E0
:108F200006209DF9073011461846FFF7ABFF00BF3A
:108F300003B05DF804FB00BF14DB020000B583B092
:108F400003468DF807309DF907301846FFF784FF78
:108F500000BF03B05DF804FB82B003468DF8073014
:108F60000F4A9DF90730002B00DA1F335B115BB20B
:108F700052F823209DF90730594203F01F0301F0F6
:108F80001F0158BF4B425BB222FA03F303F0010307
:108F9000002B14BF01230023DBB2184602B0704738
:108FA00000E100E082B003468DF807309DF80730FD
:108FB00003F1804301221A6000BF02B0704782B003
:108FC00001904FF08042019BC2F8183500BF02B0FB
:108FD00070474FF08043D3F818341B0C03F00103A3
:108FE000002B14BF01230023DBB21846704700B5E5
:108FF00083B006238DF807304FF08040FFF76AFFFB
:1090000003461846FFF7A8FF034683F00103DBB2CF
:10901000002B13D04FF08040FFF75CFF03461A4649
:109020009DF8073019461046FFF75CFF4FF080406F
:10903000FFF750FF03461846FFF780FF00BF03B05D
:109040005DF804FB00B585B00190019B002B03D1B6
:109050000D49A42002F034F9002303930B4B1B7934
:10906000002B02D08523039308E0084A019B13607C
:10907000064B01221A71054B00225A71039B1846B8
:1090800005B05DF804FB00BF44DB0200E8190020D6
:1090900008B5094B1B79002B03D10849BD2002F00C
:1090A0000FF9FFF7A4FF0120FFF789FF044B01220E
:1090B0001A7000BF08BD00BFE819002044DB0200A1
:1090C000F019002008B50A4B1B79002B03D1094980
:1090D000F72002F0F5F80C20FFF764FF00BFFFF760
:1090E00078FF0346002BFAD100BF00BF08BD00BFC8
:1090F000E819002044DB020082B003468DF80730F7
:109100009DF8073003F01F0205499DF907305B0900
:10911000012000FA02F241F8232000BF02B070479C
:1091200000E100E082B0034600918DF807309DF920
:109130000730002B0CDA009BDAB20C499DF807309F
:1091400003F00F03043B5201D2B20B441A7609E03C
:10915000009BDAB206499DF907305201D2B20B44A6
:1091600083F8002300BF02B0704700BF00ED00E0AD
:1091700000E100E000B583B003460A468DF80730F1
:1091800013468DF806309DF80630012B03D99DF863
:109190000630032B0BD99DF80630042B03D99DF81C
:1091A0000630072B03D908496B2002F089F89DF897
:1091B00006209DF9073011461846FFF7B3FF00BFA0
:1091C00003B05DF804FB00BF8CDB020000B583B088
:1091D00003468DF807309DF907301846FFF78CFFDE
:1091E00000BF03B05DF804FB82B003468DF8073082
:1091F0009DF8073003F1804303F5C043184602B0E1
:10920000704700B583B00346ADF80630BDF80630B0
:10921000184600F026F803461B68012B0CBF0123FB
:109220000023DBB2184603B05DF804FB00B585B03F
:109230000346ADF80630BDF80630184600F011F8C8
:1092400003461A4600231360BDF80630184600F0A6
:1092500008F803461B680393039B00BF05B05DF845
:1092600004FB82B00346ADF80630BDF8063003F1CA
:10927000804303F5C043184602B0704782B00190A6
:10928000034A019BC2F8043300BF02B0704700BF1D
:109290000060004082B00190034BD3F80423019B8F
:1092A0001340184602B070470060004082B0019041
:1092B000054A019B03F5A27352F823301B0A03F001
:1092C0003F03184602B070470060004082B0019032
:1092D000064A019B03F5A27352F823301B0C03F0DE
:1092E0000303DBB2184602B0704700BF00600040C5
:1092F00084B00390029111461A460B468DF8073050
:1093000013468DF80630184A039B03F5A27352F8F2
:109310002330154923F4991323F4F853039A02F5E3
:10932000A27241F82230104A039B03F5A27352F84F
:109330002320029B1B0203F47C519DF807301B0481
:1093400003F4403319439DF806301B0503F48013E2
:109350000B4305491A43039B03F5A27341F82320ED
:1093600000BF04B0704700BF0060004000B583B08C
:109370000190019B1B682F2B04D90B4940F2CD10A3
:1093800001F09EFF019B1B681F2B02D84FF0A043EA
:1093900006E0019B1B6803F01F02019B1A60034B50
:1093A000184603B05DF804FBBCDB0200000300506C
:1093B00000B585B00190084611461A4603468DF85F
:1093C00003300B468DF8023013468DF8013001ABA7
:1093D0001846FFF7CBFF03909DF803209DF802305D
:1093E0005B001A439DF801309B001A439DF818302A
:1093F0001B0242EA03019DF81C301B04019A194329
:10940000039B02F5E07243F8221000BF05B05DF83F
:1094100004FB00B585B00390002301930023009363
:109420000023012201210398FFF7C2FF00BF05B00E
:109430005DF804FB00B585B001900B468DF8033054
:1094400001AB1846FFF792FF0390019A039B02F5C8
:10945000E07253F82230019A23F44031039B02F565
:10946000E07243F82210019A039B02F5E07253F870
:1094700022309DF8032012041146019A1943039BE0
:1094800002F5E07243F8221000BF05B05DF804FB5E
:1094900000B585B0019001AB1846FFF767FF039058
:1094A000019B012202FA03F31946039800F036F8F3
:1094B00000BF05B05DF804FB00B585B0019001ABBD
:1094C0001846FFF753FF0390019B012202FA03F3B2
:1094D0001946039800F02CF800BF05B05DF804FBB6
:1094E00000B585B0019001AB1846FFF73FFF039030
:1094F000019A039B02F5E07253F822301B0C03F033
:109500000303DBB2184605B05DF804FB82B001909E
:10951000019BD3F81035184602B0704782B0019015
:109520000091019B009AC3F8082500BF02B0704764
:1095300082B001900091019B009AC3F80C2500BFF6
:1095400002B0704700B589B0039002910192184AA9
:1095500005AB92E8030083E80300039A029B1344DF
:10956000022B04D9134940F2FD2001F0A9FE039B10
:10957000079311E0079B9B0008AA134453F80C3C87
:109580001846FFF7C3FF0246019B1A60019B043394
:109590000193079B01330793039A029B1344079A95
:1095A0009A42E7D300BF00BF09B05DF804FB00BFDB
:1095B000ECDB0200BCDB020084B001900091009B58
:1095C0000393019BDB080293019B03F007030193C4
:1095D0000122019B02FA03F30399029A0A441278CA
:1095E0001340184604B0704784B001900091009B6E
:1095F0000393019BDB080293019B03F00703019394
:10960000039A029B13441B785AB20121019B01FA71
:1096100003F35BB2134359B2039A029B1344CAB2D9
:109620001A7000BF04B0704782B00190074A019BD6
:109630001344303393F90030B3F1FF3F14BF0123DB
:109640000023DBB2184602B0704700BFF4190020B7
:1096500082B001900C4A019B1344303393F90030DF
:10966000002B09DB084A019B1344303393F9003087
:10967000072B01DC012300E0002303F00103DBB230
:10968000184602B0704700BFF419002084B0039060
:10969000029101928DF80330029B59B20E4A039B4E
:1096A000134430330A461A700B49029B019A41F861
:1096B00023209DF8033083F00103DBB2002B08D098
:1096C000029B083B039A51B2034A13440A4683F8AB
:1096D000602000BF04B07047F419002082B00190F0
:1096E000044A019B13443033FE221A7000BF02B0BB
:1096F000704700BFF419002082B00190044A019B1A
:1097000013443033FF221A7000BF02B0704700BF0D
:10971000F419002000B583B0019004490198FFF7C7
:1097200063FF00BF03B05DF804FB00BF581A0020C0
:1097300082B00190044A019B1344303393F9003006
:10974000184602B0704700BFF419002082B00190A3
:10975000034A019B52F82330184602B0704700BFFD
:10976000F419002000B589B00390029113468DF8DA
:109770000730FF238DF81F309DF80730002B01D0F4
:10978000002300E0082305939DF80730002B01D04B
:10979000082300E00C230493059B069314E00F4A72
:1097A000069B52F82330B3F1FF3F0AD19DF80730F2
:1097B000029A06990398FFF769FF069B8DF81F3000
:1097C00006E0069B01330693069A049B9A42E6D371
:1097D0009DF91F30184609B05DF804FBF41900200C
:1097E00082B003468DF807309DF80730094A4FF0E4
:1097F000FF3142F823109DF80730072B07D99DF859
:109800000730083B034A1344FF2283F8602000BF5F
:1098100002B07047F419002000B583B0254B93F8CF
:109820006A30002B03D008230093009B3EE0002306
:109830008DF8073009E09DF807301846FFF75CFF08
:109840009DF8073001338DF807309DF807302F2B36
:10985000F1D900238DF8073009E09DF8073018464C
:10986000FFF7BEFF9DF8073001338DF807309DF8F4
:1098700007300B2BF1D9062200210F4803F01DFF02
:1098800006210620FFF776FC0620FFF79FFC4FF429
:10989000BE70FFF7CBFC4FF00040FFF7EFFC054B2D
:1098A000012283F86A2000230093009B184603B02E
:1098B0005DF804FBF4190020581A002000B585B0AB
:1098C00001900091019B2F2B04D92E494FF49870E1
:1098D00001F0F6FC2C4B93F86A30012B04D0294997
:1098E00040F2311001F0ECFC009B002B04D1254923
:1098F0004FF4997001F0E4FC002303930198FFF703
:1099000093FE0346002B02D00823039334E0009B10
:109910009B78002B19D0012200210198FFF722FF2C
:1099200003468DF80B309DF90B30B3F1FF3F09D0A2
:109930009DF90B00009B1A78009B5B780199FFF75B
:10994000D7FC05E00423039302E00198FFF7C6FE6D
:10995000039B002B10D1009B5B78012B03D1019856
:10996000FFF796FD02E00198FFF7A6FD0198FFF7CB
:1099700050FD0198FFF7CEFE039B184605B05DF839
:1099800004FB00BFF4DB0200F419002000B585B031
:109990000190019B2F2B04D910494FF4D77001F08F
:1099A0008FFC0198FFF754FE0346002B04D10B49AE
:1099B00040F2AF1001F084FC0198FFF7B9FE0346B6
:1099C000DBB29B008DF80F309DF80F301846FFF783
:1099D0000BFC0346184605B05DF804FBF4DB0200FF
:1099E00000B599B00023179306AB00221A605A60A5
:1099F0004FF48073ADF8563001231493002316936F
:109A000021E0BDF856301846FFF7FBFB0346002B5C
:109A10000ED01498FFF73EFC0346002B08D0BDF88B
:109A200056301846FFF702FC179A149B13431793FE
:109A3000149B5B001493BDF856300433ADF85630D8
:109A4000169B01331693169B072BDAD94FF4BE7081
:109A5000FFF7D7FB0346002B0DD04FF4BE70FFF786
:109A6000E5FB179B43F00043179306AB1A46022110
:109A70000020FFF767FD179BDBB2002B29D00123E5
:109A800014930023169321E0149A179B1340002B84
:109A900016D01698FFF70AFC11901698FFF716FCDF
:109AA00003468DF843301698FFF750FE0F900F9B3A
:109AB000002B05D09DF843200F9B11461198984725
:109AC000149B5B001493169B01331693169B072B74
:109AD000DAD9179B002B80F2F08000238DF84B30F1
:109AE00004AB00221A605A60002313930AE0139B10
:109AF0009B0018AA13444FF0FF3243F8582C139BD5
:109B000001331393139B012BF1D900238DF84B30B4
:109B10000023169378E06B4A169B1344603393F945
:109B200000308DF83B309DF83B3023F0C0030D939F
:109B3000644A169B1344603393F90030B3F1FF3F3E
:109B40005FD002AB19460D98FFF736FD0346002B98
:109B500057D09DF83B309B098DF833300D98FFF7B7
:109B6000E7FD03461846FFF7F1FD0B900B9B002B1A
:109B700003D19DF83330032B43D19DF83330032BB1
:109B800004D104AB19460D98FFF72EFD0D98FFF791
:109B9000A7FC03468DF82B3006AB19460D98FFF74E
:109BA0000BFD0990099B002B03D09DF82B30022B55
:109BB00006D0099B002B24D19DF82B30032B20D1FC
:109BC0009DF83330032B13D19DF82B30022B01D19C
:109BD000032300E002238DF823309DF8233019463B
:109BE0000D98FFF727FC9DF84B3001338DF84B3073
:109BF0000B9B002B05D09DF833200B9B11460D9835
:109C00009847169B01331693169B032B83D99DF817
:109C10004B30002B4CD001238DF84A306B461A464E
:109C200002210020FFF78EFC0023139314E0139B06
:109C30009B0018AA134453F8602C139B9B0018A98F
:109C40000B4453F8483C9A4203D000238DF84A3025
:109C500005E0139B01331393139B012BE7D99DF868
:109C60004A30002B03D000238DF84B3020E0002336
:109C700013931AE0139B9B0018AA134453F8602C0B
:109C8000139B9B0018A90B4443F8482C139B9B0083
:109C900018AA134453F8502C139B9B0018A90B448B
:109CA00043F8582C139B01331393139B012BE1D9D9
:109CB0009DF84B30002B7FF428AF00BF19B05DF842
:109CC00004FB00BFF419002008B5064B1B68002BED
:109CD00003D10549512001F0F3FA024B1B68984764
:109CE00000BF08BD601A00203CDC020082B00346C1
:109CF0008DF807309DF8073003F01F0205499DF9E4
:109D000007305B09012000FA02F241F8232000BF6E
:109D100002B0704700E100E082B0034600918DF888
:109D200007309DF90730002B0CDA009BDAB20C49A2
:109D30009DF8073003F00F03043B5201D2B20B44ED
:109D40001A7609E0009BDAB206499DF90730520104
:109D5000D2B20B4483F8002300BF02B0704700BFAB
:109D600000ED00E000E100E000B583B003460A46E4
:109D70008DF8073013468DF806309DF80630012B1C
:109D800003D99DF80630032B0BD99DF80630042B20
:109D900003D99DF80630072B03D908496B2001F041
:109DA0008FFA9DF806209DF9073011461846FFF7F7
:109DB000B3FF00BF03B05DF804FB00BF84DC02000A
:109DC00000B583B003468DF807309DF9073018467B
:109DD000FFF78CFF00BF03B05DF804FB82B00346C1
:109DE0008DF807309DF8073003F1804303F5E04319
:109DF00001221A6000BF02B0704782B003468DF89E
:109E000007309DF8073003F1804303F5E04318461F
:109E100002B0704782B00346ADF80630BDF8063098
:109E200003F1804303F5E0431B68002B14BF0123BB
:109E30000023DBB2184602B0704784B00346ADF889
:109E40000630BDF8063003F1804303F5E0430022FD
:109E50001A60BDF8063003F1804303F5E0431B6848
:109E60000393039B00BF04B07047000082B0034619
:109E70008DF807300B468DF8063013468DF8053007
:109E80000A499DF807309DF8052051331B010B440A
:109E900004331A6005499DF807309DF806205133B8
:109EA0001B010B441A6000BF02B0704700700040F5
:109EB00082B00190034A019BC2F8043300BF02B094
:109EC000704700BF0070004082B00190034A019BC0
:109ED000C2F8083300BF02B0704700BF00700040F6
:109EE000024B0122C3F8002500BF704700700040FC
:109EF00082B001900091054A019BC2F82C36034ABA
:109F0000009BC2F8303600BF02B0704700700040BE
:109F100082B003468DF80730034A9DF80730C2F837
:109F2000F03500BF02B070470070004082B00346B9
:109F30008DF80730034A9DF80730C2F8F43500BFAA
:109F400002B0704700700040024BD3F8F435DBB22A
:109F5000184670470070004000B583B0034600917A
:109F60008DF80730009B1B7803F00302009B5B78A1
:109F70001B0103F030031A43009B9B781B0203F480
:109F8000E0631A43009BDB781B0303F480531A43FE
:109F9000009B1B791B0403F4E0231A43009B5B79AD
:109FA0001B0503F4801342EA0301009B9B791B0607
:109FB00003F080720A489DF807300A431B010344EE
:109FC00003F5A3631A60009BD979009B1A7A9DF868
:109FD00007301846FFF74AFF00BF03B05DF804FBE7
:109FE0000070004000B58DB04FF48270FFF712FF93
:109FF0000346002B46D04FF48270FFF71EFF8C4BB8
:10A0000093F82E3083F00103DBB2002B04D1884B90
:10A0100093F82F30002B35D000238DF81830844B67
:10A020005B680793824B1B899BB2ADF82030804B55
:10A03000DB68002B03D17E4B00221A7419E07C4BA5
:10A040001A8B7B4B5A837A4BDB68794A5360784B87
:10A050001A8B774B1A81764B0022DA60744B93F897
:10A060002E3083F00103DBB2002B02D00020FFF77B
:10A07000B5FE6F4B1B6806AA104698476C4B002232
:10A0800083F82F206A4B93F82E30002B62D04FF4C8
:10A090008070FFF7BFFE0346002B5BD04FF480704B
:10A0A000FFF7CBFE624B5A8B614B93F82D309BB27E
:10A0B0009A421CD95E4B5A8B5D4B93F82D309BB264
:10A0C000D31A9AB25A4B5A83594B5A68584B1B8928
:10A0D0009BB21946564B5B8BCB1A5B001344544A18
:10A0E00092F82D2011461846FFF702FF2BE0504B47
:10A0F0005A8B4F4B93F82D309BB29A4214D14C4B54
:10A10000DB68002B10D04A4B012283F82F20484BEC
:10A1100000225A83464BDB68454A92F82D201146AF
:10A120001846FFF7E5FE0EE0414B5A8B404B93F883
:10A130002D309BB29A4206D13D4B012283F82F204D
:10A140003B4B00225A834FF48270FFF776FE0420C7
:10A15000FFF744FE4FF48870FFF75CFE0346002BC8
:10A160000ED04FF48870FFF768FE314B00221A744E
:10A1700002238DF80C302E4B1B6803AA104698471B
:10A180004FF48A70FFF746FE0346002B07D04FF4CA
:10A190008A70FFF752FE264B00221A7444E0244BCB
:10A1A0005B690B933DE00B9BB3FA83F30A934FF08B
:10A1B00000420A9B22FA03F3DB430B9A13400B93F2
:10A1C0000A9B9BB246339BB29B00ADF82630BDF88C
:10A1D00026301846FFF71EFE0346002B21D0BDF89F
:10A1E00026301846FFF729FE01238DF80030BDF810
:10A1F0002630A3F58C73DB08DBB28DF80430BDF894
:10A200002630A3F58C7303F00403002B0CBF01234D
:10A210000023DBB28DF80530054B1B686A461046FB
:10A2200098470B9B002BBED100BF0DB05DF804FB1F
:10A23000681A002000B585B001900091019B002BA9
:10A2400003D13249D62001F03BF8009B002B03D10B
:10A250002E49D72001F034F82D4B93F82C30002BE9
:10A2600003D008230393039B4CE0294A009B13600F
:10A27000019B1B781846FFF74BFE019B5B78184645
:10A28000FFF754FE019BDA78214B83F82E20204BF8
:10A29000012283F82C201E4B00221A741C4B002232
:10A2A00083F82D201A4B00225A61194B002283F8A3
:10A2B0002F206FF00040FFF707FE4FF48270FFF78A
:10A2C000BCFD4FF48070FFF7B8FD4FF48A70FFF7C4
:10A2D000B4FD019B9B7819460720FFF745FD072039
:10A2E000FFF76EFD0220FFF7E3FD094B93F82E30D8
:10A2F000002B02D00120FFF7DBFDFFF7F1FD00236B
:10A300000393039B184605B05DF804FBE4DC0200F0
:10A31000681A002000B585B0034600918DF807301B
:10A32000394B93F82C30002B04D1384940F22310DC
:10A3300000F0C6FF9DF80730072B04D933494FF4CE
:10A34000927000F0BDFFFFF7FFFD0346002B09D020
:10A350002D4B93F82D30002B04D02C494FF49370E3
:10A3600000F0AEFF009BDB79092B03D8009BDB7963
:10A37000002B04D125494FF4947000F0A1FF009BFD
:10A380001B7A092B04D921494FF4957000F098FFEE
:10A390001D4B1B7CDBB2002B03D011230393039BCB
:10A3A0002DE09DF80730184A0C335B0013441B79ED
:10A3B000002B07D1144B93F82D300133DAB2124B36
:10A3C00083F82D209DF80730009AD1790E4A0C337E
:10A3D0005B0013440A461A719DF80730009A117AFF
:10A3E000094A0C335B0013440A465A719DF8073042
:10A3F00000991846FFF7B0FD00230393039B18460E
:10A4000005B05DF804FB00BF681A0020E4DC020020
:10A4100008B5074B93F82E30002B01D0002300E045
:10A4200004231846FFF7E9FC0346184608BD00BFA1
:10A43000681A002000B585B001900B46ADF80230D7
:10A440004C4B93F82C30002B04D14B4940F2BF10F9
:10A4500000F036FFBDF80230464A92F82D2093FBFB
:10A46000F2F102FB01F29B1A002B04D042494FF497
:10A47000E07000F025FF1220FFF726FD3D4B1B7C0E
:10A48000DBB2022B06D11220FFF712FD112303933A
:10A49000039B6BE0374B1B7CDBB2012B35D1354B7B
:10A4A000DB68002B06D00220FFF702FD1123039387
:10A4B000039B5BE02F4A019BD3602E4ABDF802301C
:10A4C00013832C4B93F82E3083F00103DBB2002B67
:10A4D00014D000BF4FF48070FFF79CFC034683F05C
:10A4E0000103DBB2002BF5D14FF48070FFF7A5FC20
:10A4F000BDF8023019460198FFF7FAFC0220FFF779
:10A50000D7FC00230393039B30E00220FFF7D0FC2D
:10A51000184B01221A74174A019B5360154ABDF863
:10A5200002301381134B0022DA60124B93F82E3065
:10A53000002B0BD00F4ABDF8023053830D4B93F81C
:10A540002D3019460198FFF7D3FC0CE0BDF802301E
:10A5500019460198FFF7CCFC4FF48070FFF76DFCB3
:10A560000020FFF73BFC00230393039B184605B034
:10A570005DF804FB681A0020E4DC020082B00346A8
:10A580008DF807309DF8073003F01F0205499DF94B
:10A5900007305B09012000FA02F241F8232000BFD6
:10A5A00002B0704700E100E082B0034600918DF8F0
:10A5B00007309DF90730002B0CDA009BDAB20C490A
:10A5C0009DF8073003F00F03043B5201D2B20B4455
:10A5D0001A7609E0009BDAB206499DF9073052016C
:10A5E000D2B20B4483F8002300BF02B0704700BF13
:10A5F00000ED00E000E100E082B00190019B1B0B48
:10A600005BB2184602B0704700B583B003460A46F5
:10A610008DF8073013468DF806309DF80630012B73
:10A6200003D99DF80630032B0BD99DF80630042B77
:10A6300003D99DF80630072B03D908496B2000F099
:10A640003FFE9DF806209DF9073011461846FFF79A
:10A65000ABFF00BF03B05DF804FB00BF2CDD0200C0
:10A6600000B583B003468DF807309DF907301846D2
:10A67000FFF784FF00BF03B05DF804FB82B00190D8
:10A680000B468DF803309DF80330019A13440122E4
:10A690001A6000BF02B0704784B001900B46ADF85D
:10A6A0000230BDF80230019A134400221A60BDF84E
:10A6B0000230019A13441B680393039B00BF04B04C
:10A6C000704782B001900B46ADF80230BDF8023001
:10A6D000019A13441B68002B14BF01230023DBB233
:10A6E000184602B0704782B001900091019BD3F8E8
:10A6F0000022009B1A43019BC3F8002200BF02B056
:10A70000704782B001900091019BD3F80022009B1A
:10A71000DB431A40019BC3F8002200BF02B0704720
:10A7200082B001900091019B009AC3F8042300BFFE
:10A7300002B0704782B001900091019B009AC3F86B
:10A74000082300BF02B0704782B001900091019BC6
:10A75000D3F80423009B1340002B14BF01230023D4
:10A76000DBB2184602B0704782B001900B468DF8FC
:10A770000330019BD3F8043523F003029DF8033026
:10A7800003F003031A43019BC3F8042500BF02B082
:10A79000704782B001900B468DF80330019BD3F8CF
:10A7A000083523F003029DF8033003F003031A4336
:10A7B000019BC3F8082500BF02B0704782B001902A
:10A7C0000B468DF80330019BD3F8103523F00F02B0
:10A7D0009DF8033003F00F031A43019BC3F81025C3
:10A7E00000BF02B0704784B003900B4601928DF811
:10A7F0000B309DF80B20039B02F5A872019943F8DA
:10A80000221000BF04B0704782B00190019B9B00F2
:10A8100003F5A0739BB2184602B0704782B0019056
:10A820004FF48032019B02FA03F3184602B07047DE
:10A8300010B588B0039002910192039B1B791A46D0
:10A8400013465B0013449B00744A13440693039B16
:10A850001B68734A934203D17249482000F030FDCF
:10A86000029B002B03D16F494A2000F029FD019B78
:10A87000002B03D16B494B2000F022FD069B1B7A75
:10A88000002B03D008230593059BC4E0039B1B68A2
:10A89000634A93420FD1029B9B78012B64D0029BA9
:10A8A0009B78002B60D0029B9B78022B5CD0029B94
:10A8B0009B78032B58D0039B1B685B4A93420FD1B4
:10A8C000029B9B78012B4FD0029B9B78002B4BD097
:10A8D000029B9B78022B47D0029B9B78032B43D093
:10A8E000039B1B68514A93420FD1029B9B78012B1B
:10A8F0003AD0029B9B78002B36D0029B9B78022B90
:10A9000032D0029B9B78032B2ED0039B1B68484AB6
:10A9100093420FD1029B9B78012B25D0029B9B7801
:10A92000002B21D0029B9B78022B1DD0029B9B7891
:10A93000032B19D0039B1B683E4A93420FD1029B05
:10A940009B78012B10D0029B9B78002B0CD0029B94
:10A950009B78022B08D0029B9B78032B04D03149B3
:10A960005F2000F0ADFC00E000BF069B019A1A607A
:10A97000029B5A68069B5A6000238DF81F3010E036
:10A98000039B1C689DF81F301846FFF73DFF0346E8
:10A9900019462046FFF780FE9DF81F3001338DF8E1
:10A9A0001F30039B5B799DF81F209A42E8D3039BDD
:10A9B0001B681846FFF720FE03461A46029BDB7809
:10A9C00019461046FFF720FE039B1B681846FFF749
:10A9D00013FE03461846FFF743FE039B1A68029BCB
:10A9E0005B7819461046FFF7BFFE039B1A68029B6F
:10A9F0009B7819461046FFF7CCFE039B1A68029B12
:10AA00001B7819461046FFF7D9FE069B01221A72E1
:10AA100000230593059B184608B010BD981A002026
:10AA2000008000405CDD02000090004000A000407B
:10AA300000A0014000B0014000B583B00190019B2F
:10AA40001B791946114A0B465B000B449B001344CB
:10AA500008331B78012B03D00D498F2000F030FC08
:10AA6000019B1B6800211846FFF708FE019B1B791C
:10AA70001946064A0B465B000B449B0013440833FF
:10AA800002221A7000BF03B05DF804FB981A002080
:10AA90005CDD020010B586B0039001921A460B46A9
:10AAA0008DF80B3013468DF80A309DF80B301846A0
:10AAB000FFF7B4FE05909DF80A30002B12D0039BDF
:10AAC0001C689DF80B301846FFF79EFE034619469A
:10AAD0002046FFF7E1FD039B1B6805991846FFF729
:10AAE0001FFE05E0039B1B6805991846FFF722FE31
:10AAF000039B1B689DF80B10019A1846FFF773FE25
:10AB000000BF06B010BD00B585B0039001921A4693
:10AB10000B468DF80B301346ADF80830039B1868D0
:10AB20009DF80B304FF480729A409DF80B30012154
:10AB300001FA03F313431946FFF7E3FD039B1B6878
:10AB4000BDF8082011461846FFF7CDFD9DF81830D6
:10AB50009DF80B10019A0398FFF79CFF00BF05B00A
:10AB60005DF804FB00B587B00390029113468DF8A1
:10AB7000073000238DF8173030E09DF81730184665
:10AB8000FFF742FE0346ADF814309DF81730184623
:10AB9000FFF744FE0490BDF8143019460398FFF700
:10ABA00090FD0346002B14D004990398FFF7CCFDC9
:10ABB0000346002B0DD0BDF8143019460398FFF75B
:10ABC0006BFD029B1B68029A5168BDF81420104669
:10ABD00098479DF8173001338DF817309DF81720EE
:10ABE0009DF807309A42C8D300BF00BF07B05DF898
:10ABF00004FB000008B5042202490348FFF7B2FF36
:10AC000000BF08BD981A00200090004008B504223B
:10AC100002490348FFF7A6FF00BF08BDA41A0020A1
:10AC200000A0004082B003468DF807309DF8073041
:10AC3000044A012101FA03F3C2F8043500BF02B04F
:10AC4000704700BF00F0014084B0034602910192BA
:10AC50008DF80F3008499DF80F30A233029A41F861
:10AC60003320054A9DF80F30A233DB001344019ACC
:10AC70005A6000BF04B0704700F0014082B0034644
:10AC80008DF807309DF80730012202FA03F31846C9
:10AC900002B0704700B583B003468DF807309DF8C9
:10ACA00007301846FFF7EAFF0346C3F31003002BF3
:10ACB00014BF01230023DBB2184603B05DF804FB88
:10ACC00082B00190019B5B0C5B04002B0CBF012345
:10ACD0000023DBB2184602B0704700B583B00346CC
:10ACE0008DF807309DF807301846FFF7C7FF034679
:10ACF0001846FFF7E5FF0346184603B05DF804FB6E
:10AD000000B583B003468DF807309DF8073018462C
:10AD1000FFF7B4FF0246064B1B681340002B14BF1D
:10AD200001230023DBB2184603B05DF804FB00BF2B
:10AD3000B01A002000B583B003468DF807309DF8A7
:10AD400007301846FFF79AFF0246044B1B6813436F
:10AD5000024A136000BF03B05DF804FBB01A002084
:10AD600000B587B0019000230593002303930423CB
:10AD70000593274B039300238DF813303EE0002307
:10AD80008DF80B300DF10B031846FCF7FFFE9DF814
:10AD900013301846FFF772FF0246039B1340002B47
:10ADA00015D09DF813301846FFF7AAFF034683F02D
:10ADB0000103DBB2002B0AD09DF813301846FFF7D1
:10ADC000B9FF019B9DF813201A70002305939DF88D
:10ADD0000B301846FCF7F0FE059B002B12D09DF8B7
:10ADE00013301846FFF74AFF0346DB43039A13402C
:10ADF00003939DF8133001338DF81330039B002B20
:10AE0000BDD100E000BF059B184607B05DF804FB0C
:10AE1000FFFF010000B587B00346029101928DF853
:10AE20000F30029B002B02D0019B002B01D10E237F
:10AE300025E0002305939DF80F301846FFF72AFF01
:10AE4000034683F00103DBB2002B02D007230593F6
:10AE500014E09DF80F301846FFF752FF034683F0C9
:10AE60000103DBB2002B02D00823059306E09DF816
:10AE70000F30019A02991846FFF7E6FE059B184627
:10AE800007B05DF804FB00B585B003468DF80730C8
:10AE9000002303939DF807301846FFF71EFF034673
:10AEA00083F00103DBB2002B02D0072303931AE0E7
:10AEB0009DF807301846FFF7EDFE0346002B0DD036
:10AEC0009DF807301846FFF71BFF034683F0010388
:10AED000DBB2002B02D00823039304E09DF8073077
:10AEE0001846FFF79FFE039B184605B05DF804FB6C
:10AEF000054B1B78002B04D1034B01221A70002351
:10AF000000E0852318467047B41A002084B0034639
:10AF10008DF8073000230393039B184604B0704755
:10AF200084B00190009100230393039B184604B062
:10AF3000704767DF704700BF1846000000B591B04A
:10AF40000190009100230F9304AB082200211846C2
:10AF500002F0B3FBFEF760FC0E900E9B082B09D0AD
:10AF60000E9B0D930D9B002B04D06A4A10210D9867
:10AF7000FCF77CFAFFF7BCFF0E900E9B852B09D0E7
:10AF80000E9B0C930C9B002B04D0624A14210C984E
:10AF9000FCF76CFA0DF10F031846FFF7E1FE0E9077
:10AFA0000E9B0B930B9B002B04D05A4A1A210B9833
:10AFB000FCF75CFA0DF10E031846FFF7D1FE0E9078
:10AFC0000E9B0A930A9B002B04D0524A1D210A981B
:10AFD000FCF74CFA504A02AB126811461980023352
:10AFE000120C1A70019B002B0ED1009B002B0BD171
:10AFF00007230E930E9B0993099B002B04D0454A0F
:10B0000024210998FCF732FA019B002B2CD00F9BCE
:10B01000002B13D102AB19460198FEF74FFC0E909E
:10B020000E9B0893089B002B04D03A4A2C210898C9
:10B03000FCF71CFA0198FEF7A9FC0F909DF8103060
:10B0400043F002038DF810309DF8103043F00103F7
:10B050008DF81030019B03F03F03DAB29DF81030F9
:10B0600062F387038DF81030009B002B2CD00F9BD0
:10B07000002B13D102AB19460098FEF71FFC0E906F
:10B080000E9B0793079B002B04D0224A3C21079874
:10B09000FCF7ECF90098FEF779FC0F909DF8113061
:10B0A00043F002038DF811309DF8113043F0010395
:10B0B0008DF81130009B03F03F03DAB29DF8113098
:10B0C00062F387038DF811300F9B03F14043A3F522
:10B0D000C0439B08DBB28DF814309DF80E308DF81C
:10B0E00013309DF80F308DF8123004AB1946012053
:10B0F000FFF71FFF0E900E9B0693069B002B04D0BC
:10B10000044A4D210698FCF7B1F900BF11B05DF873
:10B1100004FB00BFA4DD0200FCDD02003FDF70473E
:10B1200000BF184682B001900B46ADF80230BDF862
:10B130000230019A1344184602B0704782B0019061
:10B14000019BD3F81035DBB2184602B0704782B0CD
:10B150000190019B9B0003F5A0739BB2184602B0BF
:10B1600070470000F0B587B001900B468DF80330B2
:10B170009DF803300593019B18464FF000010246ED
:10B180000B464FF000064FF000075F0147EAD26719
:10B19000560132463B46121A63EB01034FF000069C
:10B1A0004FF000079F0047EA9277960032463B46F1
:10B1B000121841EB03034FF000004FF00001D901DA
:10B1C00041EA5261D00102460B460599C1F12006C1
:10B1D000A1F1200022FA01F403FA06F6344323FA1F
:10B1E00000F0044323FA01F5CDE90245DDE902232D
:10B1F000012B08BF002A04D3044940F2BE2000F00E
:10B200005FF8029B184607B0F0BD00BF00DE0200E9
:10B2100010B582B001900091019B5B791A46009BAA
:10B22000934204D3094940F2711000F049F8019BA0
:10B230001C680098FFF78BFF034619462046FFF76E
:10B2400071FF0346184602B010BD00BF30DE020099
:10B2500000B583B001900091019B1B681846FFF771
:10B260006DFF034619460098FFF77CFF034618461A
:10B2700003B05DF804FB6DDF704700BF184672DF56
:10B28000704700BF184673DF704700BF184677DF6E
:10B29000704700BF1846000000B583B001900091D0
:10B2A000019B002B01D1054B019300990198FEF7FA
:10B2B000C1FF0346184603B05DF804FBB4DF02008B
:10B2C00000B583B003460091ADF80630BDF80630F6
:10B2D000009A19460348FCF7C9F800BF03B05DF8AF
:10B2E00004FB00BFEFBEADDE00B589B00346ADF88C
:10B2F00006300C238DF81F30BDF806301B0A99B2BA
:10B300009DF81F305A1C8DF81F201A46C9B23F4BBA
:10B3100099549DF81F30BDF80620D1B23B4AD15454
:10B320003B4B3A4A9A603A4B0F229A80394B384A43
:10B330005A62394B1B78022B1CD1384B1B78002BDF
:10B340000CD0374B04225A75354B04229A75344B76
:10B350000A221A70314B00221A700BE0304B012286
:10B360005A752F4B01229A752D4B05221A702B4BC3
:10B3700001221A702B4B1B682B4A1946254801F0F5
:10B380003BFD0690069B0593059B002B04D0274AA6
:10B39000FB210598FCF76AF8214A22492448FFF767
:10B3A0006EFF0690069B0493049B002B04D01F4A5B
:10B3B000FE210498FCF75AF81D4B1B789BB208221B
:10B3C00019460120FFF763FF0690069B0393039B3A
:10B3D000002B05D0154A40F201110398FCF746F8FE
:10B3E000134B1B7801211846FFF74DFF0690069B73
:10B3F0000293029B002B05D00C4A4FF482710298F5
:10B40000FCF734F800BF09B05DF804FBF818002021
:10B41000101B0020D41A0020541B0020531B0020B6
:10B420001C1B0020E8180020EC1800206CDE020035
:10B43000E418002000B593B0694B40F652121A8010
:10B4400003238DF84730674B1B681B0EDAB2664B3F
:10B450001A70654B1B78022B06D96449002000F056
:10B46000CFFC614B00221A705E4B1B68190C9DF8D3
:10B4700047305A1C8DF847201A46C9B25C4B995484
:10B48000584B1B68190A9DF847305A1C8DF8472005
:10B490001A46C9B2564B9954524B19689DF8473019
:10B4A0005A1C8DF847201A46C9B2514B99549DF841
:10B4B00047305A1C8DF847201A464E4B99794C4B11
:10B4C00099549DF847305A1C8DF847201A46494B2D
:10B4D0005979474B99549DF847305A1C8DF84720AD
:10B4E0001A46444B1979424B99549DF847305A1CDF
:10B4F0008DF847201A463F4BD9783D4B99549DF81B
:10B5000047305A1C8DF847201A463A4B9978384BE9
:10B5100099549DF84730374A5178354AD154304BC9
:10B52000334A9A602E4B0F229A806B463C220021B0
:10B53000184602F0C2F800238DF8003006238DF87B
:10B540000330274B0993182200212B4802F0B5F84D
:10B55000294AD37D6FF30413D375274B00225A6019
:10B56000254B00221A75244B4FF480429A60224BDF
:10B5700000229A81204B01229A731B4B1B78012BCE
:10B5800009D11D4B04225A751B4B04229A751A4B84
:10B590000A221A700CE0144B1B78002B08D1164BB2
:10B5A00001225A75144B01229A75134B05221A7009
:10B5B0004FF6FF70FFF798FE0220FFF7A7FC1090F0
:10B5C000109B0F930F9B002B05D00C4A40F24B11A0
:10B5D0000F98FBF74BFF00BF13B05DF804FB00BFF3
:10B5E000101B002080100010541B0020C0DE020041
:10B5F000F8180020CC1A00201C1B00206CDE020072
:10B6000000B587B001F042FE0590059B0493049BB2
:10B61000002B05D0164A40F257110498FBF726FF7D
:10B620000023019301AB1946012001F0E7FE0590CC
:10B63000059B0393039B002B05D00D4A40F25D113F
:10B640000398FBF713FF01AB184601F04FFF05907D
:10B65000059B0293029B002B05D0054A40F2611125
:10B660000298FBF703FF00BF07B05DF804FB00BFC3
:10B670006CDE020000B583B000230193019B0093B0
:10B68000009B002B05D0054A4FF4B4710098FBF7DE
:10B69000EDFE00BF03B05DF804FB00BF6CDE0200EE
:10B6A00000B583B000210120FFF73AFC0190019B17
:10B6B0000093009B002B05D0044A40F271110098C2
:10B6C000FBF7D4FE00BF03B05DF804FB6CDE0200A4
:10B6D00000B583B0FCF792F90190019B0093009BA9
:10B6E000002B05D0044A4FF4BC710098FBF7BEFE56
:10B6F00000BF03B05DF804FB6CDE020000B583B050
:10B70000FCF724FF0190019B0093009B002B05D0C8
:10B71000044A40F281110098FBF7A8FE00BF03B075
:10B720005DF804FB6CDE020008B5FCF725FF00BFE6
:10B7300008BD82B003460091ADF8063000BF02B0EC
:10B740007047000000B58FB0FFF7D2FB0C900C9B48
:10B750000B930B9B002B05D0464A4FF4CD710B98F1
:10B76000FBF784FE00238DF80C3000238DF80D309C
:10B7700000238DF80E3006238DF80F30002304933C
:10B7800003238DF80E3009238DF80C3003AB3A4AB1
:10B7900019463A48FFF74CF80C900C9B0A930A9B09
:10B7A000002B05D0334A4FF4D0710A98FBF75EFEA8
:10B7B000334B1B680993099BB3F1FF3F0AD140F259
:10B7C0004D112E48FFF744FD0D902E49002000F04A
:10B7D00017FB16E0099B002B09D108212748FFF72A
:10B7E00037FD0D902849002000F00AFB09E0099B75
:10B7F00040F24D1202FB03F319462048FFF728FDE3
:10B800000D900023009301230D9A00211B48FFF7A0
:10B810007AF91A48FFF710F900211848FFF7F8FCE9
:10B820000890FEF7F5FD07901848FFF799FA0C907D
:10B830000C9B0693069B002B05D00E4A4FF4DF713C
:10B840000698FBF713FE114B1B78079A08991846C8
:10B85000FFF7E0FA0C900C9B0593059B002B05D09D
:10B86000044A40F2C3110598FBF700FE00BF0FB079
:10B870005DF804FB6CDE020033B70200ACDF0200AF
:10B8800084100010DCDE020010DF0200C41A002069
:10B8900000B583B00A4B1B781846FFF7F4FA019005
:10B8A000019B0093009B002B05D0064A40F2C91172
:10B8B0000098FBF7DBFD00BF03B05DF804FB00BFA1
:10B8C000C41A00206CDE020000B589B00190019B13
:10B8D0001B78002B53D100230793019B5B68032146
:10B8E0001846FEF7A7FD0590059B0493049B002BCB
:10B8F00005D0254A40F2D3110498FBF7B7FD234B3E
:10B900001B681A462249002000F0E8FD00238DF84C
:10B910001B3020E0019B5A689DF81B305B001344EC
:10B92000B3F900301A464FF4616303FB02F3002BB6
:10B9300001DA03F2FF339B120393039A15490020A7
:10B9400000F0CCFD079A039B134407939DF81B302E
:10B9500001338DF81B309DF81B30022BDAD90B4BCD
:10B960001B680133094A1360079B0B4AA2FB0323A0
:10B970005B080793079B9BB21846FFF7B5FC00BF17
:10B9800009B05DF804FB00BF6CDE0200C81A00209D
:10B9900040DF020058DF0200ABAAAAAA00B589B0B6
:10B9A000244A6B4607CA03C31A7023490020FFF7D5
:10B9B00073FC0790079B0693069B002B05D01F4A3C
:10B9C00040F2EF110698FBF751FD6B461946002037
:10B9D000FEF7A0FC0790079B0593059B002B05D065
:10B9E000164A4FF4F9710598FBF740FD03211448FE
:10B9F000FEF720FD0790079B0493049B002B05D0C6
:10BA00000E4A40F2F5110498FBF730FD03210D4872
:10BA1000FEF710FD0790079B0393039B002B05D0B7
:10BA2000064A4FF4FC710398FBF720FD00BF09B0F4
:10BA30005DF804FB5CDF0200C9B802006CDE0200A6
:10BA4000B81A0020BE1A002030B587B01648FFF79C
:10BA500012FC0590059B0493049B002B05D0134A10
:10BA60004FF400710498FBF701FD0F4B5B781C4607
:10BA70000D4B9B781D460C4BDB781A460A4B1B7905
:10BA80001946094B5B791846074B9B790393029043
:10BA9000019100922B4622460549002000F01EFD30
:10BAA00000BF07B030BD00BFCC1A00206CDE020022
:10BAB00068DF020008B50120FFF730FBFFF7DAFD71
:10BAC000FFF706FEFFF7ECFDFFF718FEFFF766FF36
:10BAD000FFF738FEFFF794FDFFF7B6FF142116209D
:10BAE000FFF72CFAFFF7A6FC0649002000F088F9C2
:10BAF000FFF7CEFE0449002000F082F9FFF714FEA4
:10BB0000FCE700BF88DF02009CDF020000B583B0C5
:10BB10001F4B0193019B02221A61019B02225A6171
:10BB2000019B1C4A9A61019B1B4ADA61019B4FF4FD
:10BB300000721A62019B00229A62019B00225A62E3
:10BB4000019B0022DA62019B124A9A64019B134A0C
:10BB5000DA64019B10221A65019B00229A65019B01
:10BB600000225A65019B0022DA65019B07330C49CC
:10BB7000184601F0D5FD019B0A49184601F0D0FD99
:10BB8000019B20229A7100BF03B05DF804FB00BF47
:10BB9000581B0020B8DF0200D01B0020D01D002061
:10BBA000C4DF0200C8DF020000B589B00390029133
:10BBB000019200230693039BDB680593039B1B699B
:10BBC0000493049A059B9A4205D9049A059BD31ABB
:10BBD000013B079307E0039B9A680499059BCB1AE6
:10BBE0001344013B0793039B9A68059BD31A079A5A
:10BBF000934228BF13460793079A019B934228BF9D
:10BC000013460793039B5A68059B1344079A0299AE
:10BC1000184601F029FD069A079B13440693029AE1
:10BC2000079B13440293019A079BD31A0193059A29
:10BC3000079B13440593039B9B68059A9A4201D185
:10BC400000230593039B059ADA60019B002BB5D175
:10BC5000069B184609B05DF804FB00B589B0039057
:10BC600002910192039BDB680793039B9A68079BF1
:10BC7000D31A0693069A019B9A420ED9039B5A68DF
:10BC8000079B1344019A0299184601F0EDFC079AAC
:10BC9000019B1A44039BDA601AE0069B0593039B01
:10BCA0005A68079B1344059A0299184601F0DCFC78
:10BCB000019A069BD31A0593039B5868029A069B28
:10BCC0001344059A194601F0CFFC039B059ADA60EC
:10BCD00000BF09B05DF804FB86B00190019B1B69B1
:10BCE0000493019BDB680393049A039B9A4208D850
:10BCF000019B9A68039BD21A049B1344013B059352
:10BD000004E0049A039BD31A013B0593059B184654
:10BD100006B0704700B589B0039002910192029B72
:10BD20000693039B5A1C13465B001344DB00204A16
:10BD300013440593059B5B69022B29D0022B2ED857
:10BD4000002B02D0012B13D029E00598FFF7C4FF88
:10BD50000490049A019B9A4202D20023079321E0A7
:10BD6000019B0793019A06990598FFF776FF19E062
:10BD70000598FFF7B1FF0490019A049B934228BFF6
:10BD800013460793079A06990598FFF766FF09E09F
:10BD9000019A06990598FFF707FF079002E0002334
:10BDA000079300BF079B184609B05DF804FB00BF6E
:10BDB000581B002000B587B00390029101920F4BF1
:10BDC0001B78002B01D1FFF7A1FE00238DF8133063
:10BDD0000DF113031846FBF7D9FE019A0299039857
:10BDE000FFF798FF05909DF813301846FBF7E4FE27
:10BDF000059B184607B05DF804FB00BF581B0020E8
:10BE000000B585B001900091009801F0ABFC039063
:10BE1000039A00990198FFF7CDFF0346184605B035
:10BE20005DF804FB00B585B001900B468DF803303A
:10BE3000019B9B680393039B5A1C019B5B689A427E
:10BE40000FD8019B1A68039B13449DF803201A70B6
:10BE5000039B5A1C019B9A60019BDB685A1C019B47
:10BE6000DA60019B9A68019B5B689A4215D1019B3D
:10BE70001869019B1968019B9B681A46FFF79AFF96
:10BE80000246019B9B689A4204D0019B4FF0FF320F
:10BE9000DA6002E0019B00229A6000BF05B05DF805
:10BEA00004FB000000B58BB0039002910192009357
:10BEB000029B0893012309930123079307E0089A43
:10BEC000019BB2FBF3F30893079B01330793089A96
:10BED000019B9A42F3D2009A079B9A4201D9009B98
:10BEE00007930D9B03F00103002B28D10C9B002B23
:10BEF00025D00D9B03F00203002B06D0009B002BE6
:10BF000003D130238DF81B3002E020238DF81B3045
:10BF10000CE00C9B013B0C939DF81B3019460398D9
:10BF2000FFF780FF039BDB68002B07DB0C9B002BDC
:10BF300005D0079A0C9B9A42EBD300E000BF039B0D
:10BF4000DB68002B55DB009B012B03D9009B013BD9
:10BF5000009309E0029A099BB2FBF3F30593059A5B
:10BF6000019B9A4200D205E0099B019A02FB03F370
:10BF70000993E8E7029A099BB2FBF3F30593059B4B
:10BF8000099A02FB03F3029AD31A02931B4A059BF8
:10BF900013441B7819460398FFF744FF039BDB68A3
:10BFA000002B08DB099A019BB2FBF3F30993099B71
:10BFB000002BDFD100E000BF0D9B03F00103002B3D
:10BFC00017D00C9B002B14D00AE00C9B013B0C9368
:10BFD00020210398FFF726FF039BDB68002B07DB7C
:10BFE0000C9B002B05D0079A0C9B9A42EDD300E0E6
:10BFF00000BF00BF0BB05DF804FB00BFD0DF020044
:10C0000000B589B00590049103920293049B002B24
:10C01000B8BF5B4206930123079307E0039B069A90
:10C0200092FBF3F30693079B01330793039B069A56
:10C030009A42F3DA029A079B9A4201D9029B07932C
:10C040000A9B002B0AD0049B002B04DB0B9B03F004
:10C050000403002B02D00A9B013B0A930B9B03F0C5
:10C060000203002B02D0029B002B1CD00B9B03F081
:10C070000103002B17D10A9B002B14D00AE00A9B66
:10C08000013B0A9320210598FFF7CCFE059BDB6856
:10C09000002B07DB0A9B002B05D0079A0A9B9A42CC
:10C0A000EDD300E000BF059BDB68002B4ADB049B5F
:10C0B000002B07DA049B5B4204932D210598FFF7C0
:10C0C000B1FE08E00B9B03F00403002B03D02B21EF
:10C0D0000598FFF7A7FE059BDB68002B32DB0B9B67
:10C0E00003F00203002B1FD00B9B03F00103002B76
:10C0F0001AD1029B002B17D10A9B002B14D00AE007
:10C100000A9B013B0A9330210598FFF78BFE059BA4
:10C11000DB68002B07DB0A9B002B05D0079A0A9BE4
:10C120009A42EDD300E000BF059BDB68002B09DBE2
:10C1300004990B9B01930A9B0093029B039A059819
:10C14000FFF7B0FE00BF09B05DF804FB00B5A3B077
:10C1500005900491039206AB169340231793002396
:10C160001893059B1A9300231993049B1B788DF851
:10C170008730049B013304939DF88730002B00F037
:10C1800097819DF88730252B40F0868100231E93F0
:10C1900001232093049B1B788DF887309DF887300E
:10C1A000233B0D2B3ED801A252F823F015C202000A
:10C1B00025C2020025C2020025C2020025C20200DB
:10C1C00025C2020025C2020025C2020005C20200EB
:10C1D00025C20200E5C1020025C2020025C20200FC
:10C1E000F5C102001E9B43F001031E93049B013323
:10C1F00004931AE01E9B43F002031E93049B013339
:10C20000049312E01E9B43F004031E93049B01332E
:10C2100004930AE01E9B43F008031E93049B013322
:10C22000049302E00023209300BF209B002BB1D198
:10C2300000231D93049B1B788DF887309DF8873071
:10C240002F2B12D99DF88730392B0ED8049B013340
:10C2500004931D9A13469B0013445B001A469DF8F5
:10C2600087301344303B1D93E4E700231F93049B66
:10C270001B788DF887309DF887302E2B1DD1049BBD
:10C2800001330493049B1B788DF887309DF8873029
:10C290002F2B12D99DF88730392B0ED8049B0133F0
:10C2A00004931F9A13469B0013445B001A469DF8A3
:10C2B00087301344303B1F93E4E7049B1B788DF8D1
:10C2C00087309DF887306C2B03D09DF88730682B22
:10C2D00007D1049B01330493049B1B788DF88730AE
:10C2E000EFE79DF88730252B00F0CB80252BC0F29F
:10C2F000CE80782B00F3CB80582BC0F2C880583BFF
:10C30000202B00F2C48001A252F823F0FDC30200EA
:10C310008FC402008FC402008FC402008FC40200C9
:10C320008FC402008FC402008FC402008FC40200B9
:10C330008FC402008FC4020091C30200B5C3020083
:10C340008FC402008FC402008FC402008FC4020099
:10C350008FC402008FC402008FC402008FC4020089
:10C360008FC402008FC402008FC402005FC40200A9
:10C370008FC402008FC4020021C402008FC40200D7
:10C38000D9C302008FC402008FC40200FDC30200A3
:10C39000039B1B68191D039A11601B682093209B47
:10C3A0008DF86F309DF86F2016AB11461846FFF7D9
:10C3B00039FD6DE0039B1B68191D039A11601B6812
:10C3C000209316A81E9B01931D9B00931F9B0A227E
:10C3D0002099FFF715FE5BE0039B1B68191D039A6C
:10C3E00011601B682093209916A81E9B01931D9B2A
:10C3F00000931F9B0A22FFF755FD49E0039B1B6832
:10C40000191D039A11601B682093209916A81E9B82
:10C4100001931D9B00931F9B1022FFF743FD37E004
:10C42000039B1B68191D039A11601B681C931C9BBE
:10C430001B788DF887301C9B01331C939DF8873047
:10C44000002B0AD09DF8872016AB11461846FFF73F
:10C45000E9FC199B002BEADA1AE000BF18E0039B05
:10C460001B68191D039A11601B682093209916A858
:10C47000002301930823009308231022FFF712FDE5
:10C4800006E016AB25211846FFF7CCFC00E000BF04
:10C49000049B0133049306E09DF8872016AB1146F8
:10C4A0001846FFF7BFFC199B002BBFF65EAE00E0FD
:10C4B00000BF199B002B0CDD189B002B05D0189A90
:10C4C00006AB19460598FFF775FC199B189A13449B
:10C4D0001993199B184623B05DF804FB0EB400B500
:10C4E00084B0019006AB029302AB1A4605990198FD
:10C4F000FFF72CFE0390039B184604B05DF804EB95
:10C5000003B070476DDF704700BF184679DF704792
:10C5100000BF18467DDF704700BF184664DF7047D4
:10C5200000BF184682B003460091ADF80630BDF852
:10C530000630DAB2009B1A70BDF806301B0A9AB2B8
:10C54000009B0133D2B21A700223184602B0704722
:10C5500000B589B0039002911346ADF80630029BF6
:10C560001B8803F10902BDF806309A4201D90C2359
:10C5700053E004AB1846FFF7C5FF0790079B0693EF
:10C58000069B002B01D0069B47E0029B1B881A46A6
:10C59000039B134408221A70029B1B8801339AB232
:10C5A000029B1A80029B1B881A46039B13441B2282
:10C5B0001A70029B1B8801339AB2029B1A80029B5D
:10C5C0001B881A46039B981804AB013306221946B0
:10C5D00001F04AF8029B1B8806339AB2029B1A802C
:10C5E0009DF8103023F00103DBB2002B07D1029B32
:10C5F0001B881A46039B134400221A7006E0029B14
:10C600001B881A46039B134401221A70029B1B8845
:10C6100001339AB2029B1A800023184609B05DF8D4
:10C6200004FB00B589B0039002910192ADF802308D
:10C63000039B1B78012B05D1039B5B78002B01D159
:10C64000072392E0019B1B889A1CBDF802309A4296
:10C650000ED8039B1B78012B0CD1019B1B881A461B
:10C66000039B5B7813449A1CBDF802309A4201D9AF
:10C670000C237AE0019B1B88BDF80220D31A9BB2E1
:10C68000023BADF81C30BDF81C30ADF81230019BF8
:10C690001B880233029A13440DF112021146184608
:10C6A000FFF738FF0690069B0593059B002B01D0F2
:10C6B000059B5AE0039B1B78022B06D0039B5B78FB
:10C6C0009AB2BDF812309A4209D3BDF81230BDF8C3
:10C6D0001C209A4203D309238DF81F3017E008234A
:10C6E0008DF81F30039B1B78012B0CD1039B5B78CB
:10C6F0009BB2BDF81C209A4205D3039B5B789BB28A
:10C70000ADF8123003E0BDF81C30ADF81230BDF8C2
:10C710001230FE2B01D90C2327E0BDF81230DAB21B
:10C72000019B1B881946029B0B440132D2B21A703E
:10C73000019B1B8801339AB2019B1A80019B1B88C5
:10C740001A46029B13449DF81F201A70019B1B88F8
:10C7500001339AB2019B1A80019B1A88BDF81230EE
:10C7600013449AB2019B1A800023184609B05DF861
:10C7700004FB00B589B0039002911346ADF8063072
:10C78000029B1B881A1DBDF806309A4201D90C2362
:10C790003BE00DF116031846FFF7B8FE0790079B24
:10C7A0000693069B002B01D0069B2EE0029B1B8864
:10C7B0001A46039B134403221A70029B1B88013301
:10C7C0009AB2029B1A80029B1B881A46039B134451
:10C7D00019221A70029B1B8801339AB2029B1A809D
:10C7E000BDF81620029B1B881946039B0B44194673
:10C7F0001046FFF797FE03461946029B1A888BB234
:10C8000013449AB2029B1A800023184609B05DF8BF
:10C8100004FB84B0029101921A4603468DF80F3052
:10C820001346ADF80C30019B1B88DA1CBDF80C30A8
:10C830009A4201D90C2328E0019B1B881A46029BCF
:10C84000134402221A70019B1B8801339AB2019B88
:10C850001A80019B1B881A46029B134401221A70FE
:10C86000019B1B8801339AB2019B1A80019B1B8894
:10C870001A46029B13449DF80F201A70019B1B88D7
:10C8800001339AB2019B1A800023184604B0704706
:10C8900084B0029101921A4603468DF80F30134678
:10C8A000ADF80C30019B1B88DA1CBDF80C309A42A5
:10C8B00001D90C2328E0019B1B881A46029B1344D4
:10C8C00002221A70019B1B8801339AB2019B1A80C5
:10C8D000019B1B881A46029B13440A221A70019B73
:10C8E0001B8801339AB2019B1A80019B1B881A4650
:10C8F000029B13449DF80F201A70019B1B88013383
:10C900009AB2019B1A800023184604B0704700B504
:10C910008FB0039001930B468DF80B3013468DF8C2
:10C920000A3000238DF83330109B1B88ADF830306F
:10C9300000230D9371E0039B5A680D9B9B001A44E2
:10C9400005AB106818600DF11B0105AB00221846FD
:10C95000FFF7E4FD0A900A9B0993099B002B01D085
:10C96000099B7CE09DF81B309DF80A209A4251D12A
:10C970009DF83330002B01D0002300E002238DF816
:10C980002330109B1B881A469DF81B301A449DF8D3
:10C9900023301A44BDF844309A4201DD0C235EE096
:10C9A0009DF8333083F00103DBB2002B16D0109BCF
:10C9B0001B8801339AB2109B1A80109B1B881A4661
:10C9C000019B13449DF80B201A70109B1B880133A8
:10C9D0009AB2109B1A8001238DF83330109B1B886C
:10C9E0001A46019B1A440DF11B0105AB1846FFF7CF
:10C9F00095FD0A900A9B0793079B002B01D0079B8C
:10CA00002DE0109B1A889DF81B309BB213449AB2FC
:10CA1000109B1A800D9B01330D93039B1B881A46B4
:10CA20000D9B934287DB9DF83330002B16D0109B73
:10CA30001A88BDF83030D31A9BB2013BADF82E30C6
:10CA4000BDF82E30FF2B01D90C2308E0BDF83030A3
:10CA5000019A1344BDF82E20D2B21A700023184652
:10CA60000FB05DF804FB00B58BB0059003930B4647
:10CA70008DF8133013468DF812309DF81310BDF861
:10CA8000343001930C9B0093039B02220598FFF71F
:10CA90003EFF0990099B0893089B002B01D0089B3F
:10CAA00014E09DF81210BDF8343001930C9B0093F4
:10CAB000039B10220598FFF72AFF0990099B079313
:10CAC000079B002B01D0079B00E0002318460BB00A
:10CAD0005DF804FB82B00190019B1B88052B0AD9ED
