:020000022000DC
:1070000000000420757302005D7302005F730200CC
:1070100061730200637302006573020000000000E8
:107020000000000000000000000000006773020084
:1070300069730200000000006B7302006D730200B0
:107040006F7302006F7302003D8502006F730200D0
:107050006F7302006F730200918302001D8F0200A4
:107060006F730200ED930200FD9302006F73020044
:107070006F7302006F7302006F7302006F73020080
:107080006F730200817902006F7302006F73020058
:107090006F7302006F73020021A902006F73020078
:1070A0006F7302006F7302006F7302006F73020050
:1070B0006F7302006F730200000000000000000008
:1070C0006F7302006F7302006F7302006F73020030
:1070D0006F7302006F7302006F7302006F73020020
:1070E0006F7302006F7302006F73020000000000F4
:1070F000000000006F730200000000006F730200C8
:10710000000000000000000000000000000000007F
:10711000000000000000000000000000000000006F
:10712000000000000000000000000000000000005F
:10713000000000000000000000000000000000004F
:10714000000000000000000000000000000000003F
:10715000000000000000000000000000000000002F
:10716000000000000000000000000000000000001F
:10717000000000000000000000000000000000000F
:1071800000000000000000000000000000000000FF
:1071900000000000000000000000000000000000EF
:1071A00000000000000000000000000000000000DF
:1071B00000000000000000000000000000000000CF
:1071C00000000000000000000000000000000000BF
:1071D00000000000000000000000000000000000AF
:1071E000000000000000000000000000000000009F
:1071F000000000000000000000000000000000008F
:10720000354936480A1A02D0072291438D4634493F
:1072100034480A1A06D00722914381F309880222D2
:1072200082F3148830483149314A00F044F831483B
:107230003149324A00F03FF831483249324A00F0D1
:107240003AF832483249334A00F035F83248334987
:10725000334A00F030F833483349344A00F02BF811
:1072600033483449344A00F026F83448344900227F
:1072700000F02CF833483449002200F027F8334856
:107280003349091A082902DB002202604160314AB1
:1072900090471F481F49884205D00268043003B454
:1072A000904703BCF7E700208646EC46002000210B
:1072B000294A9047FEE7884207D0521A05D0037842
:1072C00001300B700131013AF9D17047884202D088
:1072D00002700130FAE770470000042000E003204C
:1072E000000004200000042054BC0200D818002034
:1072F00038190020D0730200D0730200FAB70200E0
:1073000054BC0200D8180020D81800201CB8020075
:107310001CB802001CB802001CB802001CB8020015
:107320001CB802001CB802001CB8020054BC0200C9
:10733000B4BC020038190020381900203819002088
:1073400054210020542100205821002058210020E1
:10735000584100209D730200B9970200FEE7FEE746
:10736000FEE7FEE7FEE7FEE7FEE7FEE7FEE7FEE7F5
:1073700000F002B8FFF7FCBF0F484FF00701884349
:1073800085460E4880470E48016841F4700101604F
:10739000BFF34F8FBFF36F8FFFF732BF09480A4922
:1073A0000A4A884207D0521A05D0037801300B7080
:1073B0000131013AF9D1704700000420997D0200A3
:1073C00088ED00E01CB80200D8180020D818002072
:1073D000004870474C2100201FB50021039001AAEE
:1073E00044F20100CDE9011100F004F805B05DF8A8
:1073F00004FB000072B6094B1B68DB0700D500BE1A
:10740000BFF34F8F0649074BCA6802F4E06213438B
:10741000CB60BFF34F8F00BFFDE700BFF0ED00E092
:1074200000ED00E00400FA05D0E90223D1E90201F1
:10743000994208BF90422CBF0120002070470000F5
:1074400008B50B4800F097FA0A4B0B49D3E9002323
:107450001218D1E9000143F100038B4208BF8242B8
:1074600003D212F1807243F100031046194608BDA1
:10747000D818002040190020B819002038B5184B42
:107480001B78044613B90025284638BD0028FAD0D9
:10749000037F03F0FF05002BF5D0FFF7D1FFD4E900
:1074A0000223994208BF904214D3236903B923777A
:1074B000D4E90530984721690029E4D0237F03F0FF
:1074C000FF05002BDFD0D4E90223521843F100035B
:1074D000C4E902230348214600F0FEFAD4E700BFC6
:1074E0004819002020B8020013B5114B1149186843
:1074F000019008231048582200F04CFA044698B92D
:107500000E4A0F4801A900F03BF9044660B90C4847
:10751000012100F013FA01230A4A0948194600F034
:1075200075F9094B01221A70204602B010BD00BF48
:107530001CB802004C190020A41900205975020043
:10754000D8180020FFFF7F0048190020014800F0F4
:1075500012BA00BFD81800202DE9F04F85B0804640
:1075600000F0F4F940B15A4AD2E9003113F18073C6
:1075700041F10001C2E900310021404600F0F5F977
:1075800038B1544E336823B13068FFF777FF0023DA
:1075900033600121404600F0E8F920B1FFF750FFC9
:1075A0004D4BC3E900014D484A4F4D4EDFF838912D
:1075B00003A900F002FA002845D1DFF82491454ED6
:1075C000DFF828A1484600F09DFA3368002875D0FE
:1075D0007BB13368D0E90201D3E90223994208BFA5
:1075E00090422DD233681B7F1BB13168484600F0B2
:1075F00073FA484600F080FAD0E902B307460193D7
:10760000FFF71EFF019BBBEB000463EB0105012CA0
:1076100075F1000345DBB4F5350F40D3FFF796FF56
:10762000304A02444FF496030021504600F00EF910
:1076300000283ED1336813B9404600F0DFF83760C8
:1076400005B0BDE8F08F0378012B1DD0022B09D1C6
:107650004FF0000A304600F04FFA002834D080F88E
:107660001CA0F7E73BB941680B7F23B901230B77D7
:10767000304600F031FA03A9184800F0C9F903A90F
:10768000164800F09AF996E741683B68994202D1A2
:1076900000233B60EFE7304600F037FAEBE7BA68CB
:1076A000C0E70021504600F056F93846FFF7E6FEE5
:1076B00001E00D28F9D00023336083E7002BBFD110
:1076C000404600F09FF8BBE7012389F80030D2E77D
:1076D00040190020C0190020B8190020A41900206A
:1076E00020B80200FFFFB40048190020D81800207D
:1076F00070B5EFF3108672B60C4A946801239CB9FA
:1077000093600B4B0B4DD3F8801029401160C3F8E8
:107710008050D3F8841051604FF0FF32C3F88420BA
:10772000047006B962B670BD0370FAE7C419002090
:1077300000E100E0FC06FFBD084B9A6810B55AB1A5
:1077400050B9EFF3108172B6054A1C6814605C688A
:107750005460986001B962B610BD00BFC419002022
:1077600000E100E0435882B03BB10023435043584E
:107770000193019B012002B070471846FBE700000F
:10778000F0B51A4B46791A4C43F8262004EBC60391
:10779000F7001B793BBB03680A88C3F8082590F9FA
:1077A00004508A780379002DADBF05F1604111497D
:1077B00003F00F0C01F561414FEA4212D2B2B4BF9F
:1077C00001F80C2081F800236D0901220A4903F019
:1077D0001F0302FA03F341F82530E31944F8360099
:1077E0001A710020F0BD0820FCE700BFD819002066
:1077F000D019002014ED00E000E100E00368012250
:107800001A607047036801225A60704773B501F12E
:107810005005AD000068ADB24FF480348C400026B6
:10782000C0F80843C0F84843465101F5A8714559CE
:10783000019522F07F42019D40F82120C0F8444389
:107840000BB1C0F8044302B070BD00002DE9F74F42
:107850000D4622F07F4402684FF4803705F1500650
:107860008F408046B60002EB8500C2F84873B6B27E
:10787000C2F80873D2F8041599464FF0000BD0F8FF
:107880004035C0F8401542F806B05B1A9259009294
:1078900023F07F43012B009A4FEA850A0CD1264B37
:1078A0004FF4806043F001039847D8F8003043F864
:1078B00006B09B590193019BD8F80010D1F80465DC
:1078C000C1F84473A31B23F07F43012B1CD11A4B37
:1078D00005F5A875013443F0010341F825404FF444
:1078E00080609847D8F80030D3F804359E4209D11B
:1078F000D8F800300020C3F84473C3F8047303B011
:10790000BDE8F08F0D20FAE78A44C9F1FF13CAF8E9
:107910004045D1F80405221A013A22F07F4203F5CE
:107920007F439342EED3002AE2D10134CAF84045A6
:10793000D1F804359842DAE730B802000368022231
:10794000C3F8442309B1C3F80423704700684FF417
:107950008271FFF707BF4FF4803303FA01F1036828
:10796000C3F84813C3F80813704750318900006802
:1079700089B2FFF7F7BE0368D3F80405704700002B
:10798000024B034A1B681068184700BFD819002033
:10799000D019002010B561B1B2FBF3F403FB14243D
:1079A000A4B244B9C0E9001484608281C381204636
:1079B00010BD0E20FCE70920FAE737B550E8023F7A
:1079C0001FFAA3F5C488A54202BFBFF32F8F002280
:1079D0000DE0C48925448489A54228BF2D1BC3EA34
:1079E000054540E80254002CE8D14FF001028DF823
:1079F00003200193019B9DF803200B6002F0FF031D
:107A000022B14B880068184403B030BD1846FBE72C
:107A10000A884B889A4209D150E8022FC2EA2242D2
:107A200040E80223002BF7D1012070470020704767
:107A300041DF7047064B10B500241C70054B1C60DD
:107A4000BFF35F8F0449054800F030F8204610BDB1
:107A5000E4190020E819002038B80200DC190020E1
:107A600007B500230DF107008DF80730FFF740FE42
:107A7000F1EE103A23F09F03E1EE103ABFF35F8F6F
:107A8000094B4022C3F884219DF80700FFF754FEFC
:107A900002F02CFF20B1FFF7CBFF03B05DF804FB31
:107AA00020BF40BF20BFF8E700E100E00B684A6854
:107AB0004360934208BF0023016008BF43607047E2
:107AC000436843B10268916852680B449342436033
:107AD00004BF00234360704770B5446806460D46F6
:107AE000206818B1B3682946984718B923682B60F5
:107AF000256070BD2468F3E74368186808B1026820
:107B00001A6070474368186870474368186800B97E
:107B10007047884203D102681A600120704703460B
:107B20000068F4E70648074A03780749D35C012256
:107B300013B1043001F07AB90C3000F02FBF00BF50
:107B4000E01800203C1A0020141A00200648074ABA
:107B500003780749D35C012213B1043001F01EB948
:107B60000C3000F0D5BE00BFE01800203C1A002009
:107B7000151A002037B50578012D0BD0022D2ED017
:107B800065B91E491E4800F0E2F8002832D1FFF71F
:107B9000DDFF03E0037A1BB9FFF7C4FF03B030BD7C
:107BA0004368184C1978204600F0BFF880B18DF872
:107BB00000500190144B68461B689847A168E36821
:107BC000A2885B1A9A42E7D2104B01221A70E5E7AD
:107BD000A268E3689A42F1D08DF80000EAE7C36832
:107BE0008DF800500193FFF79DFF074B68461B6817
:107BF0009847D3E703238DF80030F6E7151A0020E5
:107C0000041A0020F0190020EC190020001A0020AE
:107C1000F0B51F46234B89B004461A600D46002973
:107C20003DD08A882048096800F070F8002834D1D7
:107C3000AA89A9681D4800F069F800282DD11C4EBA
:107C40000FCE6D460FC596E80F0085E80F006369FB
:107C50000693237C174A18488DF81C70003B18BF08
:107C600001238DF81430637C002B14BF0E230023F6
:107C70008DF81530E3680293A3680393236801939A
:107C800069466368009300F023FA30B90B4B187013
:107C90002368013301D0FFF745FF09B0F0BD07208D
:107CA000FBE700BFEC190020F0190020041A0020A7
:107CB00044B80200757B0200E0180020001A002082
:107CC00008B5054800F054F820B9BDE8084003485D
:107CD00000F04EB808BD00BFF0190020041A0020C3
:107CE00070B5084D014608482E7800F030F804467B
:107CF00036B100232B70FFF715FF08B1FFF76CFBBF
:107D0000204670BD001A0020F019002049B152B180
:107D1000531E1A4007D1826001608380C260104602
:107D200070470E2070470920704710B58468C268FC
:107D30008388121B934208D3C26813400268D1544F
:107D4000C3680133C360002010BD0420FCE78268D3
:107D5000C3689A420AD08268838813400268D35C61
:107D60000B708368013383600020704705207047E3
:107D7000C368836000207047054B1B68082B01BF58
:107D8000044B1868B0FA80F0400918BF0020704713
:107D9000300100103401001008B54FF0804300227C
:107DA000C3F80C21C3F81021C3F838254FF08052D6
:107DB00003F54043D2F80414C3F82015D2F8081490
:107DC000C3F82415D2F80C14C3F82815D2F81014EF
:107DD000C3F82C15D2F81414C3F83015D2F81814BF
:107DE000C3F83415D2F81C14C3F84015D2F8201487
:107DF000C3F84415D2F82414C3F84815D2F828144F
:107E0000C3F84C15D2F82C14C3F85015D2F830141E
:107E1000C3F85415D2F83414C3F86015D2F83814E6
:107E2000C3F86415D2F83C14C3F86815D2F84014AE
:107E3000C3F86C15D2F84424C3F87025FFF79CFFF3
:107E400010B1384B384A1A60FFF796FF18B1374B1C
:107E5000FB22C3F81825FFF78FFF48B13449354B93
:107E60000A681B6822F00F0203F00F0313430B6034
:107E7000FFF782FF18B1304B4FF400721A604FF0D9
:107E80008043D3F80024D20744BF6FF00102C3F847
:107E900000242A4AD2F8883043F47003C2F88830AC
:107EA000BFF34F8FBFF36F8F4FF01023D3F8002233
:107EB000002A03DBD3F80432002B2FDA204B0122F7
:107EC000C3F80425D3F80024002AFBD04FF0102279
:107ED0001221C2F80012D3F80024002AFBD04FF080
:107EE00010231222C3F80422154B1A46D3F80014AB
:107EF0000029FBD00021C3F80415D2F80034002B70
:107F0000FBD0BFF34F8F0D490E4BCA6802F4E062FD
:107F10001343CB60BFF34F8F00BFFDE70A4B0B4A03
:107F20001A6008BD8C5600404881030000F00040F4
:107F3000E40E0040580200104096024000ED00E0C0
:107F400000E001400400FA05F41800200090D0037E
:107F500038B5074C051E04F1080318BF1C462368FA
:107F60002BB11A6822605B6828469847F7E738BD4E
:107F7000201A002020B9054B01225A70FFF7E8BFF4
:107F8000012802D1014A9070F8E77047181A0020C2
:107F900020B9034B01225A70FFF7DABF704700BFC8
:107FA000181A002038B50B4C237883B90A4863604F
:107FB000A3602361E36000F0C9F8054602F096FC77
:107FC00008B900F0CFF801232370284638BD852575
:107FD000FBE700BF181A0020757F020037B50B4C75
:107FE00000230DF107008DF80730FFF781FBE368F0
:107FF000013BE360E56815B900F0CAF8A5709DF88B
:108000000700FFF799FB03B030BD00BF181A00202E
:10801000012813B508D003281CD018B9104B012231
:10802000C3F8802002B010BD0E4C00230DF10700F4
:108030008DF80730FFF75CFB23780BB9FFF7B2FF31
:10804000E3689DF807000133E3600123A370FFF7A5
:1080500073FBE7E700F086F8FFF7C0FFE2E700BF39
:1080600000E100E0181A00201FB503788DF80030F9
:108070004368019383688DF80830C368054A039309
:10808000054B684653F8213052F82110984705B047
:108090005DF804FB2C1A0020341A00201FB5037869
:1080A0008DF800304368019383688DF80830C36809
:1080B000054A0393054B684653F8213052F82110C6
:1080C000984705B05DF804FB2C1A0020341A0020F4
:1080D000F0B5194B90F800C0DFF86CE043F82C20A5
:1080E000164B16460A6943F82C204B7F0EF80C30CD
:1080F0000C4607460FCC89B06D460FC594E80F00BB
:1081000085E80F001EF80C30CDF810C04BB1002EE2
:108110000B4A694608BF3246381D00F05BFD09B0C6
:10812000F0BD002E074A694608BF324607F10C0031
:1081300000F018FBF3E700BF341A00202C1A0020CF
:10814000698002009D8002003C1A0020044A1379D5
:1081500023B901211060918018467047852070472F
:10816000401A0020084B1A68D2075FBFC02283F86C
:10817000002301221A604FF080420123C2F8183513
:10818000024A1370704700BF00E100E0481A002067
:10819000044B01221A604FF08042D2F81834DB03FE
:1081A000FBD470470C00004000F1804000F5C04057
:1081B000002382B0036003680193019B02B0704703
:1081C00003681F2B83BF03F01F03036001484FF0B8
:1081D000A04070470003005007B5019001A8FFF7C9
:1081E000EFFF019B00EB8300D0F8003723F440330E
:1081F000C0F80037D0F8003743EA0141C0F8001753
:1082000003B05DF804FB0000054B4FF0FF32072878
:1082100043F8202084BFC01880F85820704700BF62
:108220004C1A002010B5174C94F86A3043BB04F187
:1082300030033021FF22013911F0FF0103F8012B37
:10824000F9D1C8B2FFF7E0FF01310C29F9D10622BC
:1082500000210D4803F04CFA0C4BC02283F8062392
:1082600040221A604FF4BE70FFF79EFF084B4FF09C
:108270000042C3F80423012384F86A30002010BDB3
:108280000820FCE74C1A0020B01A002000E100E0B2
:108290000060004037B5354B1A18044692F930009B
:1082A000013061D18878002852D01846002250F859
:1082B000045B013546D1181980F83020002043F8BE
:1082C0002200920002F1804202F5C0420B78D2F8FF
:1082D0001055487825F499151B04000525F4F85528
:1082E00000F4801003F44033C2F810550343200219
:1082F000D2F8105500F47C5003432B43C2F81035DC
:108300004A780194012A01A826D1FFF759FF019B61
:108310009A40C0F8082501A80194FFF751FF019B7E
:10832000134903F5E073032240F8232024FA02F2F4
:10833000012304F0070003FA00F08B5C1843885413
:10834000002003E00132082AB1D1042003B030BD7F
:10835000FE2382F83030D3E7FFF732FF019A012382
:108360009340C0F80C35D6E70820EFE74C1A002000
:10837000B01A0020054B184490F930008000C0B2BC
:1083800000F1804000F5C040704700BF4C1A00204B
:108390002DE9F04F002489B0CDE90244624D4FF43D
:1083A0008072012102F1804303F5C04390B21B6843
:1083B000012B06D1D5F804330B4202D0FFF7F4FEAF
:1083C0000C430432B2F5907F4FEA4101EAD1574B9A
:1083D0001B68012B0ED14FF4BE70FFF7E5FE4FF086
:1083E000A04344F00044D3F810350293504BD3F827
:1083F0001035039314F0FF0F1AD04E4F01260025BD
:10840000264210D0AB0003F1804303F5C043D3F8FC
:108410001005D3F8101557F8253023B1C1F30141E9
:10842000C0F3052098470135082D4FEA4606E7D1ED
:10843000002C75DA04AF002304937B604FF0FF3308
:10844000CDE90633DFF8EC90DFF8EC8000252E460E
:1084500018F9012B531C4AD0C2F3C2000123D4B235
:1084600002F03F0B02F0070203FA02F208AB191800
:1084700011F8083C13423AD009EB0B03A40993F915
:10848000303059F823A0BAF1000F08D1032C2ED1B7
:1084900017F800C04CEA020C07F800C001E0032CFA
:1084A000F6D001A8CDF804B0FFF78AFE019B11F8C1
:1084B000181C03F5E07C114250F82C00C0F3014079
:1084C00005D0022813D1032C0BD1214604E0032848
:1084D0000DD1032C05D102215846FFF77DFE013551
:1084E000EDB2BAF1000F02D021465846D04701360E
:1084F000042EADD1A5B14FF0A0430299D3F81025B9
:1085000003F540739142D3F8103502D10399994293
:1085100006D002920393049A059B0692079393E771
:1085200009B0BDE8F08F00BF006000407C610040F2
:10853000000300504C1A0020AC1A0020014B1B68AD
:10854000184700BFB81A00200E4B984237B50C46AA
:1085500002D0002003B030BD00230DF107008DF8DC
:108560000730FFF7C5F8084B1D7915B901221C60CB
:108570001A719DF80700FFF7DFF8002DE9D01120F0
:10858000E8E700BF00200040B81A00200023435055
:1085900082B043580193019B02B070470A4610B560
:1085A0004FF48E71FFF7F2FF136A9168C95C136A8A
:1085B00001331362C0F81C1510BD024608B50068EF
:1085C0004FF49271FFF7E2FF4FF484711068FFF7E8
:1085D000DDFF136801221A6008BD8B690A4610B5D9
:1085E0004FF4847123B9FFF7D1FFD0F8183510BDCF
:1085F000FFF7CCFF536AD168D0F81805C854536A06
:1086000001335362F3E700001FB501238DF80030FA
:10861000044BCDE90110D3E900126846904705B03C
:108620005DF804FBC01A002030B54C48D0F8043384
:1086300013F4007F85B005464DD0D0F82431002BCF
:1086400049D04FF49271FFF7A1FF4FF40173C0F8C6
:108650000833434B93F829200AB9012242603F496D
:1086600002228DF80020D1F88024C1F880240392E2
:108670009A690292DA6801920022C3E906226846EA
:10868000D3E9001290473548D0F81C315BB134492A
:108690004A690B6A9A420A464AD991F82830002B57
:1086A00046D1FFF77BFF2D48D0F844318BB14FF412
:1086B000A271FFF76BFF2A4B93F829200AB1012220
:1086C00002609A692AB10022586AD9689A61FFF754
:1086D0009BFF05B030BDD5F804335B07D3D5D5F883
:1086E0000831002BCFD01E4C1C482146FFF775FFE8
:1086F000636AA2699A422346C5D1E269E1684AB138
:108700002369E3600023606AA261E3616362FFF7AB
:108710007BFFB8E794F829200AB901226A600F4A62
:108720004FF40170C2F808030022586A9A61EEE71C
:108730000A484FF48E71FFF729FF5369002BB2D01E
:1087400051690291002391688DF8003001915361C5
:108750006846D2E900139847A5E700BF0020004013
:10876000C01A00202DE9F843634B057991462C226D
:1087700002FB0532064692F82A200C469846002A4B
:1087800040F0B6805D490068FFF7DEFE074600282E
:1087900040F0B08021684A1C10D01F2987BF584A7A
:1087A00001F01F030B464FF0A0420120984003F553
:1087B000E073C2F80805032042F823006068431CF8
:1087C0000DD01F288BBF00F01F0303464C4A4FF00B
:1087D000A04203F5E0734FF0000C42F823C0336869
:1087E000A269C3F8242594F814C0627DBCF1010F7E
:1087F0004CEA0202C3F86C25C3F81405C3F80C1543
:108800002BD1A168481C0DD01F298BBF01F01F027E
:108810000A463B484FF0A04002F5E0724FF0000CD2
:1088200040F822C0E068421C13D01F2887BF344A9A
:1088300000F01F0C84464FF0A0424FF0010E0EFADC
:108840000CFE0CF5E07CC2F808E54FF0030E42F890
:108850002CE0C3F80805C3F810152C236B4308EB74
:108860000302C2F80490226948F80320B9F1000F0E
:108870002BD03068247F4FF48E71FFF787FE30686D
:108880004FF4A271FFF782FE32681E4BC2F8043328
:10889000110B42F30732002AA8BF02F160404FEAF1
:1088A0004413BABF184801F00F0400F56140DBB271
:1088B000B4BF035580F8003301F01F01012303FA10
:1088C00001F15209114B43F8221033680422C3F816
:1088D00000252C2303FB05830022C3E9062283F82D
:1088E00029205A61012283F82A203846BDE8F883FE
:1088F0000827FAE71127F8E7C01A002029860200A6
:10890000000300508000020014ED00E000E100E0F0
:108910002DE9F047204F90F804904FF02C0808FB09
:10892000097405466669002E34D162610068A16051
:1089300026624FF48E7184F82860FFF727FE2868BE
:10894000012383602146FFF729FE6368A0468BB9A7
:108950002868D4F814A0236A9A4511D82A68D2F856
:108960001C31002BFBD00123D3602C2303FB0973A4
:1089700000225A613046BDE8F08794F828303BB9B0
:10898000D0F81C31002BF8D04146FFF707FEE2E794
:108990000F26EAE71126EDE7C01A00202DE9F8437B
:1089A000394F05792C2303FB057306465C6824B117
:1089B00003684FF40170C3F808032C2303FB05730D
:1089C000986950B1D86900283ED024B133684FF47B
:1089D0000172C3F80423112433E09A61D96058620C
:1089E000D8612C2303FB057393F829301BB910B908
:1089F0003046FFF7E2FD4FF02C0909FB057830689F
:108A0000D8F80430002B34D14FF4A271C146FFF7DF
:108A1000BDFD3068D0F82431D0F80821D0F84441A9
:108A2000B2B90CB9002BF4D02C2202FB0575002240
:108A3000AA6123BB2CBB95F8291033680122B1B180
:108A40001A602046BDE8F8831961DA610120C8E7A1
:108A5000002BE9D1002CE7D14946FFF7BEFDD8F83D
:108A60002430D8F818209A42D3D82346DCE75A603D
:108A7000E7E74FF40173C0F804330024E1E703246F
:108A8000DFE70F24DDE700BFC01A002000234350BA
:108A900082B043580193019B02B070471FB5012378
:108AA0008DF80030044BCDE90110D3E9001268467F
:108AB000904705B05DF804FBEC1A00207FB5434AEF
:108AC000D2F82461002E60D010464FF49271FFF767
:108AD000DDFF02238DF80030D2F88034C2F88034F4
:108AE0000393D2F83C350293394BDA6801920022A5
:108AF000C3E906226846D3E9001290473348D0F80C
:108B0000443173B14FF4A271FFF7C0FF304B9A6943
:108B10003AB10022C3E90622D968D0F83C05FFF734
:108B2000BDFF2A48D0F82031ABB14FF49071FFF768
:108B3000ADFF0123C360264B5A6962B1D0F84C15D2
:108B40000291002299688DF8002001915A616846CF
:108B5000D3E9001290471D48D0F858319BB14FF42B
:108B6000AC71FFF793FF1A4B5A6962B1D0F84C15FC
:108B70000291002299688DF8002001915A6168469F
:108B8000D3E90012904704B070BDD2F81031002B29
:108B9000B4D04FF488711046FFF778FF0C4BD2F831
:108BA0003C0599698842A9D1DC69D96864B1D2F8D9
:108BB000005225F02005C2F800521A699C61DA6063
:108BC000DE61FFF76BFF99E79C61FAE70020004048
:108BD000EC1A00202DE9F8436A4B067991462422CD
:108BE00002FB0632044692F820200D469846002AE1
:108BF00040F0C38064490068FFF7A6FC07460028E0
:108C000040F0BD802868421C10D01F2887BF5F4AF3
:108C100000F01F0303464FF0A0420121994003F5E5
:108C2000E073C2F80815032142F8231069684B1C51
:108C30000DD01F298BBF01F01F030B46534A4FF085
:108C4000A04203F5E0734FF0000C42F823C0236804
:108C5000AA69C3F8242595F814C06A7DBCF1010FF8
:108C60004CEA0202C3F86C25C3F80C05C3F81415CE
:108C70002BD1A968481C0DD01F298BBF01F01F0202
:108C80000A4642484FF0A04002F5E0724FF0000C57
:108C900040F822C0E868421C13D01F2887BF3B4A17
:108CA00000F01F0C84464FF0A0424FF0010E0EFA68
:108CB0000CFE0CF5E07CC2F808E54FF0030E42F81C
:108CC0002CE0C3F80805C3F810152423734308EB00
:108CD0000302C2F804902A6948F80320B9F1000F92
:108CE0003AD020682A7F4FF48871FFF7CFFE2068C2
:108CF0004FF49071FFF7CAFE20684FF49271FFF7AE
:108D0000C5FE20684FF4A271FFF7C0FE20684FF443
:108D1000AC71FFF7BBFE23681D49C3F80413190BA0
:108D200043F30733002BAEBF03F1604001F00F05A2
:108D300018484FEA4212A8BF00F56140D2B2B4BF52
:108D4000425580F8002301F01F01012202FA01F1CF
:108D50005B09114A42F8231023680822C3F8002552
:108D6000242303FB06830022C3E906225A61012261
:108D700083F820203846BDE8F8830827FAE7112752
:108D8000F8E700BFEC1A0020BD8A02000003005083
:108D90001003420014ED00E000E100E001F0604348
:108DA000B3F1005F2DE9F041064638D11E4B07793B
:108DB000242505FB073598466C69002C31D16A6182
:108DC0000068A9604FF49071FFF760FE4FF4AC713A
:108DD0003068FFF75BFE33686A69A968C3F8441519
:108DE000C3F8482501229A606A68AAB9D3F82021FD
:108DF000D3F858411AB9002CF8D00F2407E0002C02
:108E0000FBD10122DA60D3F85821002AFBD02423B9
:108E100003FB078700237B612046BDE8F081102417
:108E2000FAE71124F8E700BFEC1A0020F8B501F0CA
:108E30006043B3F1005F04460F465ED10379304DC5
:108E4000242101FB0351496821B100684FF40476E5
:108E5000C0F80863242000FB03539E6956B1D8690B
:108E6000002839D021B123684FF40472C3F80423D9
:108E7000112030E09A61DF60DE6120684FF4887174
:108E8000FFF704FE20684FF4A271FFF7FFFD23688F
:108E9000C3F83475C3F8382516BB01221A6021794E
:108EA000242202FB015252680ABBD3F81041D3F8C6
:108EB0004421D3F82401144302D10028F5D02246DE
:108EC000242303FB01550023984218BF03209A4234
:108ED000AB6118BF0F20F8BD1F61DA610126CCE736
:108EE000D3F8002242F02002C3F80022D7E74FF463
:108EF0000472C3F804230020EDE71020EBE700BF65
:108F0000EC1A002000F1804000F5E040002382B020
:108F1000036003680193019B02B07047F0B5504BAA
:108F2000504C1B6885B0002B3DD04FF4827094F8F4
:108F30002E20FFF7E7FF2AB394F82F3013BB4A4BDC
:108F40001B68002B33D04FF48070FFF7DBFF638B7F
:108F500094F82D108B424FD922895B1A9BB292B2A2
:108F60006383D31A626802EB4303404AC2F82C368B
:108F7000C2F830164FF48270FFF7C4FF3C4B012259
:108F80001A6014E0636802932389ADF80C30E3683B
:108F900000218DF8041023BB2374236801A898478F
:108FA000002384F82F3094F82E30002BC7D1314B9A
:108FB0001B685BB14FF48870FFF7A4FF0023237494
:108FC00002238DF8043001A8236898472A4B1B68B8
:108FD000EBB14FF48A70FFF795FF0023237405B0BF
:108FE000F0BD208B608363602081E160002AD4D1D2
:108FF0001E4B01221A60D0E7BCD1E368012284F83D
:109000002F2013B100226283AFE76383B2E7666962
:109010004FF000470125002EE1D0B6FA86F227FA7C
:1090200002F34632920026EA030602F1804303F57A
:10903000E0431B68002BEED01046FFF763FFA2F55C
:109040008C72D30882F00402C2F380028DF80830DB
:109050008DF8045023688DF8092001A89847DAE7B5
:1090600004710040101B002000710040007000409F
:1090700004700040107100401471004038B51E4B60
:10908000044693F82C00A8BB1C4A19602178C2F84A
:10909000F0156178C2F8F415E5781874012183F8A9
:1090A0002C1083F82D00586183F82F0083F82E5080
:1090B0006FF00043C2F808334FF48270FFF722FFCD
:1090C0004FF48070FFF71EFF4FF48A70FFF71AFF0E
:1090D000A3780B485B01DBB280F807338023036081
:1090E0000223C2F804330DB1C2F80413C2F800150C
:1090F000002038BD0820FCE7101B00200070004055
:1091000000E100E030B5224B1A7C002A3ED100F18C
:109110000C0403EB4402127922B993F82D2001329A
:1091200083F82D2003EB4403CA790C7A8D781A71E9
:109130005C714B782D021B0105F4E06503F03003F0
:109140002B430D7805F003052B43CD782D0305F453
:1091500080552B430D792D0405F4E0252B434D79E3
:1091600089792D0505F48015090601F080712B43DE
:109170000B43010101F1804101F5E0410020C1F8FC
:109180001835C1F81445C1F8102530BD1120FCE791
:10919000101B0020054B93F82E30002B14BF00202D
:1091A000042000F1804000F5E0407047101B0020D3
:1091B00070B5264A264B05461220C2F808031C7CCF
:1091C000022C03D1C2F80403112070BD187C0128C1
:1091D0001DD1D86818B10223C2F80433F4E7DD606A
:1091E000198393F82E3063B91A4A1368002BFCD008
:1091F0004FF48070FFF786FE144BC3F82C56C3F86B
:109200003016124B0222C3F804230020DDE70220AF
:1092100093F82E40C2F80403012600201E745D60FE
:109220001981D8603CB1598393F82D30C2F82C567F
:10923000C2F83036C9E7C2F82C564FF48070C2F835
:109240003016FFF75FFE20461660BEE70070004054
:10925000101B0020007100402DE9F7430024064652
:109260000F4600F5A0754FF48038A1462B688BB1EE
:10927000D6F8043308FA04F21A420BD0C5F800906D
:109280002B680193019BA30003F5A07398B2D7E963
:10929000003198470134042C05F10405E6D103B0F0
:1092A000BDE8F083F7B506792F4D0C237343EF1813
:1092B0003C7A002C56D1EA504B687B6047790368B2
:1092C0002246D0B2874244D843F30734C878002CF2
:1092D000A8BF04F16047C3F30732BABF234F02F0BF
:1092E0000F0C07F561474FEA4010C0B2B4BF07F852
:1092F0000C0087F80003640901201D4F02F01F02D3
:1093000000FA02F247F82420D3F804454A7824F002
:10931000030402F003022243C3F80425D3F80845EE
:109320008A7824F0030402F003022243C3F80825DC
:109330000A78D3F8104502F00F0224F00F010A4317
:10934000C3F810250C2303FB06552872002003B038
:10935000F0BD900000F5A07001321C50185801902B
:109360000198AEE70820F2E7401B002014ED00E072
:1093700000E100E0036801221A600379034A0C212E
:1093800001FB032302221A72704700BF401B00201A
:1093900037B54FF4803400688C407BB18B0003F507
:1093A000A0730025C550C3580193019BC0F8044326
:1093B00001F5A87140F8212003B030BDC0F8084382
:1093C000F6E770B4046840F20116D4F800528E40FB
:1093D00025EA0605C4F80052D4F800522B43C4F81D
:1093E00000329DF80C3070BCFFF7D2BF0149024833
:1093F000FFF732BF401B00200090004001490248A7
:10940000FFF72ABF4C1B002000A000402DE9F74FBA
:109410004FF00009154D164F06464FF0040AC84696
:109420005FFA89FB01240DF1070004FA0BF48DF8B3
:109430000780FEF75DF92C4208D03B6814EA03026E
:1094400001BF23433B6086F800B092469DF80700B9
:10945000FEF772F9BAF1000F03D0A54309F1010933
:10946000DED1504603B0BDE8F08F00BFFFFF010022
:10947000581B002010B5A1B19AB101238340C3F35A
:10948000100484B10A4C246823420ED0C00000F1BD
:10949000804000F5F830C0F81015C0F81425002001
:1094A00010BD0E20FCE70720FAE70820F8E700BF10
:1094B000581B0020012202FA00F3580C400440B966
:1094C0001BB1064A1268134205D0054AC2F804359A
:1094D0007047072070470820704700BF581B0020C6
:1094E00000F00140034B187810B901221A70704740
:1094F000852070475C1B00200020704700207047CB
:1095000067DF704730B5082285B005460C460DEB85
:109510000200002102F0ECF8FEF784FE30F00803B0
:1095200001D0FDF759FFFFF7DDFF852802D008B114
:10953000FDF752FF0DF10200FFF768FF08B1FDF7DC
:109540004BFF0DF10300FFF761FF08B1FDF744FF8A
:10955000224B1A889B78ADF804208DF8063025BB85
:1095600054B101A92046FEF795FE08B1FDF734FF7E
:109570002046FEF7FFFE2BE00720FDF72DFF2046DB
:109580009DF803308DF80B30C0F387009DF8023052
:109590008DF80C0002A901208DF80A30FFF7B0FF0A
:1095A00008B1FDF719FF05B030BD01A92846FEF747
:1095B00071FE08B1FDF710FF2846AD0045F0030528
:1095C000FEF7D8FE8DF80850002CD9D00028C8D05E
:1095D000A40044F003048DF80940D1E764B8020008
:1095E0006DDF704772DF704773DF704777DF70475A
:1095F0003FDF704770470378022B02D14068FDF7C8
:10960000EBBE012BFAD07047304B1A68304B10B5C7
:10961000110E1973110C5973DA73110A2D4A9973CB
:1096200012781A742C4A587612681A75110E5974E9
:10963000110C9974110A294AD97412785A75284A5A
:109640001288DA75110A020A1A76264A9975936009
:109650001B239380244B5A62244B1B78022B0AD184
:10966000234A244B117849B30421597599750A216D
:10967000197000231370204A1B4852F8041B00F095
:10968000E3FE08B1FDF7A8FE1A4A1B491B48FFF785
:10969000A9FF08B1FDF7A0FE184C0822217801208F
:1096A000FFF7A4FF08B1FDF797FE20780121FFF72F
:1096B0009BFF50B1BDE81040FDF78EBE0121052093
:1096C0005975997518701170D5E710BD641C00208C
:1096D00009190020621C00206C1C0020681C00205E
:1096E000A01B0020B81C0020641B0020C41C00200C
:1096F000C51E0020741C0020F81800200819002046
:109700002DE9F0470378804683BB40680321FFF7CB
:109710004FFD08B1FDF760FE154E16493268DFF8BF
:109720005890002000F008FE00273D464FF4616A83
:10973000D8F80430DA5B12FB0AF2002AB8BF02F252
:10974000FF329412224649460020023700F0F4FD11
:10975000062F2544ECD13368013333600320B5FB79
:10976000F0F0BDE8F04780B2FFF74EBFBDE8F087EC
:10977000701C002067B802007AB8020008B5082003
:10978000FFF7BAFE08B1FDF727FE4FF0A043D3F86C
:1097900004359B0304D5064A49231370054A137008
:1097A0004FF0A0434FF40032C3F8082508BD00BFB6
:1097B000681C0020621C00202DE9F04F2DED048B69
:1097C000B2489BB001F0E9FFC6B20120FFF710FFDD
:1097D000FDF78AFE08B1FDF7FFFD00210120FFF72C
:1097E0008DFE08B1FDF7F8FDFEF724F908B1FDF78D
:1097F000F3FDA74A10685168127A0BAB03C3A54961
:10980000A5481A70FFF73AFC08B1FDF7E5FD0BA972
:109810000020FFF777FC08B1FDF7DEFD9F4803212C
:10982000FFF7C6FC08B1FDF7D7FD9D480321FFF700
:10983000BFFC08B1FDF7D0FDFFF754FE08B1FDF7FE
:10984000CBFD984F984A994800230BA9CDE90B739B
:10985000FFF728FD08B1FDF7BFFD954B1B68591CAC
:1098600004D19449002000F0A5FB0123924AD2F8CC
:10987000102540F24D10D2B258434FF47A53A0FB5A
:109880000301C2F1200301FA03F3A2F1200420FA3C
:1098900002F221FA04F41A43002122430091012329
:1098A0008248FFF78EFD8148FFF764FDFFF772FCE9
:1098B00004468248FFF7AAFD08B1FDF78DFD7F4DF4
:1098C0007F4928782246FFF7D5FD08B1FDF784FDD2
:1098D00000F0CEFF08B1FDF77FFD00230BA90120AA
:1098E0000B9301F04DF808B1FDF776FD0BA801F0E0
:1098F0009FF808B1FDF770FD7248FFF771FE08B1DF
:10990000FDF76AFD6F4C7049A37903936379029365
:1099100023790193E3780093A3786278002000F024
:109920000BFD0023694A6A480B970BA90C93FFF7BC
:10993000B9FC08B1FDF750FD664B1B685A1C04D1F9
:109940006549002000F036FB0A23644AD2F810254E
:109950004FF47A70D2B258434FF47A53A0FB03010C
:10996000C2F1200301FA03F3A2F1200720FA02F268
:1099700021FA07F71A4301233A4300930021544880
:10998000574FFFF71EFD5248FFF7F4FC1421162035
:10999000FFF7B8FD534AF97859231380524B022937
:1099A00019709046994606D95049002000F002FBF4
:1099B000002389F800304E4B7A88DA703A685A7181
:1099C000110AA2799A716279DA7122791A72E278AF
:1099D0005A72A2789A726278464C19710027DA722C
:1099E000C8F808303C221B2300210BA8A8F804303B
:1099F00001F07EFE06231822394620468DF82F30CE
:109A00008DF82C70CDF8508001F072FEE37D99F84E
:109A10000020676067F30413E3754FF48043A3608D
:109A200001239A422775A781A37340F091800423F4
:109A30006375A3750A2323704FF6FF70FFF7E4FDEB
:109A40000220FFF759FD08B1FDF7C6FC2A492B4F4C
:109A500000204FF0A04800F0ADFA0323C8F84437C7
:109A60000FCF0BAC0FC497E80300254B254A079393
:109A70004FF4807384E80300CDE909230893224A58
:109A8000072307A90BA8FEF7C3F83FE07EB8020042
:109A900074B902000197020098B902008C1C0020E2
:109AA000921C002009000306F5950200A4B90200EB
:109AB0008410001086B8020000900040B71C0020FF
:109AC000409100405D1B0020B9B802007D97020064
:109AD0009CB9020088100010D9B8020000A0004014
:109AE00080100010B81C0020C41C002006B9020021
:109AF00009190020741C002020B9020080B902005E
:109B0000C51C0020C51D0020F795020008B1FDF717
:109B100063FC4FF40033C8F808352878FFF7CAFC17
:109B200008B1FDF759FCA449DFF8D4B2002000F0D9
:109B300041FA9FED9D8B002427464FF0000A0DF15E
:109B40001B00FEF7CDF8054648B1FDF789FFF6E7A3
:109B5000002A7FF471AF6375A37505236BE79DF849
:109B60001B20964900F0E8FB9DF81B30242B00D009
:109B700024B193497A1CCB550124D7B2B742DED128
:109B80008F4990480323DAB2964268D8B2424FF028
:109B900000046AD18C49204600F00CFA8B488DF8FD
:109BA0001C4001F0FAFD864AC0B20135EBB2834297
:109BB0005DD34FF001084546DFF80092002707A863
:109BC000FEF78EF8E8B99DF81C200590494600F094
:109BD000B3FB9DF81C207A49059B2A2A04BF013556
:109BE000EDB24FF00C0018BF3B4600FB051003F12F
:109BF000010708BF9846C254FFB2B8F1000F00D069
:109C000054409DF81C300A2B03D02C2B01D00C2F74
:109C1000D5D90135EDB24FF000030F2D8DF81C3072
:109C2000CAD9674F10220BA9204601F033FD97F8DF
:109C3000B5209DF82C309A421CD097F8B6209DF89C
:109C40002D309A4216D0624A49231370614A13702C
:109C5000FEF736F86049002000F0ACF904E05A5CE9
:109C600001331C5C94428ED00024274667E7AB5C2E
:109C70005C409AE75948002101F026FC52465B46B9
:109C800051EC100B01F0C0F8B0EE481AF0EE681A73
:109C90008046894649EC108B01F0AAFA524651ECF5
:109CA000100B5B4601F014F84D4B002201F0ACF8AC
:109CB00004460D464046494601F0FCF901F022FAFF
:109CC00002460B462046294600F0DCFE38A3D3E9C5
:109CD000002300F0FDFF01F0EDF90021804641482E
:109CE00001F0F2FB52465B4651EC100B01F08CF890
:109CF000B0EE481AF0EE681A41EC100B41EC190B6B
:109D000001F076FA524651EC100B5B4600F0E0FF92
:109D1000334B002201F078F804460D4651EC190B44
:109D200001F0C8F901F0EEF902460B46204629463B
:109D300000F0A8FE1EA3D3E9002300F0C9FF01F044
:109D4000B9F900210446284801F0BEFB51EC100B84
:109D5000B8F1000F3FF47CAF002C3FF479AF234BF8
:109D6000002200F0B5FF01F0A5F980B200283FF411
:109D70006FAF1F4B97F82420C3F80080154B1A7063
:109D80001C4B97F83C201C60114B1A701A4B188022
:109D90004FF0A0434FF40032C3F80C25FDF790FFBD
:109DA000164958E7AFF30080000000000000F03FC4
:109DB00000000000D012634131B9020041B9020035
:109DC000A21B00207DB8020044B902007EB8020048
:109DD000681C0020621C002064B90200BA1B00202D
:109DE00000004E40D21B00200E1C0020000024402A
:109DF000641C00206C1C0020A01B002054B9020031
:109E0000000059400369C1688B429DBF8268D21827
:109E100002F1FF3203F1FF3394BF501A581A704712
:109E20002DE9F843D0E902940546A9EB04084068FF
:109E3000904520440F46144404D901F030FCEC60F6
:109E4000BDE8F8834246A4EB090401F028FC6868E9
:109E5000224607EB0801F0E72DE9F843C5680646FE
:109E6000894617464FF000083469B3687068A54208
:109E700028BFE418013C621B5C1BBC4228BF3C4667
:109E8000944228BF144649462844224601F007FC64
:109E9000B3682544AB4208BF00253F1BA044A14442
:109EA000F560E1D14046BDE8F883000010B5114CE3
:109EB000114AA2610223C4E90433104BE361A26496
:109EC0004FF400730E4A0F492362E264002310220C
:109ED000E01DA3626362E362A3656365E3652265D7
:109EE00001F039FC0849204601F035FC2023A3711C
:109EF00010BD00BFC81E0020ACB90200501F0020DA
:109F0000401F0020B5B90200B9B90200F8B5184CDD
:109F1000182300FB033503FB00402544C46A012CD1
:109F20000F4616460FD0022C1AD0F4B92846FFF778
:109F300069FF864205D8324639462846FFF770FF4A
:109F400034462046F8BD2846FFF75CFF864234467B
:109F500028BF0446224639462846FFF761FFF0E74E
:109F60002846BDE8F840FFF777BF0024E9E700BFC7
:109F7000C81E002073B50E4B1B7804460D461646CE
:109F80000BB9FFF793FF00230DF107008DF80730A1
:109F9000FDF7AEFB324629462046FFF7B7FF0446E1
:109FA0009DF80700FDF7C8FB204602B070BD00BF5A
:109FB000C81E002013B504460846019101F0EDFBD0
:109FC00001990246204602B0BDE81040FFF7D2BF1B
:109FD000826810B504464068531C834205D8206847
:109FE0008154A360E3680133E360D4E901329A420B
:109FF0000BD121682069FFF7BDFFA368984215BF08
:10A000004FF0FF330023E360A36010BD2DE9F84F4C
:10A010009946DDE90A431646054688460A464FF04A
:10A02000010AB24212D2CA4538BFCA4613F0010B28
:10A0300001D184B90024EB68002B48DB0127B9F17A
:10A04000010F1FD909F1FF397743F8E70AF1010A37
:10A05000B2FBF6F2E5E79B0712D5B9F1000F0CBF92
:10A0600030272027A245E6D239462846FFF7B0FF21
:10A07000EB68002B04F1FF34DDDB002CF2D1D9E7D3
:10A080002027EFE7B8FBF7F39E42DDD9DFF84890D1
:10A09000B8FBF7F3284619F8031007FB1388FFF7FE
:10A0A00097FFEB68002B03DBB7FBF6F3B74210D248
:10A0B000BBF1000F0BD054B1A24508D22021284695
:10A0C000FFF786FFEB68002B04F1FF34F3DABDE8FD
:10A0D000F88F1F46DCE700BFC0B902002DE9F04F42
:10A0E0009BB00AAB0E46059340210023CDE9061331
:10A0F000CDE90830039015464FF00A0A16F8011B07
:10A1000039B9089B002B00F30B8108981BB0BDE800
:10A11000F08F252940F0B5804FF0000B07E0302B81
:10A120000FD14BF0020B01E04BF0010B0E46314614
:10A1300011F8013B2D2BF7D0F1D8232B11D02B2B6D
:10A140000CD00024314611F8013BA3F1300009285E
:10A150000AD80AFB0434303C0E46F3E74BF0040BFC
:10A16000E4E74BF0080BE1E72E2B0FD10E464FF042
:10A170000009304610F8011BA1F13007092F07D85C
:10A180000AFB0913A3F130090646F2E74FF0000974
:10A19000304610F8011B01F0FB07682F0646F8D087
:10A1A000782909D86F290BD8632966D020D82529AA
:10A1B00067D0582900F09480089B002B9EDAA0E716
:10A1C00070390829F8D801A353F821F011A302002F
:10A1D000B9A10200B9A10200F1A20200B9A10200D6
:10A1E000CFA20200B9A10200B9A10200E1A20200BF
:10A1F0006429E1D129680F68081D87EAE7712860A2
:10A20000A1EBE7714FF0010809293EDCC84538BFD2
:10A21000C8462CB1002F02DB1BF0040F00D0013C1C
:10A220001BF0020F02D0B9F1000F04D01BF0010F98
:10A2300001D17CBB002408990029BDDB002F35DA51
:10A240007F422D2105A8FFF7C3FE08990029B3DB43
:10A250000BF00301022904D1B9F1000F01D154BB65
:10A26000002408990029A7DBCDE9004B4B460A22C0
:10A27000394605A8FFF7CAFE9EE72B681A1D197814
:10A280002A6005A8FFF7A4FE96E708F10108B1FBD4
:10A29000FAF1B9E7A045CED2202105A8FFF798FE34
:10A2A0000899002904F1FF34C3DAC4E71BF0040F56
:10A2B000CBD02B21C6E7A045D3D2302105A8FFF78C
:10A2C00087FE0899002904F1FF34C8DAC9E7296834
:10A2D000CDE9004B081D28604B460A220968C8E7F3
:10A2E0002968CDE9004B081D28604B461022F5E790
:10A2F0002B681A1D2A601C6814F8011B00293FF402
:10A300005BAF05A8FFF764FE089B002BF4DA53E768
:10A3100029680B1D2B6000220823CDE90032E5E7F8
:10A32000079A1AB103980AA9FFF724FEDDE907236B
:10A3300013440893E9E600BF0EB403B503AB01AACA
:10A3400053F8041B0193FFF7C9FE02B05DF804EB5C
:10A3500003B070476DDF704779DF70477DDF70476E
:10A3600064DF70472DE9F04F85B000250E9CBDF8E5
:10A370003CB0B4F800A00191074690461E46A9469D
:10A380003A884A450DDC45B12388013BA3EB0A031B
:10A390009BB2FF2B3AD806F80A30002005B0BDE882
:10A3A000F08F7A6852F82900039000220DF10B011A
:10A3B00003A8FFF7D5FF0028F0D19DF80B204245F8
:10A3C00021D12288002D14BF0020022002EB0801B9
:10A3D000014459451ADC3DB9013292B2019B2280F9
:10A3E000B35422880132228022880DF10B013244BD
:10A3F00003A8FFF7B5FF0028D0D121889DF80B20D6
:10A400000A442280012509F10109B9E70C20C5E7BA
:10A410002DE9F341089FBDF824801546CDE9007869
:10A42000022204461E46FFF79DFF50B93346102214
:10A4300029462046CDE9087802B0BDE8F041FFF793
:10A4400091BF02B0BDE8F0812DE9F04F00231788DD
:10A45000138090F82D3085B006460D46144653B350
:10A46000082F01D80C2027E102A8FFF773FF00286E
:10A4700040F0228123880822EA54238801339BB2CA
:10A480001B222380EA542088013080B220800622DB
:10A490000DF10901284401F002F923889DF80820F4
:10A4A00006339BB212F0FE0218BF01222380EA5449
:10A4B000238801332380B378FBB123880433BB4264
:10A4C000D0D802A8FFF748FF002840F0F580238885
:10A4D0000322EA54238801339BB219222380EA54D1
:10A4E0002388BDF8082001339BB2E9182380EA5481
:10A4F000120A4A70238802332380F2789AB12388A3
:10A50000D91CB942AED80221E954238801339BB249
:10A5100001212380E95423880B449BB22380EA5411
:10A5200023880B4423807268AAB12388D91CB942BE
:10A5300098D8022192F90020E954238801339BB274
:10A540000A212380E954238801339BB22380EA54F3
:10A550002388013323803389002B40F0A180338A84
:10A560005BB1CDE900472B460722032106F110001D
:10A57000FFF74EFF002840F09F80338B5BB1CDE9A1
:10A5800000472B461522142106F11800FFF740FF63
:10A59000002840F09180326A002A40F09080D6F87E
:10A5A0002480B8F1000F30D0B8F804302188981C0E
:10A5B0008A1C0244BA423FF655AFFE283FF652AF1E
:10A5C00003336B54238801339BB2FF222380EA5468
:10A5D000238801339BB22380B8F80020EA54E9189D
:10A5E000120A4A702088023080B22080B8F8042015
:10A5F0005AB1D8F8081000296BD0284401F04FF860
:10A600002388B8F804201344238096F82C30002BBC
:10A6100040F09A80307800284ED03388012B58D0F3
:10A62000228802F1020CBC453FF61CAF012805D17F
:10A630007378023313449F42FFF414AF023FBF1AF2
:10A64000BFB202A905EB0C00ADF80870FFF786FE5B
:10A6500090BB3178BDF80830022900F0BA807278DA
:10A660009A4202D3BB4240F2B280012940F0B3804B
:10A67000974293B2C0F0AF80ADF808300821BDF822
:10A680000830FE2B3FF6EEAE22880133AB54228811
:10A69000013292B22280A9542288134423800BE015
:10A6A000CDE900472B460622022106F10800FFF7FC
:10A6B000AFFE00283FF453AF05B0BDE8F08FB4F80B
:10A6C00000C00CF10603BB423FF6CCAE1188052951
:10A6D00001D80720F0E76FF4486E01EB0E039BB240
:10A6E0004FF27D3E7345F4D95388052BF1D96FF4B1
:10A6F0004860181880B27045EBD94FF6FF70814260
:10A7000003D0834201D09942E3D8052305F80C30E9
:10A71000238801339BB212212380E954238801331B
:10A720009BB223801188E954E818090A41702388F4
:10A7300002339BB223805288EA54E918120A4A7005
:10A740002388023323802AE7B36A002BC1D04FF05D
:10A7500000094FF00C0A4FF0160B96F82C305FFAF8
:10A7600089F293427FF656AFB16A0AFB02F201EB1F
:10A770000208B8F80430981CFE283FF673AE208813
:10A7800003332B54238801339BB2238005F803B095
:10A79000238801339BB223808A5AEA54E918120AAB
:10A7A0004A702088023080B22080B8F804205AB164
:10A7B000D8F8081000298CD0284400F070FF2388B6
:10A7C000B8F804201344238009F10109C5E70921E1
:10A7D00055E7BB42FBD9ADF808704FE710DF704773
:10A7E00013B5044609496846FDF760F9019808B9B0
:10A7F00002B010BDD0E900212046904718B168464C
:10A80000FDF75EF9F2E71120F2E700BFD4B90200CC
:10A8100013B5044607496846FDF748F9019B0BB993
:10A8200002B010BD2046D3E9002190476846FDF7ED
:10A8300047F9F3E7ECB902000B4991F816335A09CE
:10A84000EC231341DB0706D5084B9A683AB94FF45D
:10A8500080030B60704742F20200FCF7BDBD1A682E
:10A8600042F480021A60704700E100E0C419002041
:10A87000F7B5194F3C7864BB184E0125204635705A
:10A88000FFF7AEFF112821D02046FFF7C1FF144B80
:10A890008DF80340186801900DF10300FCF728FFC4
:10A8A000104901A8FFF79AFF0446B0FA80F040096A
:10A8B00038709DF80300FCF73FFF3CB90A4B347039
:10A8C0001C70FFF7B9FF2846FFF7A2FF204603B030
:10A8D000F0BD0824FAE700BF5121002050210020DC
:10A8E000D0B90200F573020052210020014B187804
:10A8F000704700BF5121002007B508496846FDF7A1
:10A90000D5F8019B13B903B05DF804FBD3E900202F
:10A9100090476846FDF7D4F8F3E700BFE0B90200BE
:10A92000FFF7EABF60DF704769DF704761DF70479C
:10A9300030B5114B1B7891B0E3B1104D34240DF1BB
:10A94000020103A8ADF80240FFF7F0FF70B92946F5
:10A9500001A8FDF7ABF8029B002BF0D003A8D3E9C8
:10A960000021904701A8FDF7ABF8F4E7052801D0D6
:10A97000FCF732FD11B030BD53210020F8B90200C0
:10A980007FB504460D4600294DD0284B0B600C22A4
:10A99000002101A800F0ACFE012606232A68ADF8CC
:10A9A000083001A920208DF804408DF80660FFF7DB
:10A9B000BBFF0C22002101A8002400F099FE2A68A8
:10A9C0008DF8054001A94020ADF80640FFF7ACFF27
:10A9D0000C22214601A800F08BFE2A688DF8044065
:10A9E00001A93046FFF7A0FF0C22214601A800F084
:10A9F0007FFEF8232A68019301A9A120FFF794FFA5
:10AA00000C22214601A800F073FE9DF804302A684C
:10AA100064F3000301A9A0208DF80430FFF784FF40
:10AA2000204604B070BD0E20FBE700BFD818002000
:10AA300008B5FFF777FF10B9014B01221A7008BD66
:10AA4000532100204BDF70471FB50D4C01A8FFF7C5
:10AA5000F9FF70B9214602A8FDF728F8039B002BE7
:10AA6000F4D00198D3E90021904702A8FDF728F817
:10AA7000F4E7052801D0FCF7AFFC04B010BD00BF1F
:10AA800004BA020030B591EA030F00F18480841A01
:10AA900071EB030C05D2121953EB0C03001B71EB85
:10AAA0000C0140F2000CCFF6E07C1CEA430F54D0BE
:10AAB000BCEB410F61D90C0DA4EB135E31EA0C0124
:10AAC00041F4801133EA0C0343F48013DEF1200CCF
:10AAD0002AD303FA0CF5401941F1000122FA0EF5D0
:10AAE000401923FA0EF5694112FA0CF2CD0208D38F
:10AAF00049085FEA30005FEA320228BF42F00102F3
:10AB00000134013C5FEA500C72F1004250F1000048
:10AB100051EB04514FF4001313EB410F38BF30BD1C
:10AB2000090D0905002030BDBEF1200EBEF1200F39
:10AB30001ED223FA0EF5401941F10001CEF1200C8E
:10AB4000124218BF012203FA0CF52A43CEE711EA9C
:10AB50005C0F04BF0020002130BD1CEA410F04BF80
:10AB600001F00041002030BD01F00041002030BD67
:10AB700021F4801101EB045130BD004218BF41F0B7
:10AB80000101BCEB410F08BF30BD4FF0FE4141F465
:10AB90007801002030BD83F00043841A71EB030E6E
:10ABA00007D28EF0004E001B71EB0E01121953EB11
:10ABB0000E0340F2000CCFF6E07C1CEA430FC6D037
:10ABC000BCEB410F72D90C0DA4EB135EC90241EA34
:10ABD0005051C00241F00041DB0243EA5253D2021D
:10ABE00043F00043DEF1200C41D312FA0CF522FAB7
:10ABF0000EF203FA0CF542EA050218BF42F0010218
:10AC000023FA0EF3801A9941E30AC4F30A0411F0FF
:10AC1000404F03D418D0013C40004941013C23D4AB
:10AC20004205C00A40EA4150C90A51EAC3715FEACD
:10AC3000500C72F1004250F1000051EB045130BD54
:10AC400001002FD00020203C0029F9D0B1FA81FC6E
:10AC5000DCF1200E11FA0CF130FA0EF510FA0CF0BE
:10AC60002943A4EB0C04D9E70020D90730BDAEF18D
:10AC7000200EBEF1200F0DD2CEF1200C03FA0CF500
:10AC800033FA0EF32A4318BF43F00103C01A61F1EF
:10AC90000001B9E721F00041C00A40EA4150C90A69
:10ACA00001EB045130BD0020002130BD004218BF2F
:10ACB00041F00101BCEB410F7FF467AFBCEB430FE8
:10ACC0003FF463AF30BD00BF83F00043FFF7DABE4F
:10ACD000F0B540F2FF7681EA030C16EA115E1EBF62
:10ACE000B64516EA1355B5425AD021EA465141F409
:10ACF0008011A1FB024723EA465343F48013AE447C
:10AD0000A0FB03650CF0004C36197D41A1FB034705
:10AD100047F10003A0FB0217F619654153F1000348
:10AD2000094218BF46F0010640F2FE74B3F5007FF9
:10AD300013D2AEF5806EA6452BD24CEA0331280320
:10AD400041EA155140EA16503203450872F10042BB
:10AD500050F1000051EB0E51F0BDAEF2FF3EA645A2
:10AD600017D24CEAC321E80241EA555140EA565055
:10AD7000F202450872F1004250F1000051EB0E5111
:10AD8000F0BD0CF0004141F0FE4141F470010020A3
:10AD9000F0BD1EEA0E0FF4D50CF000410020F0BD0E
:10ADA00016EA115F04BF01F000410020004218BF05
:10ADB00041F0010116EA135F04BF03F000430022D3
:10ADC000124218BF43F0010306EA1354B44218BFFD
:10ADD0009EEA060F03D00CF000410020F0BD21F0E8
:10ADE000004123F00043B1EB065F06D8B3EB065FEA
:10ADF00003D8002918BF002BC3D140F20001C7F6C9
:10AE0000F8710020F0BD00BF2DE9F04391EA030E78
:10AE10000EF0004E40F20007CFF6E07717EA41054A
:10AE20001EBF95EA070F17EA430595EA070F00F0E2
:10AE3000A1807F0D17EA135623EA475343F480138A
:10AE400017EA115521EA475141F48011AD1B05F273
:10AE5000FD354FEAD31C1CF1010C4FF00047B7FB46
:10AE6000FCF77F01A2FB079C0024E3FB07C4DCF195
:10AE7000000CD9F100097CF1000CA0FB0762002056
:10AE8000E1FB072000275FEAC628E0FB0987760D73
:10AE900046EAC226520DF61900277A41E0FB0C6201
:10AEA0005FEAC823E2FB09375FEA585848EAC62838
:10AEB000760D18EB070800214E41E2FB0C8602EBF1
:10AEC000C020DA02E6FB09215B0D43EAC8235FEAF2
:10AED00058585B18002758EB0708E6FB0C38D102DE
:10AEE000E8FB0917520D42EAC3225B0DD219002775
:10AEF0007B41E8FB0C2308EBC6265FEAC128E3FB95
:10AF00000987490D41EAC221520DC91942F10002D7
:10AF1000E3FB0C12470019EB08095CEB010C72EB28
:10AF2000040453EBC62047EB56530026B3F5000F3D
:10AF30007641AD190236D6F1200910FA09F4F04035
:10AF400013FA09F21043F340E40F001943F1000330
:10AF5000B3F5001F24BF5B08013540F2FE77BD4208
:10AF600004D24EEA05511944BDE8F0832D4224D5A0
:10AF7000714626E0004218BF41F00101124218BF9D
:10AF800043F00103B7EB410F2CBFB7EB430F1BE0BE
:10AF9000B7EB410F04BFB7EB430F15E017EA410FC2
:10AFA00004BF17EA430F0FE017EA410FE0D017EA9A
:10AFB000430F02D0B7EB430FDAD04EF0FE4141F41D
:10AFC00070010020BDE8F08340F20001C7F6F8717F
:10AFD000F7E700BF4FF4001C1CEB410F98BF1CEBC0
:10AFE000430F11D851EA030C50EA4C0C5CEA020CF6
:10AFF0000CD004D282428B41804101307047904294
:10B00000994180410130704700207047012070470E
:10B010004FF4001C1CEB410F98BF1CEB430F0CD8E6
:10B0200050EA410C08BF52EA430C08D0904208BFD6
:10B0300099420CBF0120002070470020704701207A
:10B04000704700BF4FF4001C1CEB410F98BF1CEB76
:10B05000430F11D851EA030C50EA4C0C5CEA020C85
:10B060000AD004D282428B418041404270479042D4
:10B070009941804140427047002070474FF4001CC6
:10B080001CEB410F98BF1CEB430F11D851EA030C86
:10B0900050EA4C0C5CEA020C0AD004D2904299416E
:10B0A00080414042704782428B418041404270471C
:10B0B000002070470B0D40F21E42D21A09DBCB0272
:10B0C00043EA505040F00040202A28BF2022D040C0
:10B0D0007047490060EB0000704700BF80B110F07E
:10B0E000004248BFD0F10000120D02F21D42B0FA3A
:10B0F00080F18840521AC30A400503EB02517047A1
:10B100000100704750B140F21D42B0FA80F1884012
:10B11000521AC30A400503EB025170470100704701
:10B1200051EC100B0128494111F5001F0CBF012003
:10B130000020704751EC100B0128494111F5001F08
:10B140008CBF01200020704751EC100B21F0004112
:10B1500041EC100B704700BF2DE9F04155EC104B4E
:10B16000002600278046324610EE100A3B4629464C
:10B17000FFF74EFF30BBC5F30A53A3F2FF3100299E
:10B18000A64625DB332929DC174EC1F120024FF0FA
:10B19000FF3006FA02F2C840A3F21F4326FA03F377
:10B1A0001043184326FA01F124EA000225EA0103BC
:10B1B000C8E9002320462946FFF786FD41EC100B25
:10B1C000BDE8F081C8E9006747EC106BBDE8F0818D
:10B1D000C8E9006745EC104BBDE8F081C8E90045BF
:10B1E00047EC106BBDE8F081FFFF0F00000000008E
:10B1F000F0B52DED028BB0EE408AF0EE608A55EC92
:10B20000114B85B011EE100A294600220023FFF7EA
:10B21000FFFE00287ED1B0EE480AF0EE680AFFF784
:10B2200089FF38B1B0EE480AF0EE680A05B0BDEC0F
:10B23000028BF0BD45EC104BFFF77CFF002874D16A
:10B2400051EC180B00220023FFF7E2FE0028E9D1A1
:10B25000B0EE480AF0EE680AFFF762FF00286AD1F4
:10B2600045EC104BFFF75CFF0028DBD145EC104BA1
:10B27000FFF76AFF55EC104B10EE102A2B4651ECED
:10B28000180BFFF7C1FD41EC100B02A8FFF764FF9C
:10B29000DDE9022320462946FFF71AFD02460B4648
:10B2A00051EC180BFFF710FD06460F4647EC106BEC
:10B2B00051EC180B002200238DED000BFFF7C2FEAE
:10B2C0009DED000B002839D053EC102B2046294669
:10B2D000FFF780FE9DED000B38B151EC100B2246BC
:10B2E0002B46FFF7F1FC41EC100B51EC100B002248
:10B2F00000238DED000BFFF7C1FE9DED000B002834
:10B3000094D051EC100B22462B46FFF7BBFB41ECCF
:10B31000100B8BE700F0CEF81F4B9FED1D0B1B6849
:10B32000036005B0BDEC028BF0BD45EC104B05B0E1
:10B33000BDEC028BF0BD9FED160B77E751EC100BC7
:10B34000224605F100438DED000BFFF743FE9DED16
:10B35000000B38B151EC100B22462B46FFF792FB45
:10B3600041EC100B51EC100B002200238DED000B73
:10B37000FFF768FE9DED000B00283FF457AF51EC3E
:10B38000100B22462B46FFF79FFC41EC100B4DE7BC
:10B39000000000000000F87F50BC02007F2805D8A4
:10B3A000034B185C034B5B5C1840704700207047F0
:10B3B0001CBA02009CBA0200A0F16103192B98BFCD
:10B3C00020387047A0F14103192B98BF20307047F7
:10B3D0007F2805D8034B185C034B5B5C1840704713
:10B3E000002070471CBA02009CBA0200A0F1610361
:10B3F000192B98BF20387047A0F14103192B98BF33
:10B40000203070477F299ABF017001206FF02E0015
:10B4100070475AB10A787F2A0AD800B10260002129
:10B4200019605960501A18BF0120704700207047FA
:10B430006FF02E007047F0B40546084633B10E4653
:10B440002D2306F8013B6D42344602E00E46FBE731
:10B450003C46B5FBF2F702FB175329463D46092B44
:10B460008CBF57333033DBB2274607F8013B91429C
:10B47000EED200233B702378327804F8012906F8D5
:10B48000013BB442F7D8F0BC7047000008B5034B4D
:10B490005B689B681B68984708BD00BF24190020A3
:10B4A00008B50421FFF7F2FF08BD08B50821FFF732
:10B4B000EDFF08BD00B5FBF78BFF024B18445DF8AC
:10B4C00004FB00BF080000002DE9F04F83B001909D
:10B4D000009105462F4615F8016BB1463046FFF73F
:10B4E000E4FF04460028F5D12B2E0CD02D2E0CD1D4
:10B4F0004FF0040895F80090BD1C4FF0000A4FF083
:10B50000000B2E279DE08046F4E78046F5E718F013
:10B51000010F7ED148F0010891E029F02009B9F12E
:10B52000450F25D0002C4EDD0026584F32463B46B5
:10B5300050465946FFF7CCFB82468B46013CF5D17D
:10B540004BEC10ABFFF7ECFD00284BD118F0040FCB
:10B5500002D00BF100439B4618F0020F4BD0009B2A
:10B560000BB1013D1D604BEC10AB03B0BDE8F08F9B
:10B5700018F0020FD6D028F002082F782B2F05D014
:10B580002D2F01D0013503E048F008086F7802350F
:10B5900042F210790CE048F00208B6F57A7FDDBF80
:10B5A00006EB8606303F07EB46064E4615F8017B54
:10B5B0003846FFF775FF0028EDD118F0080F14BFCB
:10B5C000A41BA419AEE7002CBADA00262F4F32468E
:10B5D0003B4650465946FFF717FC82468B460134DE
:10B5E000F5D1ADE7FFF766FF222303604FF0000AB5
:10B5F000DFF89CB0AAE7009B33B1019A1A604FF0C4
:10B60000000A4FF0000BAEE74FF0000A4FF0000BBE
:10B61000A9E73846FFF744FF002883D048F0020628
:10B6200000221A4B50465946FFF752FB00224FF0BA
:10B630008043FFF749FB82468B46013CB04615F834
:10B64000019BB9F12E0F3FF462AF4846FFF728FF88
:10B65000064600283FF461AF48F0020600220B4B7B
:10B6600050465946FFF734FB82468B46A9F130001D
:10B67000FFF734FD52465B46FFF704FA82468B46DD
:10B6800018F0010FD9D1B046D9E700BF000024401F
:10B690000000F07F08B50023FFF7CDFE08BD84460B
:10B6A00040EA010313F0030F18D18446202A0BD37C
:10B6B0002DE9F007B1E8F807A0E8F807A2F12002A9
:10B6C000202AF7D2BDE8F007042A07D351F8043B3B
:10B6D00040F8043BA2F10402042AF7D2002A05D064
:10B6E00011F8013B00F8013B013AF9D1604670477F
:10B6F0008446002A2DD010F0030F04D000F8011B5F
:10B70000013A26D0F7E7C9B241EA012141EA0141F5
:10B71000202A12D3A2F120022DE9F0030B460C4699
:10B720000D460E460F4688468946A0E8FA03203AA1
:10B73000FBD2BDE8F00320320BD0042A05D340F839
:10B74000041B043A05D0042AF9D200F8011B013A7F
:10B75000FBD160467047024610F0030F16D111F07E
:10B76000030F13D12DE9F0004FF001374FF0803374
:10B7700051F8044BA4EB070525EA04051D4002D14E
:10B7800042F8044BF4E7A1F10401F0BC11F8013BCD
:10B7900002F8013B002BF9D1704700F1010110F0D4
:10B7A000030F11D010F8012B002A23D010F0030F43
:10B7B0000AD010F8012B002A1CD010F0030F03D080
:10B7C00010F8012B002A15D02DE970004FF001323E
:10B7D0004FF0803350F8044BA4EB020525EA040532
:10B7E0001D4000D1F6E7A0F1040070BC10F8012B59
:0AB7F000002AFBD1A0EB0100704716
:08B7FC00917F02000000000033
:08B804001180020000000000A9
:10B80C0031A902000000000049AA0200000000005B
:10B81C000100060000000000381900202974020005
:10B82C00000000000338FDD87047000004B8020087
:10B83C0004B8020004000000FFFFFFFFFFFFFFFF42
:10B84C00FFFFFFFFFFFFFFFF0000000000000000F4
:10B85C000000000F060100000300010A41444320D0
:10B86C006576656E74206E756D6265723A2025641E
:10B87C000A002447784747412C004E6F2076616CB4
:10B88C006964206164766572746973696E6720639C
:10B89C0079636C652074696D652C207365742074F4
:10B8AC006F2031207365636F6E642E0A000A253099
:10B8BC0032583A253032583A253032583A253032FF
:10B8CC00583A253032583A253032580A004E6F20FB
:10B8DC0076616C696420677073206379636C652092
:10B8EC0074696D652C2073657420746F2031302061
:10B8FC007365636F6E64732E0A004E6F2076616CF5
:10B90C006964205048592C2073657420746F203161
:10B91C004D2E0A00426561636F6E20737461727400
:10B92C0065642E0A00534141444320737461727460
:10B93C0065642E0A002563000A5061747465726E8A
:10B94C0020666F756E640A004D65737361676520C0
:10B95C004C6F616465640A004D65737361676520A3
:10B96C004572726F720A00000000000002000009AC
:10B97C00000000000F0000000D000000FFFFFFFFA3
:10B98C00FFFFFFFF0000000000E0D70101000600F0
:10B99C0000A00040010400000090004000040000E2
:10B9AC005465726D696E616C005254540053454776
:10B9BC00474552003031323334353637383941420D
:10B9CC0043444546010000071CB802001CB80200A5
:10B9DC00080000000CB802001CB8020008000000AF
:10B9EC0004B802000CB802000800000004B8020001
:10B9FC0004B8020008000000FCB7020004B8020002
:10BA0C000800000043000000504F5349580000004C
:10BA1C0020202020202020202068282828282020B2
:10BA2C00202020202020202020202020202020200A
:10BA3C0048101010101010101010101010101010C2
:10BA4C008484848484848484848410101010101062
:10BA5C0010818181818181010101010101010101BB
:10BA6C00010101010101010101010110101010106F
:10BA7C00108282828282820202020202020202028C
:10BA8C000202020202020202020202101010102034
:10BA9C000007032004170201085710408000000023
:10BAAC0010BA020014BB020028BC020053756E00D1
:10BABC004D6F6E00547565005765640054687500D1
:10BACC004672690053617400000000004A616E0008
:10BADC00466562004D617200417072004D617900E3
:10BAEC004A756E004A756C004175670053657000AD
:10BAFC004F6374004E6F76004465630000000000D5
:10BB0C00414D00504D0000004CBC020048BC0200EE
:10BB1C0048BC020048BC020048BC020048BC020001
:10BB2C0048BC020048BC020048BC020048BC0200F1
:10BB3C00FFFFFFFFFFFFFFFFFFFFFFFFFFFF000007
:10BB4C0088BB0200B8BA0200C4BB0200D8BA02001B
:10BB5C000CBB02006CBB02001CBC020078BB0200D8
:10BB6C00256D2F25642F25790000000025612025E7
:10BB7C0062202565202554202559000053756E64DC
:10BB8C006179004D6F6E6461790054756573646101
:10BB9C0079005765646E65736461790054687572D9
:10BBAC0073646179004672696461790053617475DC
:10BBBC0072646179000000004A616E7561727900EF
:10BBCC004665627275617279004D617263680041FD
:10BBDC007072696C004D6179004A756E65004A752A
:10BBEC006C79004175677573740053657074656D7D
:10BBFC00626572004F63746F626572004E6F76659A
:10BC0C006D62657200446563656D6265720000006B
:10BC1C0025483A254D3A2553000000009DB30200FB
:10BC2C00B9B30200C5B30200D1B30200EDB30200F8
:10BC3C00F9B3020005B4020013B4020000000000C6
:08BC4C002E00000021000000A1
:10BC5400001001401100040000000000002000401A
:10BC64000000000000200040000000000090D0030D
:10BC7400981C00201F0000000000000000000000CD
:10BC8400FF02190200000000000000000000000094
:10BC94000000000000000000000000C3ACBA020075
:10BCA400ACBA0200ACBA0200ACBA0200ACBA0200F0
:0400000320007375F1
:00000001FF
