:020000022000DC
:1070000000000420757302005D7302005F730200CC
:1070100061730200637302006573020000000000E8
:107020000000000000000000000000006773020084
:1070300069730200000000006B7302006D730200B0
:107040006F7302006F730200FD8102006F73020014
:107050006F7302006F7302005180020021820200F0
:107060006F730200F1860200018702006F73020055
:107070006F7302006F7302006F7302006F73020080
:107080006F730200797902006F7302006F73020060
:107090006F7302006F730200099802006F730200A1
:1070A0006F7302006F7302006F7302006F73020050
:1070B0006F7302006F730200000000000000000008
:1070C0006F7302006F7302006F7302006F73020030
:1070D0006F7302006F7302006F7302006F73020020
:1070E0006F7302006F7302006F73020000000000F4
:1070F000000000006F730200000000006F730200C8
:10710000000000000000000000000000000000007F
:10711000000000000000000000000000000000006F
:10712000000000000000000000000000000000005F
:10713000000000000000000000000000000000004F
:10714000000000000000000000000000000000003F
:10715000000000000000000000000000000000002F
:10716000000000000000000000000000000000001F
:10717000000000000000000000000000000000000F
:1071800000000000000000000000000000000000FF
:1071900000000000000000000000000000000000EF
:1071A00000000000000000000000000000000000DF
:1071B00000000000000000000000000000000000CF
:1071C00000000000000000000000000000000000BF
:1071D00000000000000000000000000000000000AF
:1071E000000000000000000000000000000000009F
:1071F000000000000000000000000000000000008F
:10720000354936480A1A02D0072291438D4634493F
:1072100034480A1A06D00722914381F309880222D2
:1072200082F3148830483149314A00F044F831483B
:107230003149324A00F03FF831483249324A00F0D1
:107240003AF832483249334A00F035F83248334987
:10725000334A00F030F833483349344A00F02BF811
:1072600033483449344A00F026F83448344900227F
:1072700000F02CF833483449002200F027F8334856
:107280003349091A082902DB002202604160314AB1
:1072900090471F481F49884205D00268043003B454
:1072A000904703BCF7E700208646EC46002000210B
:1072B000294A9047FEE7884207D0521A05D0037842
:1072C00001300B700131013AF9D17047884202D088
:1072D00002700130FAE770470000042000E003204C
:1072E0000000042000000420649C0200D818002044
:1072F00004190020D0730200D0730200C89A020063
:10730000649C0200D8180020D8180020E89A0200D7
:10731000E89A0200E89A0200E89A0200E89A02005D
:10732000E89A0200E89A0200E89A0200649C0200CF
:10733000909C020004190020041900200419002068
:10734000BC1D0020BC1D0020BC1D0020BC1D002059
:10735000BC3D00209D730200258A0200FEE7FEE787
:10736000FEE7FEE7FEE7FEE7FEE7FEE7FEE7FEE7F5
:1073700000F002B8FFF7FCBF0F484FF00701884349
:1073800085460E4880470E48016841F4700101604F
:10739000BFF34F8FBFF36F8FFFF732BF09480A4922
:1073A0000A4A884207D0521A05D0037801300B7080
:1073B0000131013AF9D17047000004203D7B020001
:1073C00088ED00E0E89A0200D8180020D8180020C4
:1073D0001FB50021039001AA44F20100CDE901117B
:1073E00000F004F805B05DF804FB000072B6094B2C
:1073F0001B68DB0700D500BEBFF34F8F0649074B64
:10740000CA6802F4E0621343CB60BFF34F8F00BF42
:10741000FDE700BFF0ED00E000ED00E00400FA053C
:10742000D0E90223D1E90201994208BF90422CBF62
:10743000012000207047000008B50B4800F097FAC3
:107440000A4B0B49D3E900231218D1E9000143F19B
:1074500000038B4208BF824203D212F1807243F1D3
:1074600000031046194608BDD8180020081900204E
:107470008019002038B5184B1B78044613B9002535
:10748000284638BD0028FAD0037F03F0FF05002B03
:10749000F5D0FFF7D1FFD4E90223994208BF90420B
:1074A00014D3236903B92377D4E9053098472169B8
:1074B0000029E4D0237F03F0FF05002BDFD0D4E9BF
:1074C0000223521843F10003C4E902230348214672
:1074D00000F0FEFAD4E700BF10190020EC9A020079
:1074E00013B5114B11491868019008231048582210
:1074F00000F04CFA044698B90E4A0F4801A900F072
:107500003BF9044660B90C48012100F013FA01234D
:107510000A4A0948194600F075F9094B01221A7008
:10752000204602B010BD00BFE89A020014190020E6
:107530006C19002051750200D8180020FFFF7F0051
:1075400010190020014800F012BA00BFD81800201E
:107550002DE9F04F85B0804600F0F4F940B15A4A69
:10756000D2E9003113F1807341F10001C2E9003129
:107570000021404600F0F5F938B1544E336823B18C
:107580003068FFF777FF002333600121404600F0A9
:10759000E8F920B1FFF750FF4D4BC3E900014D481A
:1075A0004A4F4D4EDFF8389103A900F002FA002847
:1075B00045D1DFF82491454EDFF828A1484600F078
:1075C0009DFA3368002875D07BB13368D0E9020199
:1075D000D3E90223994208BF90422DD233681B7F22
:1075E0001BB13168484600F073FA484600F080FA53
:1075F000D0E902B307460193FFF71EFF019BBBEBE7
:10760000000463EB0105012C75F1000345DBB4F5C3
:10761000350F40D3FFF796FF304A02444FF49603EC
:107620000021504600F00EF900283ED1336813B90E
:10763000404600F0DFF8376005B0BDE8F08F037812
:10764000012B1DD0022B09D14FF0000A304600F06B
:107650004FFA002834D080F81CA0F7E73BB9416806
:107660000B7F23B901230B77304600F031FA03A9D1
:10767000184800F0C9F903A9164800F09AF996E7EE
:1076800041683B68994202D100233B60EFE73046F6
:1076900000F037FAEBE7BA68C0E70021504600F087
:1076A00056F93846FFF7E6FE01E00D28F9D0002331
:1076B000336083E7002BBFD1404600F09FF8BBE763
:1076C000012389F80030D2E708190020881900202A
:1076D000801900206C190020EC9A0200FFFFB40012
:1076E00010190020D818002070B5EFF3108672B67C
:1076F0000C4A946801239CB993600B4B0B4DD3F853
:10770000801029401160C3F88050D3F88410516074
:107710004FF0FF32C3F88420047006B962B670BD22
:107720000370FAE78C19002000E100E0FC06FFBDC1
:10773000084B9A6810B55AB150B9EFF3108172B680
:10774000054A1C6814605C685460986001B962B6B0
:1077500010BD00BF8C19002000E100E0435882B04A
:107760003BB10023435043580193019B012002B0D9
:1077700070471846FBE70000F0B51A4B46791A4CE3
:1077800043F8262004EBC603F7001B793BBB0368D4
:107790000A88C3F8082590F904508A780379002DE7
:1077A000ADBF05F16041114903F00F0C01F56141D6
:1077B0004FEA4212D2B2B4BF01F80C2081F8002384
:1077C0006D0901220A4903F01F0302FA03F341F88D
:1077D0002530E31944F836001A710020F0BD082066
:1077E000FCE700BFA01900209819002014ED00E06C
:1077F00000E100E0036801221A607047036801227B
:107800005A60704773B501F15005AD000068ADB224
:107810004FF480348C400026C0F80843C0F8484339
:10782000465101F5A8714559019522F07F42019D0D
:1078300040F82120C0F844430BB1C0F8044302B023
:1078400070BD00002DE9F74F0D4622F07F4402681D
:107850004FF4803705F150068F408046B60002EBAA
:107860008500C2F84873B6B2C2F80873D2F804159E
:1078700099464FF0000BD0F84035C0F8401542F85B
:1078800006B05B1A9259009223F07F43012B009AB5
:107890004FEA850A0CD1264B4FF4806043F0010378
:1078A0009847D8F8003043F806B09B590193019BE4
:1078B000D8F80010D1F80465C1F84473A31B23F075
:1078C0007F43012B1CD11A4B05F5A875013443F0F9
:1078D000010341F825404FF480609847D8F8003004
:1078E000D3F804359E4209D1D8F800300020C3F8FF
:1078F0004473C3F8047303B0BDE8F08F0D20FAE7BA
:107900008A44C9F1FF13CAF84045D1F80405221A88
:10791000013A22F07F4203F57F439342EED3002ADF
:10792000E2D10134CAF84045D1F804359842DAE78B
:10793000009B020003680222C3F8442309B1C3F884
:107940000423704700684FF48271FFF707BF4FF4BC
:10795000803303FA01F10368C3F84813C3F808132E
:10796000704750318900006889B2FFF7F7BE03689D
:10797000D3F8040570470000024B034A1B681068E7
:10798000184700BFA01900209819002010B561B158
:10799000B2FBF3F403FB1424A4B244B9C0E900140D
:1079A00084608281C381204610BD0E20FCE709203F
:1079B000FAE737B550E8023F1FFAA3F5C488A5429D
:1079C00002BFBFF32F8F00220DE0C48925448489B4
:1079D000A54228BF2D1BC3EA054540E80254002CF0
:1079E000E8D14FF001028DF803200193019B9DF82F
:1079F00003200B6002F0FF0322B14B88006818449B
:107A000003B030BD1846FBE70A884B889A4209D17B
:107A100050E8022FC2EA224240E80223002BF7D1AD
:107A2000012070470020704741DF7047064B10B5BA
:107A300000241C70054B1C60BFF35F8F0449054890
:107A400000F030F8204610BDAC190020B01900201D
:107A5000089B0200A419002007B500230DF10700C0
:107A60008DF80730FFF740FEF1EE103A23F09F0348
:107A7000E1EE103ABFF35F8F094B4022C3F8842137
:107A80009DF80700FFF754FE01F0A4FE20B1FFF7B8
:107A9000CBFF03B05DF804FB20BF40BF20BFF8E779
:107AA00000E100E00B684A684360934208BF00238E
:107AB000016008BF43607047436843B10268916842
:107AC00052680B449342436004BF002343607047F5
:107AD00070B5446806460D46206818B1B36829465B
:107AE000984718B923682B60256070BD2468F3E7B8
:107AF0004368186808B102681A60704743681868DC
:107B000070474368186800B97047884203D102681B
:107B10001A600120704703460068F4E7054B1B68B4
:107B2000082B01BF044B1868B0FA80F0400918BF59
:107B300000207047300100103401001008B54FF0EC
:107B400080430022C3F80C21C3F81021C3F8382564
:107B50004FF0805203F54043D2F80414C3F82015C7
:107B6000D2F80814C3F82415D2F80C14C3F8281559
:107B7000D2F81014C3F82C15D2F81414C3F8301529
:107B8000D2F81814C3F83415D2F81C14C3F84015F1
:107B9000D2F82014C3F84415D2F82414C3F84815B9
:107BA000D2F82814C3F84C15D2F82C14C3F8501589
:107BB000D2F83014C3F85415D2F83414C3F8601551
:107BC000D2F83814C3F86415D2F83C14C3F8681519
:107BD000D2F84014C3F86C15D2F84424C3F87025C9
:107BE000FFF79CFF10B1384B384A1A60FFF796FF39
:107BF00018B1374BFB22C3F81825FFF78FFF48B1A8
:107C00003449354B0A681B6822F00F0203F00F035A
:107C100013430B60FFF782FF18B1304B4FF4007233
:107C20001A604FF08043D3F80024D20744BF6FF0AE
:107C30000102C3F800242A4AD2F8883043F47003C2
:107C4000C2F88830BFF34F8FBFF36F8F4FF0102310
:107C5000D3F80022002A03DBD3F80432002B2FDAFA
:107C6000204B0122C3F80425D3F80024002AFBD0BE
:107C70004FF010221221C2F80012D3F80024002A7B
:107C8000FBD04FF010231222C3F80422154B1A46E2
:107C9000D3F800140029FBD00021C3F80415D2F852
:107CA0000034002BFBD0BFF34F8F0D490E4BCA6839
:107CB00002F4E0621343CB60BFF34F8F00BFFDE7D8
:107CC0000A4B0B4A1A6008BD8C56004048810300DD
:107CD00000F00040E40E00405802001040960240C0
:107CE00000ED00E000E001400400FA05E01800208B
:107CF0000090D00338B5074C051E04F1080318BFE7
:107D00001C4623682BB11A6822605B682846984796
:107D1000F7E738BDBC19002020B9054B01225A7085
:107D2000FFF7E8BF012802D1014A9070F8E77047D9
:107D3000B419002020B9034B01225A70FFF7DABFB3
:107D4000704700BFB419002038B50B4C237883B9B5
:107D50000A486360A3602361E36000F057F80546BA
:107D600001F038FD08B900F05DF8012323702846C2
:107D700038BD8525FBE700BFB4190020197D02003E
:107D800037B50B4C00230DF107008DF80730FFF7D6
:107D9000ABFCE368013BE360E56815B900F058F817
:107DA000A5709DF80700FFF7C3FC03B030BD00BF0E
:107DB000B4190020012813B508D003281CD018B925
:107DC000104B0122C3F8802002B010BD0E4C0023DE
:107DD0000DF107008DF80730FFF786FC23780BB90B
:107DE000FFF7B2FFE3689DF807000133E36001236A
:107DF000A370FFF79DFCE7E700F014F8FFF7C0FF62
:107E0000E2E700BF00E100E0B4190020044A137962
:107E100023B9012110609180184670478520704772
:107E2000C8190020084B1A68D2075FBFC02283F828
:107E3000002301221A604FF080420123C2F8183556
:107E4000024A1370704700BF00E100E0D019002023
:107E5000044B01221A604FF08042D2F81834DB0341
:107E6000FBD470470C00004000F1804000F5C0409A
:107E7000002382B0036003680193019B02B0704746
:107E800003681F2B83BF03F01F03036001484FF0FB
:107E9000A04070470003005007B5019001A8FFF70C
:107EA000EFFF019B00EB8300D0F8003723F4403351
:107EB000C0F80037D0F8003743EA0141C0F8001796
:107EC00003B05DF804FB0000054B4FF0FF320728BC
:107ED00043F8202084BFC01880F85820704700BFA6
:107EE000D419002010B5174C94F86A3043BB04F144
:107EF00030033021FF22013911F0FF0103F8012B7B
:107F0000F9D1C8B2FFF7E0FF01310C29F9D10622FF
:107F100000210D4801F053FD0C4BC02283F80623CD
:107F200040221A604FF4BE70FFF79EFF084B4FF0DF
:107F30000042C3F80423012384F86A30002010BDF6
:107F40000820FCE7D4190020381A002000E100E0E6
:107F50000060004037B5354B1A18044692F93000DE
:107F6000013061D18878002852D01846002250F89C
:107F7000045B013546D1181980F83020002043F801
:107F80002200920002F1804202F5C0420B78D2F842
:107F90001055487825F499151B04000525F4F8556B
:107FA00000F4801003F44033C2F81055034320025C
:107FB000D2F8105500F47C5003432B43C2F810351F
:107FC0004A780194012A01A826D1FFF759FF019BA5
:107FD0009A40C0F8082501A80194FFF751FF019BC2
:107FE000134903F5E073032240F8232024FA02F238
:107FF000012304F0070003FA00F08B5C1843885457
:10800000002003E00132082AB1D1042003B030BDC2
:10801000FE2382F83030D3E7FFF732FF019A0123C5
:108020009340C0F80C35D6E70820EFE7D4190020BC
:10803000381A0020054B184490F930008000C0B277
:1080400000F1804000F5C040704700BFD419002007
:108050002DE9F04F002489B0CDE90244624D4FF480
:108060008072012102F1804303F5C04390B21B6886
:10807000012B06D1D5F804330B4202D0FFF7F4FEF2
:108080000C430432B2F5907F4FEA4101EAD1574BDD
:108090001B68012B0ED14FF4BE70FFF7E5FE4FF0C9
:1080A000A04344F00044D3F810350293504BD3F86A
:1080B0001035039314F0FF0F1AD04E4F0126002500
:1080C000264210D0AB0003F1804303F5C043D3F840
:1080D0001005D3F8101557F8253023B1C1F301412D
:1080E000C0F3052098470135082D4FEA4606E7D131
:1080F000002C75DA04AF002304937B604FF0FF334C
:10810000CDE90633DFF8EC90DFF8EC8000252E4651
:1081100018F9012B531C4AD0C2F3C2000123D4B278
:1081200002F03F0B02F0070203FA02F208AB191843
:1081300011F8083C13423AD009EB0B03A40993F958
:10814000303059F823A0BAF1000F08D1032C2ED1FA
:1081500017F800C04CEA020C07F800C001E0032C3D
:10816000F6D001A8CDF804B0FFF78AFE019B11F804
:10817000181C03F5E07C114250F82C00C0F30140BC
:1081800005D0022813D1032C0BD1214604E003288B
:108190000DD1032C05D102215846FFF77DFE013594
:1081A000EDB2BAF1000F02D021465846D047013651
:1081B000042EADD1A5B14FF0A0430299D3F81025FC
:1081C00003F540739142D3F8103502D103999942D7
:1081D00006D002920393049A059B0692079393E7B5
:1081E00009B0BDE8F08F00BF006000407C61004036
:1081F00000030050D4190020341A0020014B1B68E2
:10820000184700BF401A002000F1804000F5E04010
:10821000002382B0036003680193019B02B07047A2
:10822000F0B5504B504C1B6885B0002B3DD04FF43F
:10823000827094F82E20FFF7E7FF2AB394F82F30CE
:1082400013BB4A4B1B68002B33D04FF48070FFF7F1
:10825000DBFF638B94F82D108B424FD922895B1A78
:108260009BB292B26383D31A626802EB4303404A23
:10827000C2F82C36C2F830164FF48270FFF7C4FFF4
:108280003C4B01221A6014E0636802932389ADF825
:108290000C30E36800218DF8041023BB237423689D
:1082A00001A89847002384F82F3094F82E30002B33
:1082B000C7D1314B1B685BB14FF48870FFF7A4FF47
:1082C0000023237402238DF8043001A82368984703
:1082D0002A4B1B68EBB14FF48A70FFF795FF002320
:1082E000237405B0F0BD208B608363602081E16062
:1082F000002AD4D11E4B01221A60D0E7BCD1E3681A
:10830000012284F82F2013B100226283AFE7638338
:10831000B2E766694FF000470125002EE1D0B6FABA
:1083200086F227FA02F34632920026EA030602F1A9
:10833000804303F5E0431B68002BEED01046FFF7A7
:1083400063FFA2F58C72D30882F00402C2F38002AC
:108350008DF808308DF8045023688DF8092001A8A5
:108360009847DAE704710040481A00200071004085
:108370000070004004700040107100401471004013
:1083800038B51E4B044693F82C00A8BB1C4A196054
:108390002178C2F8F0156178C2F8F415E578187400
:1083A000012183F82C1083F82D00586183F82F00E9
:1083B00083F82E506FF00043C2F808334FF48270F8
:1083C000FFF722FF4FF48070FFF71EFF4FF48A7013
:1083D000FFF71AFFA3780B485B01DBB280F8073385
:1083E000802303600223C2F804330DB1C2F80413E2
:1083F000C2F80015002038BD0820FCE7481A00200C
:108400000070004000E100E030B5224B1A7C002AE9
:108410003ED100F10C0403EB4402127922B993F827
:108420002D20013283F82D2003EB4403CA790C7A06
:108430008D781A715C714B782D021B0105F4E06593
:1084400003F030032B430D7805F003052B43CD7863
:108450002D0305F480552B430D792D0405F4E025FB
:108460002B434D7989792D0505F48015090601F016
:1084700080712B430B43010101F1804101F5E04183
:108480000020C1F81835C1F81445C1F8102530BDD9
:108490001120FCE7481A0020054B93F82E30002BE2
:1084A00014BF0020042000F1804000F5E040704738
:1084B000481A002070B5264A264B05461220C2F8FD
:1084C00008031C7C022C03D1C2F80403112070BDE8
:1084D000187C01281DD1D86818B10223C2F80433D2
:1084E000F4E7DD60198393F82E3063B91A4A1368F4
:1084F000002BFCD04FF48070FFF786FE144BC3F8BE
:108500002C56C3F83016124B0222C3F80423002065
:10851000DDE7022093F82E40C2F804030126002074
:108520001E745D601981D8603CB1598393F82D3079
:10853000C2F82C56C2F83036C9E7C2F82C564FF4B0
:108540008070C2F83016FFF75FFE20461660BEE767
:1085500000700040481A0020007100402DE9F743E8
:10856000002406460F4600F5A0754FF48038A1465A
:108570002B688BB1D6F8043308FA04F21A420BD0F8
:10858000C5F800902B680193019BA30003F5A0732D
:1085900098B2D7E9003198470134042C05F104055D
:1085A000E6D103B0BDE8F083F7B506792F4D0C2373
:1085B0007343EF183C7A002C56D1EA504B687B602D
:1085C000477903682246D0B2874244D843F3073440
:1085D000C878002CA8BF04F16047C3F30732BABFC4
:1085E000234F02F00F0C07F561474FEA4010C0B26D
:1085F000B4BF07F80C0087F80003640901201D4F81
:1086000002F01F0200FA02F247F82420D3F80445D2
:108610004A7824F0030402F003022243C3F804253D
:10862000D3F808458A7824F0030402F003022243B9
:10863000C3F808250A78D3F8104502F00F0224F099
:108640000F010A43C3F810250C2303FB06552872BB
:10865000002003B0F0BD900000F5A07001321C5066
:10866000185801900198AEE70820F2E7781A002028
:1086700014ED00E000E100E0036801221A600379D4
:10868000034A0C2101FB032302221A72704700BF28
:10869000781A002037B54FF4803400688C407BB1E5
:1086A0008B0003F5A0730025C550C3580193019BAF
:1086B000C0F8044301F5A87140F8212003B030BD93
:1086C000C0F80843F6E770B4046840F20116D4F825
:1086D00000528E4025EA0605C4F80052D4F8005234
:1086E0002B43C4F800329DF80C3070BCFFF7D2BFAA
:1086F00001490248FFF732BF781A0020009000407D
:1087000001490248FFF72ABF841A002000A0004058
:108710002DE9F74F4FF00009154D164F06464FF063
:10872000040AC8465FFA89FB01240DF1070004FA28
:108730000BF48DF80780FEF7D7FF2C4208D03B687A
:1087400014EA030201BF23433B6086F800B092465F
:108750009DF80700FEF7ECFFBAF1000F03D0A54328
:1087600009F10109DED1504603B0BDE8F08F00BF2A
:10877000FFFF0100901A002010B5A1B19AB10123AA
:108780008340C3F3100484B10A4C246823420ED002
:10879000C00000F1804000F5F830C0F81015C0F8B6
:1087A0001425002010BD0E20FCE70720FAE7082062
:1087B000F8E700BF901A0020012202FA00F3580CDB
:1087C000400440B91BB1064A1268134205D0054A5D
:1087D000C2F804357047072070470820704700BF73
:1087E000901A002000F00140034B187810B90122C4
:1087F0001A70704785207047941A00200020704737
:108800000020704767DF704730B5082285B0054605
:108810000C460DEB0200002101F0D1F8FFF762FBDE
:1088200030F0080301D0FEF7D3FDFFF7DDFF852808
:1088300002D008B1FEF7CCFD0DF10200FFF768FF92
:1088400008B1FEF7C5FD0DF10300FFF761FF08B1A8
:10885000FEF7BEFD224B1A889B78ADF804208DF8F8
:10886000063025BB54B101A92046FFF773FB08B1C0
:10887000FEF7AEFD2046FFF7DDFB2BE00720FEF7FD
:10888000A7FD20469DF803308DF80B30C0F387001C
:108890009DF802308DF80C0002A901208DF80A30F5
:1088A000FFF7B0FF08B1FEF793FD05B030BD01A999
:1088B0002846FFF74FFB08B1FEF78AFD2846AD00BA
:1088C00045F00305FFF7B6FB8DF80850002CD9D012
:1088D0000028C8D0A40044F003048DF80940D1E773
:1088E000149B02003FDF70476DDF704772DF7047F7
:1088F00073DF704777DF704770470000224A030A32
:1089000010B51373214B50739A600F229A80204A3E
:108910005362204B1B78022B0AD11F4A1F4B117840
:1089200049B30421597599750A21197000231370F0
:108930001B4A174852F8041B00F0FAFC08B1FEF776
:1089400047FD164A16491748FFF7D0FF08B1FEF752
:108950003FFD144C022221780120FFF7CBFF08B124
:10896000FEF736FD20780121FFF7C2FF50B1BDE8C8
:108970001040FEF72DBD012105205975997518701D
:108980001170D5E710BD00BFF5180020201B002096
:108990009C1A00202C1B00202D1B0020DC1A00201C
:1089A000E4180020F41800202DE9F04703788046F1
:1089B00083BB40680321FFF77DFD08B1FEF708FD8A
:1089C000154E16493268DFF85890002000F028FC58
:1089D00000273D464FF4616AD8F80430DA5B12FB99
:1089E0000AF2002AB8BF02F2FF3294122246494628
:1089F0000020023700F014FC062F2544ECD1336828
:108A0000013333600320B5FBF0F0BDE8F04780B2DE
:108A1000FFF774BFBDE8F087D81A0020179B02004B
:108A20002A9B020080B5012094B0FFF75BFFFEF7A0
:108A300057FD08B1FEF7CCFC00210120FFF7E0FE56
:108A400008B1FEF7C5FCFEF7F1FF08B1FEF7C0FC68
:108A50008D4A10685168127A05AB03C38B498C4864
:108A60001A70FFF78DFC08B1FEF7B2FC05A90020D3
:108A7000FFF7CAFC08B1FEF7ABFC86480321FFF7FD
:108A800019FD08B1FEF7A4FC83480321FFF712FD8E
:108A900008B1FEF79DFCFFF7A7FE08B1FEF798FCB2
:108AA0007E4A7F480023CDE9052305A97D4AFFF7CB
:108AB0007BFD08B1FEF78CFC7B4B1868431C7B4B9D
:108AC00040F0BB80D3F81025794C7A49D2B2D4401B
:108AD000002000F0E3F900212246009101237048B4
:108AE000FFF7F1FD6E48FFF7C7FDFFF7D5FC044621
:108AF0007148FFF70DFE08B1FEF76AFC6E4D6F4935
:108B000028782246FFF738FEA84608B1FEF760FC39
:108B100000F022FE08B1FEF75BFC002305A901204E
:108B2000059300F0A1FE08B1FEF752FC05A800F085
:108B3000F3FE08B1FEF74CFC6148FFF7D5FE08B123
:108B4000FEF746FC5E4C5F4963780393A37802937B
:108B5000E3780193237900936379A2795A4E5B4DB0
:108B60005B4F002000F05CFB14211620FFF74CFE49
:108B700040F652133380EB783B70022B05D95549F0
:108B8000002000F08BF900233B70534B6A88DA70A9
:108B90002A685A71110AA2799A716279DA71227976
:108BA0001A72E2785A72A2789A7262784B4C1971F2
:108BB0000025DA72B3603C220F23002105A8B380A0
:108BC00000F0FDFE06231822294620468DF81730B6
:108BD0008DF814500E9600F0F2FEE37D3A78656051
:108BE00065F30413E3754FF48043A36001239A42B5
:108BF0002575A581A37340D104236375A3750A234A
:108C000023704FF6FF70FFF779FE0220FFF7F6FDA5
:108C100008B1FEF7DDFB3249002000F03FF998F87B
:108C20000000FFF7C9FD08B1FEF7D2FB2D49002077
:108C300000F034F9FEF710FFFCE738B9D3F810253F
:108C40002949D2B24FF4FA34D44042E7D3F8104560
:108C500040F24D13E4B258434FF47A53A0FB0301A2
:108C6000C4F12003A4F1200201FA03F320FA04F472
:108C70001C4321FA02F214432DE7002AC1D1637587
:108C8000A3750523BCE700BFEA9B0200A989020087
:108C9000F39B0200F41A0020FA1A002009000306D0
:108CA000F89B0200F9880200841000100090004038
:108CB000804C51002E9B02001F1B00204091004061
:108CC000951A00208F9B0200201B002080100010AE
:108CD0002C1B0020AF9B0200F5180020DC1A00209E
:108CE000C99B0200DA9B0200619B02000369C16814
:108CF0008B429DBF8268D21802F1FF3203F1FF332D
:108D000094BF501A581A70472DE9F843D0E90294DD
:108D10000546A9EB04084068904520440F461444DA
:108D200004D900F023FEEC60BDE8F8834246A4EBD2
:108D3000090400F01BFE6868224607EB0801F0E713
:108D40002DE9F843C5680646894617464FF00008E6
:108D50003469B3687068A54228BFE418013C621BFF
:108D60005C1BBC4228BF3C46944228BF144649467F
:108D70002844224600F0FAFDB3682544AB4208BF00
:108D800000253F1BA044A144F560E1D14046BDE869
:108D9000F883000010B5114C114AA2610223C4E906
:108DA0000433104BE361A2644FF400730E4A0F4981
:108DB0002362E26400231022E01DA3626362E36287
:108DC000A3656365E365226500F02CFE0849204633
:108DD00000F028FE2023A37110BD00BF301B00202F
:108DE000009C0200B81B0020A81B0020099C020068
:108DF0000D9C0200F8B5184C182300FB033503FB4B
:108E000000402544C46A012C0F4616460FD0022CA0
:108E10001AD0F4B92846FFF769FF864205D83246D2
:108E200039462846FFF770FF34462046F8BD2846ED
:108E3000FFF75CFF8642344628BF04462246394687
:108E40002846FFF761FFF0E72846BDE8F840FFF746
:108E500077BF0024E9E700BF301B002073B50E4B3D
:108E60001B7804460D4616460BB9FFF793FF002307
:108E70000DF107008DF80730FEF736FC3246294623
:108E80002046FFF7B7FF04469DF80700FEF750FCA9
:108E9000204602B070BD00BF301B002013B5044651
:108EA0000846019100F0E0FD01990246204602B01B
:108EB000BDE81040FFF7D2BF826810B50446406895
:108EC000531C834205D820688154A360E3680133B2
:108ED000E360D4E901329A420BD121682069FFF79F
:108EE000BDFFA368984215BF4FF0FF330023E36036
:108EF000A36010BD2DE9F84F9946DDE90A431646F7
:108F0000054688460A464FF0010AB24212D2CA45C7
:108F100038BFCA4613F0010B01D184B90024EB68B5
:108F2000002B48DB0127B9F1010F1FD909F1FF39E7
:108F30007743F8E70AF1010AB2FBF6F2E5E79B078F
:108F400012D5B9F1000F0CBF30272027A245E6D279
:108F500039462846FFF7B0FFEB68002B04F1FF34D9
:108F6000DDDB002CF2D1D9E72027EFE7B8FBF7F3E0
:108F70009E42DDD9DFF84890B8FBF7F3284619F890
:108F8000031007FB1388FFF797FFEB68002B03DB49
:108F9000B7FBF6F3B74210D2BBF1000F0BD054B1C0
:108FA000A24508D220212846FFF786FFEB68002B58
:108FB00004F1FF34F3DABDE8F88F1F46DCE700BFA9
:108FC000149C02002DE9F04F9BB00AAB0E460593AE
:108FD00040210023CDE90613CDE908300390154662
:108FE0004FF00A0A16F8011B39B9089B002B00F351
:108FF0000B8108981BB0BDE8F08F252940F0B580A3
:109000004FF0000B07E0302B0FD14BF0020B01E0CB
:109010004BF0010B0E46314611F8013B2D2BF7D0DA
:10902000F1D8232B11D02B2B0CD00024314611F872
:10903000013BA3F1300009280AD80AFB0434303C74
:109040000E46F3E74BF0040BE4E74BF0080BE1E7C7
:109050002E2B0FD10E464FF00009304610F8011BA1
:10906000A1F13007092F07D80AFB0913A3F1300932
:109070000646F2E74FF00009304610F8011B01F0F8
:10908000FB07682F0646F8D0782909D86F290BD836
:10909000632966D020D8252967D0582900F094800C
:1090A000089B002B9EDAA0E770390829F8D801A3A5
:1090B00053F821F0F9910200A1900200A190020062
:1090C000D9910200A1900200B7910200A190020084
:1090D000A1900200C99102006429E1D129680F68BA
:1090E000081D87EAE7712860A1EBE7714FF00108DE
:1090F00009293EDCC84538BFC8462CB1002F02DB29
:109100001BF0040F00D0013C1BF0020F02D0B9F19C
:10911000000F04D01BF0010F01D17CBB0024089983
:109120000029BDDB002F35DA7F422D2105A8FFF78E
:10913000C3FE08990029B3DB0BF00301022904D117
:10914000B9F1000F01D154BB002408990029A7DB15
:10915000CDE9004B4B460A22394605A8FFF7CAFE67
:109160009EE72B681A1D19782A6005A8FFF7A4FE50
:1091700096E708F10108B1FBFAF1B9E7A045CED2B4
:10918000202105A8FFF798FE0899002904F1FF3473
:10919000C3DAC4E71BF0040FCBD02B21C6E7A045F0
:1091A000D3D2302105A8FFF787FE0899002904F1E2
:1091B000FF34C8DAC9E72968CDE9004B081D2860EB
:1091C0004B460A220968C8E72968CDE9004B081D0B
:1091D00028604B461022F5E72B681A1D2A601C6890
:1091E00014F8011B00293FF45BAF05A8FFF764FEEC
:1091F000089B002BF4DA53E729680B1D2B60002233
:109200000823CDE90032E5E7079A1AB103980AA9C5
:10921000FFF724FEDDE9072313440893E9E600BFC6
:109220000EB403B503AB01AA53F8041B0193FFF777
:10923000C9FE02B05DF804EB03B070476DDF704704
:1092400079DF70477DDF704764DF70472DE9F04FAD
:1092500085B000250E9CBDF83CB0B4F800A001918B
:10926000074690461E46A9463A884A450DDC45B158
:109270002388013BA3EB0A039BB2FF2B3AD806F8E5
:109280000A30002005B0BDE8F08F7A6852F8290056
:10929000039000220DF10B0103A8FFF7D5FF002872
:1092A000F0D19DF80B20424521D12288002D14BF1A
:1092B0000020022002EB0801014459451ADC3DB9A7
:1092C000013292B2019B2280B35422880132228063
:1092D00022880DF10B01324403A8FFF7B5FF0028E7
:1092E000D0D121889DF80B200A442280012509F164
:1092F0000109B9E70C20C5E72DE9F341089FBDF846
:1093000024801546CDE90078022204461E46FFF768
:109310009DFF50B93346102229462046CDE90878F2
:1093200002B0BDE8F041FFF791BF02B0BDE8F081A7
:109330002DE9F04F00231788138090F82D3085B069
:1093400006460D46144653B3082F01D80C2027E1DA
:1093500002A8FFF773FF002840F02281238808222B
:10936000EA54238801339BB21B222380EA542088CD
:10937000013080B2208006220DF10901284400F05E
:10938000F5FA23889DF8082006339BB212F0FE02FE
:1093900018BF01222380EA54238801332380B37845
:1093A000FBB123880433BB42D0D802A8FFF748FFA3
:1093B000002840F0F58023880322EA5423880133F3
:1093C0009BB219222380EA542388BDF80820013378
:1093D0009BB2E9182380EA54120A4A7023880233A8
:1093E0002380F2789AB12388D91CB942AED80221E1
:1093F000E954238801339BB201212380E954238857
:109400000B449BB22380EA5423880B442380726868
:10941000AAB12388D91CB94298D8022192F9002018
:10942000E954238801339BB20A212380E95423881D
:1094300001339BB22380EA5423880133238033898C
:10944000002B40F0A180338A5BB1CDE900472B4669
:109450000722032106F11000FFF74EFF002840F01D
:109460009F80338B5BB1CDE900472B461522142139
:1094700006F11800FFF740FF002840F09180326AA3
:10948000002A40F09080D6F82480B8F1000F30D048
:10949000B8F804302188981C8A1C0244BA423FF66E
:1094A00055AFFE283FF652AF03336B542388013388
:1094B0009BB2FF222380EA54238801339BB223808E
:1094C000B8F80020EA54E918120A4A7020880230DD
:1094D00080B22080B8F804205AB1D8F808100029CA
:1094E0006BD0284400F042FA2388B8F804201344D3
:1094F000238096F82C30002B40F09A80307800289A
:109500004ED03388012B58D0228802F1020CBC4582
:109510003FF61CAF012805D17378023313449F42F4
:10952000FFF414AF023FBF1ABFB202A905EB0C0053
:10953000ADF80870FFF786FE90BB3178BDF80830B3
:10954000022900F0BA8072789A4202D3BB4240F2FC
:10955000B280012940F0B380974293B2C0F0AF804F
:10956000ADF808300821BDF80830FE2B3FF6EEAE0E
:1095700022880133AB542288013292B22280A9544E
:109580002288134423800BE0CDE900472B460622B6
:10959000022106F10800FFF7AFFE00283FF453AFA9
:1095A00005B0BDE8F08FB4F800C00CF10603BB4273
:1095B0003FF6CCAE1188052901D80720F0E76FF4FB
:1095C000486E01EB0E039BB24FF27D3E7345F4D91A
:1095D0005388052BF1D96FF44860181880B2704594
:1095E000EBD94FF6FF70814203D0834201D09942FC
:1095F000E3D8052305F80C30238801339BB21221F0
:109600002380E954238801339BB223801188E954D5
:10961000E818090A4170238802339BB223805288DC
:10962000EA54E918120A4A702388023323802AE791
:10963000B36A002BC1D04FF000094FF00C0A4FF075
:10964000160B96F82C305FFA89F293427FF656AFEC
:10965000B16A0AFB02F201EB0208B8F80430981C68
:10966000FE283FF673AE208803332B542388013342
:109670009BB2238005F803B0238801339BB223807B
:109680008A5AEA54E918120A4A702088023080B2D5
:109690002080B8F804205AB1D8F8081000298CD0DE
:1096A000284400F063F92388B8F804201344238089
:1096B00009F10109C5E7092155E7BB42FBD9ADF81E
:1096C00008704FE710DF704713B504460949684634
:1096D000FEF7E8F9019808B902B010BDD0E9002101
:1096E0002046904718B16846FEF7E6F9F2E71120E8
:1096F000F2E700BF289C020013B5044607496846FC
:10970000FEF7D0F9019B0BB902B010BD2046D3E99A
:10971000002190476846FEF7CFF9F3E7409C02002E
:109720000B4991F816335A09EC231341DB0706D590
:10973000084B9A683AB94FF480030B60704742F2C5
:109740000200FDF745BE1A6842F480021A607047B5
:1097500000E100E08C190020F7B5194F3C7864BB9C
:10976000184E012520463570FFF7AEFF112821D095
:109770002046FFF7C1FF144B8DF803401868019095
:109780000DF10300FDF7B0FF104901A8FFF79AFFA4
:109790000446B0FA80F0400938709DF80300FDF7E8
:1097A000C7FF3CB90A4B34701C70FFF7B9FF28465D
:1097B000FFF7A2FF204603B0F0BD0824FAE700BF80
:1097C000B91D0020B81D0020249C0200ED7302008A
:1097D000BA1D0020014B1878704700BFB91D00204A
:1097E00007B508496846FEF75DF9019B13B903B058
:1097F0005DF804FBD3E9002090476846FEF75CF96A
:10980000F3E700BF349C0200FFF7EABF60DF704758
:1098100069DF704761DF704730B5114B1B7891B03D
:10982000E3B1104D34240DF1020103A8ADF802405C
:10983000FFF7F0FF70B9294601A8FEF733F9029B44
:10984000002BF0D003A8D3E90021904701A8FEF730
:1098500033F9F4E7052801D0FDF7BAFD11B030BDAA
:10986000BB1D00204C9C02007FB504460D4600291C
:109870004DD0284B0B600C22002101A800F09FF86E
:10988000012606232A68ADF8083001A920208DF8AA
:1098900004408DF80660FFF7BBFF0C22002101A8F1
:1098A000002400F08CF82A688DF8054001A94020BA
:1098B000ADF80640FFF7ACFF0C22214601A800F0EE
:1098C0007EF82A688DF8044001A93046FFF7A0FF12
:1098D0000C22214601A800F072F8F8232A680193AF
:1098E00001A9A120FFF794FF0C22214601A800F056
:1098F00066F89DF804302A6864F3000301A9A020EB
:109900008DF80430FFF784FF204604B070BD0E20B0
:10991000FBE700BFD818002008B5FFF777FF10B9A4
:10992000014B01221A7008BDBB1D00204BDF7047A0
:109930001FB50D4C01A8FFF7F9FF70B9214602A829
:10994000FEF7B0F8039B002BF4D00198D3E9002177
:10995000904702A8FEF7B0F8F4E7052801D0FDF71C
:1099600037FD04B010BD00BF589C0200844640EA99
:10997000010313F0030F18D18446202A0BD32DE9DD
:10998000F007B1E8F807A0E8F807A2F12002202AC2
:10999000F7D2BDE8F007042A07D351F8043B40F89A
:1099A000043BA2F10402042AF7D2002A05D011F8E0
:1099B000013B00F8013B013AF9D16046704784460B
:1099C000002A2DD010F0030F04D000F8011B013A3B
:1099D00026D0F7E7C9B241EA012141EA0141202A34
:1099E00012D3A2F120022DE9F0030B460C460D46DE
:1099F0000E460F4688468946A0E8FA03203AFBD275
:109A0000BDE8F00320320BD0042A05D340F8041B34
:109A1000043A05D0042AF9D200F8011B013AFBD11F
:109A200060467047024610F0030F16D111F0030F85
:109A300013D12DE9F0004FF001374FF0803351F88A
:109A4000044BA4EB070525EA04051D4002D142F8AA
:109A5000044BF4E7A1F10401F0BC11F8013B02F85A
:109A6000013B002BF9D1704700F1010110F0030F09
:109A700011D010F8012B002A23D010F0030F0AD0C8
:109A800010F8012B002A1CD010F0030F03D010F89F
:109A9000012B002A15D02DE970004FF001324FF054
:109AA000803350F8044BA4EB020525EA04051D4061
:109AB00000D1F6E7A0F1040070BC10F8012B002AD9
:089AC000FBD1A0EB010070478F
:089AC800357D020000000000E2
:089AD000B57D0200000000005A
:109AD80019980200000000003199020000000000FF
:109AE8000100060000000000041900202174020093
:109AF80000000000000000000338FDD87047000097
:109B0800D09A0200D09A0200040000000300010A63
:109B1800414443206576656E74206E756D6265728A
:109B28003A2025640A004E6F2076616C69642061D2
:109B380064766572746973696E67206379636C65AE
:109B48002074696D652C2073657420746F20312032
:109B58007365636F6E642E0A0054657374206D6FAD
:109B680064652E204379636C652074696D6520698E
:109B7800732073657420746F202E3032352073651E
:109B8800636F6E642E0A000A253032583A25303247
:109B9800583A253032583A253032583A253032581A
:109BA8003A253032580A004E6F2076616C6964207D
:109BB8005048592C2073657420746F20314D2E0A3B
:109BC80000426561636F6E20737461727465642E00
:109BD8000A00534141444320737461727465642ED2
:109BE8000A00000000000200000900010006000051
:109BF80000900040000400005465726D696E616C4D
:109C080000525454005345474745520030313233CF
:109C18003435363738394142434445460100000758
:109C2800E89A0200E89A020008000000D89A0200A8
:109C3800E89A020008000000D09A0200D89A0200B0
:109C480008000000D09A0200D09A02000800000024
:0C9C5800C89A0200D09A02000800000028
:109C640000100140110004000090D003001B0020EC
:109C74001F0000000000000000000000FF020D01B2
:0C9C84000000000000000000000000C311
:0400000320007375F1
:00000001FF
